:100000000C94BD140C94EE140C94EE140C94EE1499
:100010000C94EE140C94EE140C94EE140C94EE1458
:100020000C94EE140C94EE140C94EE140C94EE1448
:100030000C94EE140C94EE140C94EE140C94EE1438
:100040000C94EE140C940AA50C94EE140C94EE147B
:100050000C94EE140C94EE140C94EB920C946E3FF2
:100060000C94EE140C94E0320C94D6320C94EE14F2
:100070000C94EE140C94EE140C94EE140C94EE14F8
:100080000C94532D0C94EE140C94EE140C94EE146A
:100090000C94EE140C94EE140C94EE140C94EE14D8
:1000A0000C94EE140C94EE140C94252D0C94EE1478
:1000B0000C94EE140C94EE140C94EE140C94EE14B8
:1000C0000C94EE140C94EE140C94EE140C94EE14A8
:1000D0000C94EE140C94EE140C94EE140C94EE1498
:1000E0000C94EE141333233334333F3347335E33EE
:1000F0004B335E334F3353335E3359334C3D4F3DB7
:100100003E3D423D483D863D533D573D5D3D613D51
:10011000653D6B3D6F3D733D863D793D7D3D813D48
:10012000693E6E3E733E7D3E873E003F913E993E66
:10013000A13EAB3EB53EBF3ECE3ED83E003FE23E86
:10014000EC3EF63EAB79AE79B279B579B879E27921
:10015000BC79BF79C379C679C979CD79D079D3799A
:10016000E279D779DA79DD795E888088A088C588D8
:10017000EA88A18A0F89328955897A899F89C48939
:10018000E9890E8AA18A338A588A7D8A084AD73B30
:100190003BCE016E84BCBFFDC12F3D6C74319ABD56
:1001A00056833DDA3D00C77F11BED9E4BB4C3E917A
:1001B0006BAAAABE000000803F05A84CCDB2D44E69
:1001C000B93836A9020C50B9918688083CA6AAAA6B
:1001D0002ABE000000803F000C94993E0C947D3DA7
:1001E0000C944C3D0C94A18A0C94BF790C949F897B
:1001F0000C9480880C94003F0C94873E0C946E3EC7
:100200000C94D0790C94D83E0C94DA790C94B5798E
:100210000C945D3D0C94EC3E0C94C4890C94533DBD
:100220000C94733E0C9413330C9434330C94BF3EF3
:100230000C946F3D0C94C6790C94A0880C947D8A24
:100240000C9459330C94693E0C94653D0C945E33C8
:100250000C94573D0C940E8A0C9447330C94AE7951
:100260000C944F330C94C9790C94423D0C94CE3EBF
:100270000C94BC790C94B53E0C94338A0C9455893B
:100280000C94AB3E0C945E880C94DD790C94AB79A5
:100290000C946B3D0C947A890C9423330C94483D58
:1002A0000C94733D0C94588A0C94CD790C94913E27
:1002B0000C94E9890C94C3790C94B8790C943F336D
:1002C0000C9432890C947D3E0C94813D0C945AB967
:1002D0000C94C5880C944F3D0C940F890C94D779DD
:1002E0000C943E3D0C94D3790C944B330C94E23E29
:1002F0000C9453330C94B2790C94793D0C94613D79
:100300000C94F63E0C94863D0C94EA880C94A13E25
:100310000C94E2794E414E494E495459494E46CDCE
:10032000CCCC3D0AD7233C17B7D13877CC2B3295AC
:1003300095E6241FB14F0A000020410000C842008A
:10034000401C4620BCBE4CCA1B0E5AAEC59D742034
:10035000573A00434F4D4D554E49434154494F4E36
:100360000044525952554E004552524F5253004983
:100370004E464F004543484F006F6B003F5A206F79
:100380007574206F662072616E67652028003F5982
:10039000206F7574206F662072616E676520282D4E
:1003A0000020746F20003F58206F7574206F662006
:1003B00072616E676520282D0050726F6265204F54
:1003C0006666736574205800454550524F4D204F66
:1003D0004B0A00546F6F206661722066726F6D2049
:1003E0007265666572656E636520706F696E740A0A
:1003F000004D34323120696E636F72726563742010
:10040000706172616D657465722075736167650AEC
:10041000006469730043290A0061626C65642028E6
:100420006D696E2074656D702000436F6C6420658B
:100430007874727564657320617265200020643A77
:100440000020693A0020703A00496E76616C696458
:100450002065787472756465720A0050726F626507
:10046000204F6666736574205A0020536572766F5C
:10047000200020466C6F773A200046523A002059FF
:100480000020204D61783A200020204D696E3A20EE
:1004900000536F667420656E6473746F70733A20D6
:1004A000003F4A206F7574206F662072616E676529
:1004B0002028302E303120746F20302E33290A004E
:1004C000205400205200416363656C657261746959
:1004D0006F6E3A2050002F2F20004D3131332053C2
:1004E000006F66660044454255473A002569792009
:1004F000256964202569682025696D2025697300B8
:100500005072696E742074696D653A20004D657390
:100510006820706F696E74206F7574206F6620722A
:10052000616E67650A005A2050726F6265205061E3
:100530007374204265640A0000000000000000009F
:100540000000000074036F0368036103530300009D
:100550007042000070420000C0400000964300005E
:1005600096430000C843FFFFFF4572726F72207709
:10057000726974696E6720746F20454550524F4D03
:10058000210A004E6F20436865636B73756D207799
:10059000697468206C696E65206E756D6265722C79
:1005A000204C617374204C696E653A200063686565
:1005B000636B73756D206D69736D617463682C2056
:1005C0004C617374204C696E653A20004C696E650D
:1005D000204E756D626572206973206E6F74204CB9
:1005E000617374204C696E65204E756D6265722B67
:1005F000312C204C617374204C696E653A20004D9B
:10060000313130002121204B494C4C2063617573FE
:10061000656420627920746F6F206D75636820694E
:100620006E6163746976652074696D65202D206341
:10063000757272656E7420636F6D6D616E643A20C1
:1006400000627573793A2070617573656420666F16
:100650007220696E7075740A00627573793A207041
:10066000617573656420666F7220757365720A0028
:10067000627573793A2070726F63657373696E6720
:100680000A005072696E7465722068616C746564EA
:100690002E206B696C6C28292063616C6C65642169
:1006A0000A00363726033C3D380E2E303E122422F7
:1006B0001E131A1C180A074309070844000124F4F2
:1006C000D43050C38E20C2A24017828B7011127A90
:1006D000910D816CD90AA861E108C758660761517C
:1006E00043061E4B5D05C145A7041A411104093D8F
:1006F0009803713931034036DB0265339102D430FF
:100700005402802E1D02632CEE01752AC501B0280B
:10071000A001102781018F2564012B244B01E022C9
:100720003401AC211F018D200D01801FFC00841EAF
:10073000ED00971DDF00B81CD200E61BC600201B91
:10074000BC00641AB200B219A8000A19A0006A1805
:100750009900D117910040178B00B516840031160F
:100760007E00B31579003A157300C7146F00581452
:100770006A00EE1366008813630025135E00C7123B
:100780005B006C12570015125400C111510070111A
:100790004F0021114B00D61049008D104700461024
:1007A000440002104200C00F4000800F3E00420F84
:1007B0003C00060F3B00CB0E3800930E37005C0E5A
:1007C0003500270E3400F30D3200C10D3100900DBD
:1007D0003000600D2E00320D2D00050D2C00D90CBF
:1007E0002B00AE0C2900850C29005C0C2700350C71
:1007F00027000E0C2600E80B2400C40B2400A00BDD
:1008000023007D0B23005A0B2100390B2100180B0C
:100810002000F80A1F00D90A1E00BB0A1E009D0A0C
:100820001D00800A1D00630A1C00470A1B002C0AD9
:100830001B00110A1A00F7091A00DD091900C40982
:100840001900AB091900920917007B091800630908
:1008500017004C09160036091600200916000A096F
:100860001500F5081500E0081400CC081400B808BD
:100870001400A4081400900813007D0812006B08EF
:10088000130058081200460812003408110023080B
:1008900011001208110001081100F0071000E00714
:1008A0001000D0071000C0071000B0070F00A1070C
:1008B000100091070E0083070F0074070F006507F3
:1008C0000E0057070E0049070E003B070D002E07CC
:1008D0000E0020070D0013070D0006070D00F90696
:1008E0000C00ED060D00E0060C00D4060C00C80656
:1008F0000C00BC060C00B0060C00A4060B00990608
:100900000C008D060B0082060B0077060B006C06B0
:100910000B0061060A0057060B004C060A0042064F
:100920000A0038060A002E060A0024060A001A06E3
:100930000A001006090007060A00FD050900F40573
:100940000900EB050900E2050900D9050900D005F9
:100950000900C7050900BE050900B5050800AD0579
:100960000800A50509009C050800940508008C05F1
:100970000800840508007C050800740508006C0563
:100980000700650508005D050700560508004E05CF
:100990000700470507004005080038050700310536
:1009A00007002A050700230507001C050600160599
:1009B00007000F0507000805060002050700FB04F5
:1009C0000600F5040700EE040600E8040600E20451
:1009D0000700DB040600D5040600CF040600C904A6
:1009E0000600C3040600BD040600B7040600B104F7
:1009F0000500AC040600A6040600A00405009B0444
:100A0000060095040500900406008A04050085048C
:100A10000500800406007A040500750405007004D2
:100A200005006B04050066040500610405005C0414
:100A3000050057040500520405004D040500480454
:100A40000500430405003E0404003A040500350493
:100A50000500300404002C040500270404002304CE
:100A600005001E0404001A04040016040500110405
:100A700004000D040400090405000404040000043B
:100A80000400FC030400F8030400F4030400F00372
:100A90000400EC030400E8030400E4030400E003A2
:100AA0000400DC030400D8030400D4030400D003D2
:100AB0000400CC030400C8030300C503030024F4AE
:100AC00004D9201BC40C5C0E9804C4095F0265079E
:100AD0007101F405F900FB04B30048048700C10369
:100AE00069005803550003034500BE023A00840222
:100AF000310053022A002902250004022000E401EB
:100B00001C00C8011900AF011700980114008401EE
:100B10001300710110006101100051010E0043012A
:100B20000D0036010B002B010B0020010B001501FD
:100B300009000C01090003010800FB000800F30094
:100B40000800EB000700E4000600DE000600D80005
:100B50000600D2000600CC000500C7000500C20058
:100B60000500BD000400B9000400B5000400B10098
:100B70000400AD000400A9000400A5000300A200C9
:100B800003009F0004009B000300980003009500F1
:100B9000020093000300900003008D0002008B0010
:100BA0000300880002008600020084000300810028
:100BB00002007F0002007D0002007B00020079003D
:100BC000020077000100760002007400020072004B
:100BD0000100710002006F0002006D0001006C0056
:100BE00002006A000100690002006700010066005F
:100BF0000100650001006400020062000100610064
:100C00000100600001005F0002005D0001005C0067
:100C100001005B0001005A0001005900010058006A
:100C2000010057000100560001005500010054006A
:100C30000100530000005300010052000100510068
:100C40000100500001004F0001004E0000004E0066
:100C500001004D0001004C0001004B0000004B0062
:100C600001004A000100490001004800000048005E
:100C70000100470001004600000046000100450059
:100C80000000450001004400010043000000430053
:100C9000010042000000420001004100000041004C
:100CA0000100400001003F0000003F0001003E0045
:100CB00000003E0001003D0000003D0001003C003E
:100CC00000003C0000003C0001003B0000003B0035
:100CD00001003A0000003A0001003900000039002C
:100CE0000100380000003800000038000100370023
:100CF000000037000100360000003600000036001A
:100D0000010035000000350000003500010034000E
:100D10000000340000003400010033000000330004
:100D200000003300010032000000320000003200F9
:100D300001003100000031000000310001003000EE
:100D4000000030000000300001002F0000002F00E4
:100D500000002F0000002F0001002E0000002E00D8
:100D600000002E0001002D0000002D0000002D00CD
:100D700000002D0001002C0000002C0000002C00C1
:100D800000002C0001002B0000002B0000002B00B5
:100D900000002B0001002A0000002A0000002A00A9
:100DA00000002A000100290000002900000029009D
:100DB0000000290000002900010028000000280090
:100DC0000000280000002800000028000100270083
:100DD0000000270000002700000027000000270077
:100DE000010026000000260000002600000026006A
:100DF000000026000100250000002500000025005D
:100E0000000025000000250000002500010024004E
:100E10000000240000002400000024000000240042
:100E20000100230000002300000023000000230035
:100E30000000230000002300000023000100220026
:100E4000000022000000220000002200000022001A
:100E5000000022000100210000002100000021000C
:100E600000002100000021000000210000002100FE
:100E700001002000000020000000200000002000F1
:100E800000002000000020000000200000002000E2
:100E900001001F0000001F0000001F0000001F00D5
:100EA00000001F0000001F0000001F0001001E00C6
:100EB00000001E0000001E0000001E00000039306F
:100EC00000003325000087190000B00F0000DB0888
:100ED0000000BD040000740200003F0100004D311D
:100EE00030362050002020506C616E6E6572427565
:100EF0006666657242797465733A200020467265B1
:100F000065204D656D6F72793A2000436F6D706991
:100F10006C65643A204E6F762032372032303230A2
:100F20000A00204C61737420557064617465643AE2
:100F300020323032302D31302D3135207C2041753A
:100F400074686F723A2028447275636B6261722E06
:100F50006E6574290A00322E302E372E320A004D6B
:100F600061726C696E0020536F66747761726520E0
:100F700052657365740A00205761746368646F6713
:100F80002052657365740A002042726F776E206F7D
:100F900075742052657365740A0020457874657213
:100FA0006E616C2052657365740A00506F776572CC
:100FB00055700A0020503A00656E6473746F707348
:100FC000206869743A200070012C0190012701B05B
:100FD000012201C0011D01F00118011002130130AE
:100FE000020E016002090190020401C002FF00002C
:100FF00003FA004003F5008003F000D003EB00206B
:1010000004E6007004E100E004DC004005D700C005
:1010100005D2004006CD00D006C8008007C30030CE
:1010200008BE00F008B900C009B400B00AAF00B0B3
:101030000BAA00D00CA500000EA000500F9B00C012
:101040001096005012910000148C00C0158700B05B
:10105000178200B0197D00D01B7800001E7300407D
:10106000206E0090226900F024640040275F009009
:10107000295A00E02B5500102E500020304B001054
:10108000324600E033410090353C001037370070A5
:10109000383200A0392D00B03A2800A03B23006070
:1010A0003C1E00103D1900903D1400103E0F0070D2
:1010B0003E0A00C03E0500003F0000403FFBFF80AD
:1010C0003FF6FFC03FF1FF00002100240027002A67
:1010D000002D003000330001010000040107010A67
:1010E0000100002200250028002B002E00310034D2
:1010F0000002010000050108010B0100002000238F
:1011000000260029002C002F0032000001000003FF
:10111000010601090105050505070508080808027B
:101120000202020A0A080804040404010101010180
:101130000101010303030303030303040707070C6F
:101140000C0C0C0C0C0C0C02020202060606060625
:101150000606060B0B0B0B0B0B0B0B0102102020D2
:1011600008081020401020408002010201080402FB
:101170000101020408102040808040201008040271
:1011800001800402018040201008040201080402CA
:1011900001010204081020408001020408102040D0
:1011A0008000000A0B02090C0D0E08070304010061
:1011B000000000000000000000000000000000002F
:1011C00000000000000000000000000000121110EC
:1011D000000000000000000000000000000000000F
:1011E0000000000000000020746F6F206C6F6E67BD
:1011F00020657874727573696F6E2070726576659C
:101200006E7465640A0020636F6C64206578747284
:101210007573696F6E2070726576656E7465640AA9
:1012200000DB0FC93F45BCDA3F8FB30240FCF0271B
:101230004056946140FE4B9B4084A5D840E0231863
:1012400041346A5641E859974164DBD5416E27170E
:1012500042B4B75542CE1A9742C8AED542B5885A65
:1012600043D40684BFA65FA7BF7443E0BF10B11A82
:10127000C01C2C58C0E8F697C0B849D6C04E4E17CF
:10128000C124D355C1802497C1A0B5D5C1121A1766
:10129000C244AE55C2781797C26CACD5C267885AA3
:1012A000C3FFFDFCFAF8F6F4F2F0EEECEAE9E7E54C
:1012B000E3E1E0DEDCDAD9D7D5D4D2D0CFCDCBCACA
:1012C000C8C7C5C3C2C0BFBDBCBAB9B7B6B4B3B254
:1012D000B0AFADACAAA9A8A6A5A4A2A1A09E9D9CB2
:1012E0009A99989795949392908F8E8D8B8A8988EE
:1012F000878684838281807F7E7D7B7A797877760A
:101300007574737271706F6E6D6C6B6A6968676605
:101310006564636261605F5E5D5C5B5A59585857F3
:1013200056555453525150504F4E4D4C4B4A4A49CA
:1013300048474646454443424241403F3E3E3D3C8D
:101340003B3B3A3938383736353534333232313041
:10135000302F2E2E2D2C2B2B2A29292827272625E6
:101360002524232322212120201F1E1E1D1C1C1B7F
:101370001B1A19191818171616151514131312120B
:101380001111100F0F0E0E0D0D0C0C0B0A0A09098E
:101390000808070706060505040403030202010006
:1013A0000053657474696E67732053746F7265645B
:1013B000202800496E736572742066696C616D65E2
:1013C0006E7420616E642073656E64204D31303818
:1013D0000A004F46460A0046616465204865696711
:1013E00068742000426564204C6576656C696E67A0
:1013F00020004661696C656420746F20656E6162CF
:101400006C6520426564204C6576656C696E670A80
:1014100000496E76616C6964206D6573682E0A0000
:1014200050726F62696E67206D65736820706F69B6
:101430006E742000202844525952554E29004732DC
:1014400039204175746F20426564204C6576656C67
:10145000696E67003F20284C2C522C462C422920D4
:101460006F7574206F6620626F756E64732E0A004C
:10147000426164205A2076616C75650A004E6F20C7
:1014800062696C696E65617220677269640A0048FE
:101490006F6D6520257325732573204669727374FB
:1014A000005761726E696E673A20486F6D696E67AA
:1014B0002042756D702044697669736F72203C20FC
:1014C000310A000202040000A0400000A040000019
:1014D00000400000000100000001000080005555A0
:1014E00055000000400033333300AAAA2A00499275
:1014F000240000002000C7711C0099991900D145F3
:101500001700555515003BB1130024491200111165
:101510001100000010000F0F0F00E3380E00437998
:101520000D00CCCC0C00C3300C00E8A20B006421F1
:101530000B00AAAA0A00703D0A009DD80900427B50
:10154000090092240900DCD30800888808001042B2
:10155000080000000800F0C10700878707007550E9
:101560000700711C07003EEB0600A1BC0600699055
:10157000060066660600703E06006118060017F455
:10158000050074D105005BB00500B29005006272E1
:1015900005005555050078390500B81E05000505FC
:1015A00005004EEC040087D40400A1BD040090A700
:1015B000040049920400C17D0400EE690400C7568E
:1015C0000400444404005C3204000821040041107B
:1015D0000400000004003FF00300F8E0030026D2FE
:1015E0000300C3C30300CCB503003AA803000A9B61
:1015F0000300388E0300C08103009F750300D0698B
:101600000300505E03001D53030034480300913D66
:1016100003003333030016290300381F0300971516
:101620000300300C0300030303000BFA020049F12E
:101630000200BAE802005CE002002DD802002DD0C2
:10164000020059C80200B0C0020031B90200DAB18C
:101650000200AAAA0200A0A30200BC9C0200FA9504
:1016600002005C8F0200DF88020082820200457C5B
:1016700002002776020027700200436A02007C64A1
:101680000200D05E02003F590200C85302005265BA
:1016900073656E643A200023646566696E65204454
:1016A000454641554C545F004B6420004B69200077
:1016B0004B702000504944204175746F74756E65FD
:1016C0002066696E697368656421205075742074A2
:1016D0006865206C617374204B702C204B6920610D
:1016E0006E64204B6420636F6E7374616E7473203C
:1016F00066726F6D2062656C6F7720696E746F2003
:10170000436F6E66696775726174696F6E2E680AE1
:1017100000504944204175746F74756E6520666190
:10172000696C6564212074696D656F75740A000ABF
:1017300020436C617373696320504944200A002080
:101740004B643A2000204B693A2000204B703A202D
:10175000000A204E6F206F76657273686F6F740A8F
:10176000002054753A2000204B753A2000206D610E
:10177000783A2000206D696E3A200020643A2000FB
:1017800020626961733A2000504944204175746FAA
:1017900074756E652073746172740A005049442038
:1017A0004175746F74756E65206661696C6564213E
:1017B0002054656D706572617475726520746F6F09
:1017C00020686967680A00504944204175746F7445
:1017D000756E65206661696C6564212042616420D4
:1017E0006578747275646572206E756D6265720AD3
:1017F00000486F6D696E67204661696C6564006FB3
:1018000070656E00545249474745524544007A5F1F
:1018100070726F6265007A5F6D696E00795F6D69E5
:101820006E00785F6D696E005265706F7274696EDC
:101830006720656E6473746F702073746174757360
:101840000A0050574D3A2020253464005A5F4D4914
:101850004E5F50524F42455F50494E005A325F53DF
:101860005445505F50494E005A325F454E41424CFC
:10187000455F50494E005A325F4449525F50494ECD
:10188000005A5F53544F505F50494E005A5F5354B3
:1018900045505F50494E005A5F4D494E5F50494E8A
:1018A000005A5F454E41424C455F50494E005A5FD9
:1018B0004449525F50494E00595F53544F505F5056
:1018C000494E00595F535445505F50494E00595F8F
:1018D0004D494E5F50494E00595F454E41424C457F
:1018E0005F50494E00595F4449525F50494E00587D
:1018F0005F53544F505F50494E00585F535445500A
:101900005F50494E00585F4D494E5F50494E005858
:101910005F454E41424C455F50494E00585F444937
:10192000525F50494E00534552564F335F50494E17
:1019300000534552564F325F50494E005345525660
:101940004F315F50494E00534552564F305F50491A
:101950004E00534453530052414D50535F44395F3E
:1019600050494E0052414D50535F44385F50494EEC
:101970000052414D50535F4431305F50494E004D4D
:101980004F534645545F445F50494E004D415836D1
:101990003637355F53535F50494E004C45445F50D6
:1019A000494E004845415445525F4245445F5049C5
:1019B0004E004845415445525F305F50494E004605
:1019C000414E315F50494E0045315F535445505FA1
:1019D00050494E0045315F454E41424C455F5049AC
:1019E0004E0045315F4449525F50494E0045315FDA
:1019F00043535F50494E0045305F535445505F504C
:101A0000494E0045305F454E41424C455F50494E7E
:101A10000045305F4449525F50494E0045305F41B8
:101A200055544F5F46414E5F50494E00455F4D55FE
:101A300058325F50494E00455F4D5558315F50490F
:101A40004E00455F4D5558305F50494E004156524B
:101A50005F53535F50494E004156525F53434B5FB3
:101A600050494E004156525F4D4F53495F50494EC9
:101A7000004156525F4D49534F5F50494E00544507
:101A80004D505F4245445F50494E0054454D505FB4
:101A9000315F50494E0054454D505F305F50494EC4
:101AA0000046494C57494454485F50494E005458E9
:101AB000443000525844300020202020434F4D0035
:101AC0002020206E6F6E2D7374616E6461726420CD
:101AD00050574D206D6F646500202020636F6D703E
:101AE00061726520696E7465727275707420656EBE
:101AF00061626C6564002020206F766572666C6F91
:101B00007720696E7465727275707420656E61629B
:101B10006C6564002020202054494D534B00423A0C
:101B20002000413A2000202020205443435200202E
:101B300020202043533A20002020202057474D3AB0
:101B400020002020202054494D4552002069732058
:101B5000616C736F207469656420746F20746869A8
:101B6000732070696E0054494D45523143000A207C
:101B70002E002020506F72743A2000202020416EE9
:101B8000616C6F6720696E203D2025356C64003CD8
:101B9000756E757365642F756E6B6E6F776E3E0034
:101BA0004F7574707574203D2000496E70757420F7
:101BB000203D200070726F7465637465642000209E
:101BC0002841253264292020002533642000446FF9
:101BD0006E652E0A0050756C73696E6720202000B8
:101BE000556E746F7563686564200066616C73651B
:101BF000004641494C3A204E6F2074726967676510
:101C0000722064657465637465640A004641494CDA
:101C10003A204E6F6973652064657465637465640A
:101C2000202D20706C656173652072652D72756E54
:101C300020746573740A003D20424C546F756368CC
:101C4000207072652056332E3120286F7220636F0A
:101C50006D70617469626C6529003D205A2053657E
:101C600072766F2050726F6265003D20424C546F57
:101C70007563682056332E310020282B2F2D2034F9
:101C80006D73293A20003A2033306D73206F722033
:101C90006D6F72650A002E2050756C736520776930
:101CA000647468002A2A20506C6561736520747220
:101CB00069676765722070726F6265207769746802
:101CC000696E20333020736563202A2A0A0046415A
:101CD000494C3A20424C544F55434820656E61624E
:101CE0006C6564202D2053657420757020746869BC
:101CF0007320646576696365206173206120536594
:101D000072766F2050726F6265207769746820491F
:101D10004E56455254494E472073657420746F20C7
:101D20002774727565272E0A0020204445504C4FB9
:101D30005945442073746174653A204C4F572028EC
:101D40006C6F6769632030290020204445504C4F58
:101D50005945442073746174653A204849474820C6
:101D6000286C6F676963203129003D204D656368E9
:101D7000616E6963616C2053776974636820646580
:101D80007465637465640A005741524E494E473A80
:101D900020494E56455254494E4720736574746924
:101DA0006E672070726F6261626C79206261636B32
:101DB00077617264732E0A002E204465706C6F790F
:101DC00020262073746F7720342074696D65730A40
:101DD000003D20424C546F75636820436C617373FF
:101DE000696320312E322C20312E332C20536D612B
:101DF000727420312E302C20322E302C20322E3294
:101E00002C20332E302C20332E31206465746563F2
:101E10007465642E0A002E20436865636B20666F2C
:101E20007220424C544F5543480A002E205A5F4DB1
:101E3000494E5F50524F42455F454E4453544F50B8
:101E40005F494E56455254494E473A20002E205085
:101E5000726F6265205A5F4D494E5F50524F424546
:101E60005F50494E3A20002C2073746F7720616ECA
:101E7000676C653A202020002C206465706C6F79B7
:101E800020616E676C653A2000536572766F207032
:101E9000726F626520746573740A2E207573696EA3
:101EA0006720696E6465783A202000576174636822
:101EB000696E672070696E730A00656E6473746F73
:101EC00070206D6F6E69746F7220004700480000CB
:101ED0000088008A008C00B300B400000098009ACB
:101EE000009C00A800AA00AC0028012A012C014493
:101EF0000045006E00800081006F00B000B10070EE
:101F000000900091007100A000A10072002001214A
:101F1000017300B31A0001AE1A0101A11A3B009629
:101F20001A43008B1A45007E1A4400711A3201646C
:101F30001A3301581A34014D1A3501421A28013753
:101F40001A2A012C1A2C011C1A0701111A1C010350
:101F50001A1801F7191A01ED192C01E2192201D4FE
:101F6000191E01C8192401241A0901BF190701B259
:101F7000190A01A31908019B190D018C1942017559
:101F80001A32017F190701681A330171190A0164B5
:101F9000190801571909015C1A3401521935014712
:101FA000190B013C19060131190501261904019488
:101FB0001935011C1937010F19260105190301FAFA
:101FC000183601EF180301E5183D01D8183801CE85
:101FD000180E01C3183C01B8180E01AE183001A14B
:101FE000183E01971812018C182E018118120176E3
:101FF00018220168181E015C1824014C1813016591
:1020000063686F3A004572726F723A0042696C6998
:102010006E656172204C6576656C696E67204772EB
:1020200069643A0A0053544F505045442E200050E2
:1020300072696E7465722073746F70706564206469
:10204000756520746F206572726F72732E204669F9
:102050007820746865206572726F7220616E6420EA
:10206000757365204D39393920746F20726573742A
:102070006172742E202854656D706572617475727A
:10208000652069732072657365742E205365742012
:10209000697420616674657220726573746172740C
:1020A000696E67290A0021212053544F5020636133
:1020B0006C6C65642062656361757365206F662072
:1020C000424C546F756368206572726F72202D20C8
:1020D000726573746172742077697468204D393940
:1020E000390A0053656E64204D31303820746F20FA
:1020F000726573756D650A0053656E64204D3130ED
:102100003820746F2068656174206E6F7A7A6C6510
:102110000A00486F74656E6420746F6F20636F6C83
:10212000640A003F2856296572626F7365206C65EA
:1021300076656C20696D706C61757369626C652081
:1021400028302D34292E0A0046696E69736865644B
:10215000210A003A207A3A2000206F662000476F5B
:10216000696E6720746F3A20580043570A00206454
:1021700069723A0020616E676C653A00537461724F
:1021800074207261646975733A00506F7369746981
:102190006F6E696E67207468652070726F62652E5D
:1021A0002E2E0A003F4C656773206F66206D6F7698
:1021B000656D656E7420696D706C61757369626CB4
:1021C000652028302D3135292E0A003F2028582C33
:1021D0005929206F7574206F6620626F756E647365
:1021E0002E0A003F53616D706C652073697A65201B
:1021F0006E6F7420706C61757369626C6520283431
:102200002D3530292E0A004D3438205A2D50726F4A
:102210006265205265706561746162696C69747988
:1022200020546573740A005374616E646172642093
:10223000446576696174696F6E3A20002052616E60
:1022400067653A2000205369676D613A20004D654B
:10225000616E3A2000202D20496E76616C69642001
:102260006578747275646572206E756D6265722032
:10227000210A00544845524D414C2052554E415779
:10228000415900546865726D616C2052756E6177BA
:102290006179004572723A204D415854454D5000C5
:1022A0004D415854454D5020747269676765726599
:1022B00064004572723A204D494E54454D50004DD0
:1022C000494E54454D502074726967676572656464
:1022D000000A0A0020205A5F4D494E5F50524F427B
:1022E000453A0020205A5F4D494E3A002020595F60
:1022F0004D494E3A002020585F4D494E3A00202F5C
:10230000002042403A0020403A00204D3932205807
:102310000020496E76616C6964206578747275641A
:10232000657220004361703A007D007D7D2C776FDF
:10233000726B3A7B6D696E3A7B783A007D2C6D61E9
:10234000783A7B783A002C7A3A002C793A0061721C
:1023500065613A7B66756C6C3A7B6D696E3A7B7829
:102360003A004348414D4245525F54454D50455215
:1023700041545552450042414259535445505049E9
:102380004E470041524353004D4F54494F4E5F4D0D
:102390004F44455300544845524D414C5F50524FB5
:1023A00054454354494F4E004C4F4E475F46494CAD
:1023B000454E414D45004155544F5245504F5254A2
:1023C0005F53445F53544154555300534443415267
:1023D000440050524F4D50545F535550504F52543B
:1023E00000454D455247454E43595F504152534574
:1023F0005200434153455F4C494748545F4252495C
:102400004748544E45535300544F47474C455F4C43
:10241000494748545300534F4654574152455F5023
:102420004F574552004255494C445F504552434531
:102430004E54004C4556454C494E475F444154412B
:10244000005A5F50524F42450052554E4F5554006E
:102450004155544F4C4556454C005052494E545FDF
:102460004A4F420050524F47524553530041555432
:102470004F5245504F52545F54454D5000564F4CAB
:10248000554D455452494300454550524F4D004229
:10249000494E4152595F46494C455F5452414E5353
:1024A0004645520053455249414C5F584F4E5F5884
:1024B0004F4646004649524D574152455F4E414DA9
:1024C000453A4D61726C696E20322E302E372E32B5
:1024D00020284E6F7620323720323032302031378C
:1024E0003A35363A34332920534F555243455F43EA
:1024F0004F44455F55524C3A68747470733A2F2FAD
:102500006769746875622E636F6D2F4D61726C69B7
:102510006E4669726D776172652F4D61726C696E7E
:102520002050524F544F434F4C5F56455253494FE2
:102530004E3A312E30204D414348494E455F545963
:1025400050453A3344205072696E74657220455884
:102550005452554445525F434F554E543A312055DD
:102560005549443A34333466326238362D39313580
:10257000352D343336322D616463322D3637623275
:1025800064613664313366640A0047322F47332072
:1025900062616420706172616D65746572730A00B6
:1025A0002062797465733B2063726320004E6F2054
:1025B000454550524F4D2E0A00454550524F4D2033
:1025C0006461746173697A65206572726F722E0A34
:1025D000002073746F7265642073657474696E672C
:1025E00073207265747269657665642028002028FE
:1025F00063616C63756C6174656429210A00202134
:102600003D2000454550524F4D20435243206D69B7
:10261000736D61746368202D202873746F72656414
:102620002920002053697A653A2000496E64657854
:102630003A200044494749504F5453204C6F61643D
:1026400065640A0044494749504F5453204C6F6118
:1026500064696E670A00204D61726C696E3D563880
:1026600032290A00454550524F4D207665727369F4
:102670006F6E206D69736D617463682028454550E5
:10268000524F4D3D0048617264636F64656420443D
:10269000656661756C742053657474696E67732028
:1026A0004C6F616465640A003B200020204D363089
:1026B00033200020550046696C616D656E74206C96
:1026C0006F61642F756E6C6F6164206C656E6774EA
:1026D00068733A0020204D3835312058005A2D506B
:1026E000726F6265204F66667365740020204D33FB
:1026F000303420500020204D3330312050005049DC
:10270000442073657474696E67733A002020473201
:1027100039205720490020204D34323020530041C9
:1027200075746F20426564204C6576656C696E67D0
:102730003A0020204D323036205800486F6D652019
:102740006F66667365743A00204A0020204D32306F
:1027500035204200416476616E6365643A20423CF4
:102760006D696E5F7365676D656E745F74696D65C5
:102770005F75733E20533C6D696E5F66656564727C
:102780006174653E20543C6D696E5F74726176655C
:102790006C5F66656564726174653E204A3C6A756B
:1027A0006E635F6465763E0020204D3230342050E9
:1027B00000416363656C65726174696F6E20287592
:1027C0006E6974732F7332293A20503C7072696EAF
:1027D000745F616363656C3E20523C726574726124
:1027E00063745F616363656C3E20543C7472617610
:1027F000656C5F616363656C3E0020204D32303153
:102800002058004D6178696D756D20416363656C7A
:1028100065726174696F6E2028756E6974732F73A9
:1028200032293A0020450020204D32303320580014
:102830004D6178696D756D2066656564726174655A
:10284000732028756E6974732F73293A0053746569
:1028500070732070657220756E69743A00204400B0
:1028600020204D3230302053002044697361626C67
:1028700065640A0046696C616D656E7420736574E9
:1028800074696E67733A0020286D6D290020204717
:102890003231202020203B20556E69747320696EF0
:1028A000206D6D000000964300009643000020421A
:1028B000000020423D0AA14233B3A1429A99C84385
:1028C0000000E343B80B0000B80B000064000000F8
:1028D0001027000020436F756E7420583A0042653F
:1028E0006400453100626564002C2073797374655F
:1028F0006D2073746F707065642120486561746524
:10290000725F49443A200048656174696E672046E9
:1029100061696C65640048656174696E6720666111
:10292000696C6564004D3131322053687574646F91
:10293000776E0000220A00556E6B6E6F776E206313
:102940006F6D6D616E643A20220020453A00205A76
:102950003A0020593A00205A3A200020593A2000E3
:1029600042656420583A200050726F62696E672099
:102970004661696C65640A005AB911241FBECFEF25
:10298000D1E2DEBFCDBF00E00CBF13E0A0E0B2E0BB
:10299000E0ECFCE801E00BBF02C007900D92A4340C
:1029A000B107D9F72FE0A4E4B3E001C01D92A9322A
:1029B000B207E1F714E1CDEBD4E100E006C02197C6
:1029C0000109802FFE010E9406C3CC3BD10780E0A5
:1029D0000807A9F70E94C5B20C945EC60C940000CB
:1029E0002F923F924F925F926F927F928F929F921F
:1029F000AF92BF92CF92DF92EF92FF920F931F930D
:102A0000CF93DF93CDB7DEB7EF970FB6F894DEBF65
:102A10000FBECDBF20912C042DAB91E090932C04E0
:102A200080912B048D3409F410C3843511F40C9477
:102A30003124873411F00C945624209129043091CC
:102A40002A042B31310509F484C09CF4243031056B
:102A500034F422303105CCF537FF2BC0F2C22430DC
:102A6000310509F440C02531310511F40C94582486
:102A7000E8C22A32310509F4BDC15CF42D313105BB
:102A800009F497C00CF485C02E31310509F4B0C0AB
:102A9000D8C22B35310509F42AC12C35310509F48A
:102AA0002BC12A35310509F0CCC2109228040C94B0
:102AB000582480912704813011F00C9458240E94EE
:102AC00082970E944A690C9458248091270481308F
:102AD00011F00C9458242230310509F080E00E9456
:102AE00033980C94582480E50E943D5E882329F099
:102AF0000E94C58A6B017C0103C0C12CD12C7601D8
:102B000083E50E943D5E882361F00E94DC5B20E04B
:102B100030E04AE754E40E94E2BE0E9494C46B0194
:102B20007C010E94EF570E94623FC60ED71EE81E2E
:102B3000F91E0E94623FDC01CB018C199D09AE0990
:102B4000BF09B7FD02C00C94582480E00E94AD2E4E
:102B5000F0CF87E00E94576881110C9458248CE0D4
:102B6000E3E6F2E0DE01119601900D928A95E1F71D
:102B700080E50E943D5E882321F00E94A45B862FA1
:102B800001C080E0BE016F5F7F4F0E94CC6F0C944C
:102B90005824809126048770873011F00C946B24A0
:102BA00060E08FE40E94655E81110C9458240C94BF
:102BB0006B240E94623F60932204709323048093ED
:102BC00024049093250487E00E94576881110C9497
:102BD000582480914A0E882311F40C94682660E0F2
:102BE0008FE40E94655E81110C9458240C94682631
:102BF0002091170F3091180F4091190F50911A0F13
:102C000060915B0E70915C0E80915D0E90915E0EF6
:102C10000E9421C3AB01BC0188E50E9478706983E2
:102C20007A838B839C8320911B0F30911C0F4091E2
:102C30001D0F50911E0F60915F0E7091600E80917C
:102C4000610E9091620E0E9421C3AB01BC0189E527
:102C50000E9478706D837E838F839887BE016B5F3F
:102C60007F4FCE0101960E94F559882311F40C94F0
:102C7000582480E00E94EA800E94226C61E085E492
:102C80000E94655E182F21E0482FBE016B5F7F4FC9
:102C9000CE0101960E94E5B06B017C019B01AC0165
:102CA0000E9413C6811119C049815A816B817C81B0
:102CB00080E699E20E94C0844D815E816F817885B3
:102CC0008BE599E20E94C084B701A60186E599E2EE
:102CD0000E94C0848AE00E94812D0E94096C1130FC
:102CE00011F40E94DB590E94FE6D0C9458248FE071
:102CF000809328040C9458245BE7252E52E0352E4F
:102D000064E0E62E64E0F62EABE5BEE0BFA3AEA322
:102D10007FE4C72E7EE0D72E00E010E0F101819124
:102D20001F010E943D5E882309F44AC00E94DC5BBB
:102D30002B013C01133049F0D6012D913D914D916D
:102D40005C910E9420C32B013C01EEA1FFA12081D8
:102D5000318142815381C301B2010E9420C34B01E2
:102D60005C012DEB37E346E855EB0E9481C587FDFA
:102D70000AC02DEB37E346E855E3C501B4010E94D4
:102D80007CBE1816ECF4133051F44092670E50924A
:102D9000680E6092690E70926A0E01E011C0A50182
:102DA0009401D7016D917D918D919C910E9421C3D9
:102DB000F7016083718382839383812F0E9424684B
:102DC0001F5FF4E0EF0EF11C2EA13FA12C5F3F4FDF
:102DD0003FA32EA334E0C30ED11C143009F09ECFC4
:102DE000002321F087E69EE00E9400580E94FE6DBD
:102DF0000C94582480912704813011F00C945824AD
:102E000089E40E943D5EE82E882321F00E94D85B71
:102E1000082F01C000E08AE40E943D5EF82E88235E
:102E200021F00E94D85B182F01C010E0EE2011F0B5
:102E3000053020F4FF2041F0153030F08DE095E0B2
:102E40000E941D840C94582480E1EBE5FEE0A1E192
:102E5000B4E001900D928A95E1F7EE2019F1602F10
:102E6000000F770B880B990B0E9483BE2091F4030F
:102E70003091F5034091F6035091F7030E94E2BEB2
:102E80002091FC033091FD034091FE035091FF031C
:102E90000E9421C360931104709312048093130461
:102EA00090931404FF2019F1612F110F770B880BF9
:102EB000990B0E9483BE2091F8033091F903409151
:102EC000FA035091FB030E94E2BE2091000430916E
:102ED000010440910204509103040E9421C36093B5
:102EE000150470931604809317049093180460E0FF
:102EF00080E50E94655E8823C1F1EE20D1F020912B
:102F0000170F3091180F4091190F50911A0F6091BF
:102F100011047091120480911304909114040E9482
:102F200020C3609311047093120480931304909350
:102F30001404FF20D1F020911B0F30911C0F409101
:102F40001D0F50911E0F6091150470911604809111
:102F50001704909118040E9420C360931504709385
:102F60001604809317049093180440E050E0BA01CF
:102F700086E40E9478706B017C0120E030E0A901BA
:102F80000E9481C518165CF420E030E040E752E46E
:102F9000C701B6010E941BC46B017C0103C0C12C98
:102FA000D12C760180905B0290905C02A0905D0233
:102FB000B0905E0220E030E0A901C701B6010E9496
:102FC0007CBE882341F0C0925B02D0925C02E0920A
:102FD0005D02F0925E02009108021091090284E6FF
:102FE00090E09093090280930802C0903202D09042
:102FF0003302E0903402F090350280E090E0A0E8E7
:10300000BFE38093320290933302A0933402B093D3
:1030100035020E944A6980925B0290925C02A09203
:103020005D02B0925E021093090200930802C09202
:103030003202D0923302E0923402F09235020C94C4
:1030400058240E94D7B00C94582400912904109160
:103050002A040D37110509F4E5C30CF0A5C00836A4
:10306000110509F46AC20CF059C00B34110509F4BA
:1030700058C20CF50231110509F488C474F417FF25
:1030800002C00C942E24023011050CF454C10131FD
:10309000110509F483C10C942E240B32110509F497
:1030A00038C20033110509F438C20F31110511F08F
:1030B0000C942E2487C10235110509F459C4F4F487
:1030C0000D34110509F435C20CF42FC20135110578
:1030D00011F00C942E240E9427940E94B76F0E9436
:1030E0005F591092E60680E00E94D2B668EE73E067
:1030F00080E090E00E9453830C945824043511051D
:1031000009F444C40CF43BC40535110509F474C436
:103110000C35110509F493C40C942E2400371105C5
:1031200011F40C945824A4F40C36110511F40C94E9
:1031300058243CF40A36110509F45AC20CF444C26E
:103140007EC20E36110509F487C20CF416C297C26E
:103150000537110511F40C9458247CF4023711053D
:1031600009F4F7C40CF4D6C20337110511F00C941E
:103170002E240E94D9950C9458240737110509F480
:103180002BC50CF4EDC40837110509F428C509371F
:10319000110511F00C942E241092210410921004A9
:1031A0000E94206F0C9458240F3241E0140711F450
:1031B0000C946E220CF055C00D3C110509F4DAC5D3
:1031C000FCF4083C110509F412C574F40B3911051F
:1031D00009F400C30E3B110509F4E7C20C381105D0
:1031E00011F00C942E24C0C20B3C110509F46DC5DE
:1031F0000CF08CC5093C110509F440C50C942E2433
:103200000D3D110509F4CEC69CF4033D110509F4EA
:10321000DCC50C3D110509F49EC60E3C110511F0EC
:103220000C942E2478EBE72E73E0F72E10E0BCC54B
:10323000023281E0180709F4A2C734F408311140C2
:1032400009F406C70C942E240D32B1E01B0711F4CB
:103250000C9437210E32114011F40C942A220C9454
:103260002E24043FF1E01F0711F40C94592394F528
:10327000023931E0130711F40C947E2284F40039F2
:1032800051E0150711F40C94712214F00C9474227F
:103290000033114011F40C94B7210C942E24043AFD
:1032A000A1E01A0711F40C9485223CF40A3911406C
:1032B00011F40C9458240C942E24053AF1E01F07C5
:1032C00011F40C9488220C3A114011F40C94FC2255
:1032D0000C942E24083F31E0130711F40C9468235A
:1032E0006CF4063F51E0150711F40C945C2314F0C4
:1032F0000C945F230E9421A70C9458240B3592E074
:10330000190711F40C9478234CF40835124011F08D
:103310000C942E240E94809D0C9458240335E3E0E5
:103320001E0711F40C94F123073E134011F40C9482
:1033300022240C942E2480E50E943D5E882329F0EF
:103340000E94C58A6B017C0103C0C12CD12C76017F
:1033500083E50E943D5E882361F00E94DC5B20E0F3
:1033600030E04AE754E40E94E2BE0E9494C46B013C
:103370007C010E94EF570091F2031091F3030115B5
:10338000110529F00E94BC85C8010E948C2E40E0E6
:10339000C701B6010E9498320C9458248091EE0324
:1033A00084FF02C00C946B268091F00387FF02C05B
:1033B0000C946B268091F103837011F00C946B26B2
:1033C0000C9488260E942F6F7B018C0120E831E548
:1033D00041E050E00E9483C2C9016DE671E00E94A5
:1033E000F2C24B015C01C801B70120E13EE040E0C0
:1033F00050E00E9483C2CA01B90128E130E040E0F8
:1034000050E00E9483C2762E672EC62ED72E4CE344
:10341000242E312C412C512CC801B701A20191015D
:103420000E9483C2F62EE72ECA01B901A2019101C2
:103430000E9483C2CB018E010F5F1F4F8114910444
:1034400099F0EF92FF927F936F936F927F92BF926A
:10345000AF929F928F928CEE94E09F938F931F93E5
:103460000F930E944DBE13C0A114B104B1F0EF92AE
:10347000FF927F936F936F927F92BF92AF9280EF94
:1034800094E09F938F931F930F930E944DBE0FB6AE
:10349000F894DEBF0FBECDBF30C0CD2879F0EF92DB
:1034A000FF927F936F936F927F9284EF94E09F934C
:1034B0008F931F930F930E944DBEE9CF892B69F024
:1034C000EF92FF927F936F9388EF94E09F938F9397
:1034D0001F930F930E944DBEDACFEF92FF928CEFB5
:1034E00094E09F938F931F930F930E944DBE0F9074
:1034F0000F900F900F900F900F900E94BC85B80115
:1035000080E095E00E94DE848AE00E94812D0C9488
:1035100058240E94E77B0C9458240E94D58A0C946E
:1035200058240E947E6F0C9458240E94A26F0C9421
:1035300058240E94B76F0C94582480916A0C83FF22
:1035400002C00C9458240E94579D87FF02C00C941F
:10355000582483E50E943D5E882359F00E94DC5B7D
:103560000E948DC4CB010E94B83F61E080E00E94C0
:1035700044B90E94E8B60C94582480916A0C83FFE9
:1035800002C00C9458240E94579D082F87FF02C048
:103590000C94582483E50E943D5EF82E81110C9412
:1035A000922682E50E943D5E81110C94922610E0E5
:1035B0000E94E8B6112311F40C9458246F2D802F2B
:1035C0000E94618F0C9458240E94579D182F87FDEC
:1035D0000AC089E793E00E941D84812F0E94EF8E2C
:1035E0008AE00E94812DBDA9B0932C040C942D2A51
:1035F00060E080E50E94595E81110C94582481E4BA
:103600000E94135C882321F06091E606062F02C019
:103610000FEF10E083E50E943D5E882349F00E9491
:10362000A45B8B016F3F710519F010F00FEF10E0F4
:103630000093E60680E00E94D2B60C94582460E025
:1036400080E50E94595E81110C9458241092E60680
:103650000E94D2B60C9458248EE40E943D5E8823CA
:1036600011F40C9458240E94A45B6093EA037093B5
:10367000EB038093EC039093ED030C94582483E5C3
:103680000E94135C882331F060E083E50E94595E5C
:1036900080936A0C0E94BC8585EE94E00E941D8494
:1036A00080916A0C882369F134E4E32E35E0F32E2F
:1036B00000E010E020E080916A0C90E0A0E0B0E033
:1036C000002E04C0B695A795979587950A94D2F7D2
:1036D00080FF0EC0DD24D394D20E222319F08CE299
:1036E0000E94812DF701859194910E941D842D2DBA
:1036F0000F5F1F4FE2E0EE0EF11C05301105D9F609
:1037000004C081EE94E00E941D848AE00E94812D15
:103710000C94582483E50E943D5E882381F00E942A
:10372000B45B282F30E02D33310524F48093070259
:103730000C9458248CE3809307020C9458240E9424
:10374000BC85C0900702D12CE12CF12C8AED94E0CD
:103750000E941D844AE0C701B6010E94882D8AE0BC
:103760000E94812D0C94582480916A0C83FF02C022
:103770000C94582483E50E943D5E882311F40C9438
:1037800058240E94DC5B0E948DC46C3871050CF4D7
:103790008B011093DC030093DB030E94EF9361E045
:1037A00080E00E9444B90C94582480916A0C83FFF5
:1037B00002C00C94582483E50E943D5E8EAB8111BB
:1037C0000C94A02682E50E943D5E81110C94A026F7
:1037D0000C94582483E50E943D5E882311F40C94D8
:1037E00058240E94B45B182F90E0CD970CF01CE396
:1037F0001093D2030E94623F6B017C01212F30E0C5
:10380000A8EEB3E00E94D7C2C60ED71EE81EF91E6E
:10381000C092CE03D092CF03E092D003F092D103B6
:103820000C9458248CE40E94135C882381F00E943D
:10383000DC5B6B017C0120E030E0A9010E9481C5C6
:1038400087FF0AC0F7FAF094F7F8F09405C0C12C8E
:10385000D12CE12C00E4F02EF7FAF094F7F8F09474
:10386000CAA2DBA2ECA2FDA28CE0EFE6F2E0DE0150
:10387000119601900D928A95E1F788E50E943D5ED0
:103880008823A1F040E050E0BA0188E50E947870FA
:1038900020914F0E3091500E4091510E5091520E8A
:1038A0000E9420C369837A838B839C8389E50E946D
:1038B0003D5E8823A1F040E050E0BA0189E50E9416
:1038C000787020914F0E3091500E4091510E5091D2
:1038D000520E0E9420C36D837E838F8398878AE572
:1038E0000E943D5E882351F040E050E0BA018AE535
:1038F0000E94787069877A878B879C871E8A1F8AC7
:10390000188E198E20E0AE014A5E5F4FBE016F5FD8
:103910007F4FCE0182960E944686882309F4C8C74D
:1039200060E080E00E9449878AA19BA1ACA1BDA173
:10393000B0588E8B9F8BA88FB98F1A8E1B8E1C8EC2
:103940001D8E1E8E1F8E18A219A28091CD03882372
:1039500009F4AEC700E010E020E0AE014A5E5F4F20
:10396000BE01665E7F4FCE014E960E944663A0C7A1
:10397000809128048F7D80618093280499C780916D
:1039800028048F7E80628093280492C783E50E947A
:103990003D5E8823E9F00E94623F609322047093A9
:1039A000230480932404909325040E94DC5B20E090
:1039B00030E04AE754E40E94E2BE0E9494C460935F
:1039C000020270930302809304029093050270C771
:1039D0008091EE0384FF02C00C9409288091F003CB
:1039E00087FF02C00C9409288091F103837011F0C5
:1039F0000C9409280C943B2883E50E94135C8823CF
:103A000009F456C70E94623F609322047093230416
:103A100080932404909325040E94DC5B20E030E036
:103A20004AE754E40E94E2BE0E9494C46093C90332
:103A30007093CA038093CB039093CC0339C70E9441
:103A4000579D87FD35C79091EE0394FD04C090917A
:103A5000F00397FF0AC0BBE7CB2EB2E0DB2E1BE6DC
:103A6000E12E1CE0F12E10E009C09091F10393705B
:103A700091F7682F81E00E94849E1AC7D6018D912C
:103A80006D010E943D5E882309F459C0133009F08E
:103A90004FC00E94DC5B4B015C0120E030E040EA5B
:103AA00051E40E947CBE87FF3AC0A5019401609159
:103AB0008B0C70918C0C80918D0C90918E0C0E94CF
:103AC0001BC42B013C019B01AC0160919B0C7091CC
:103AD0009C0C80919D0C90919E0C0E94E2BE609384
:103AE0009B0C70939C0C80939D0C90939E0C60910A
:103AF000DE067091DF068091E0069091E1060E945B
:103B000081BEA30192010E94E2BE0E9494C4609310
:103B1000DE067093DF068093E0069093E1068092C4
:103B20008B0C90928C0CA0928D0CB0928E0C07C0D6
:103B30000E94DC5BF701648B758B868B978B1F5F14
:103B4000F4E0EF0EF11C143009F098CF0E940957F1
:103B5000AFC60E94F5AF8FEF9EE00E94F7AEA8C6F9
:103B60000091F2031091F30394E0F12C40E09150A6
:103B700031F1D8018C91282F2B7F213429F4119613
:103B80002C912133E1F408C08035C9F4F80181811A
:103B900080538A3048F013C0813421F0853421F4F9
:103BA00041E002C0FF24F39498012E5F3F4F89014A
:103BB0002F5F3F4FD8018C918032C9F3D8CF41118C
:103BC0000E94BC85FF2021F086ED94E00E941D84B8
:103BD000C8010E948C2E6CC60E94C36E69C681E02B
:103BE00080932104809310040E94206F61C60E947C
:103BF000579D182F87FD5CC60091C80384E40E947E
:103C00003D5E882311F40C943E280E94DC5B6B011E
:103C10007C0120E030E0A9010E947CBE882341F1B4
:103C2000B4E01B02F0011124EC53FC4FC082D1829E
:103C3000E282F38220E030E0A9016091C403709138
:103C4000C5038091C6039091C7030E947CBE811179
:103C50000CC080E090E0A0EEBFE38093C40390939B
:103C6000C503A093C603B093C70301E00C943E289C
:103C700080E08093C8030E94D7641AC60E94579DB3
:103C800087FD16C6FBE7EF2EF2E0FF2E0BE61CE0E9
:103C9000ABE7CA2EACE0DA2EF70181917F010E94DA
:103CA000135C882361F00E94DC5B0E9494C4D801FD
:103CB0006D937D938D939C9313970E94C2560C5FD6
:103CC0001F4FC016D10641F7F3C50E94579D87FDCF
:103CD000EFC5EBE7EE2EE2E0FE2E0BE61CE0F7016F
:103CE00081917F010E94135C882349F00E94DC5B74
:103CF000D80194966D937D938D939C9397970C5FC9
:103D00001F4FBCE00B371B0751F7D2C58091EF0363
:103D100087FF02C00C9444288091F0038E7011F04C
:103D20000C94442840919F0C5091A00C6091A10CE0
:103D30007091A20C86EC94E00E94C0844091A30C88
:103D40005091A40C6091A50C7091A60C83EC94E0AA
:103D50000E94C0844091A70C5091A80C6091A90CBE
:103D60007091AA0C80EC94E00E94C0848AE00E94CA
:103D7000812D9EC58091EE0381FF02C00C948A289C
:103D80008091EF0381FF02C00C948A288091F00398
:103D90008C7011F00C948A288BC51F5FF4E0EF0E35
:103DA000F11C133009F422C888E5810F0E94135CCE
:103DB000882399F30E94DC5BF7016083718382831F
:103DC0009383812F0E942468E8CF40904F0E50903B
:103DD000500E6090510E7090520E20910C02309156
:103DE0000D0240910E0250910F02C301B2010E94D8
:103DF00021C36EA37FA388A799A78090530E9090AC
:103E0000540EA090550EB090560E20911002309195
:103E100011024091120250911302C501B4010E9497
:103E200021C36AA77BA78CA79DA7C090570ED090EF
:103E3000580EE090590EF0905A0E209114023091D5
:103E400015024091160250911702C701B6010E9457
:103E500021C36EA77FA788AB99AB20911802309140
:103E6000190240911A0250911B02C301B2010E9433
:103E700021C32B013C0120911C0230911D02409175
:103E80001E0250911F02C501B4010E9421C34B01C3
:103E90005C01209120023091210240912202509138
:103EA0002302C701B6010E9421C36B017C010E945D
:103EB000BC8581E994E00E941D8483E50E94135C27
:103EC000882321F00E94C85B80930A0280910A0235
:103ED000882319F08EE593E002C080EB94E20E9403
:103EE0001D8489E894E00E941D844EA15FA168A50D
:103EF00079A580E098E20E94C0844AA55BA56CA5E4
:103F00007DA58EE794E00E94C0844EA55FA568A9B8
:103F100079A987E694E00E94C08486E79EE10E942A
:103F20001D8481E894E00E941D84B301A20180E019
:103F300098E20E94C084B501A4018EE794E00E943B
:103F4000C084B701A60187E694E00E94C0848AE09D
:103F50000E94812DADC483E50E943D5E882331F02F
:103F60000E94D85B90930902809308028091EE032F
:103F70009091EF03A091F003B091F103892B8A2B6C
:103F80008B2B09F095C460910802709109028AE7B1
:103F900094E00E94D18485E20E94812D8AE00E94F3
:103FA000812D86C40E94579DF82E87FD81C483E52C
:103FB0000E943D5E0F2D0F2C000C110B882369F120
:103FC0000E94D85BF801EE0FFF1FE050FE4F918377
:103FD0008083000F111F000F111F98012E5C3D4FB1
:103FE0007901BC01990F880B990B0E9483BE2AE0CE
:103FF00037ED43E25CE30E94E2BEF801EC54FC4F73
:1040000020813181428153810E94E2BED7016D93AC
:104010007D938D939C9313974BC40E94BC8585E43C
:104020000E94812D80E38F0D0E94812D000F111FB2
:10403000F801E050FE4F6081718182E794E00E94B8
:10404000D18485E20E94812D8AE00E94812D30C4B6
:1040500080E50E94135C882309F42AC40E94D85B7F
:104060008C01892B09F07FC083E50E94135C8823B3
:1040700089F00E94D85B8F3FBFEF9B0729F483EE46
:104080009EE00E94772B14C4BC0183EE9EE00E9448
:10409000372C0EC40E94BC8560E070E08AE694E094
:1040A0000E94D1848091E50E28E532E06901C81AAA
:1040B000D10887FDD394CC0CDD1CCC0CDD1C0D2C61
:1040C000000CEE08FF088091E40E28E830E049017A
:1040D000881A910887FD9394880C991C880C991C68
:1040E000092C000CAA08BB088091E30E8F3FC1F099
:1040F00090E0FC01EE0FFF1F8E0F9F1FFC01E656A4
:10410000F14F2181328183E0220F331F8A95E1F73D
:1041100094E0369527959A95E1F72E5F3F4F02C0C0
:1041200020E030E02F5F3F4FC901330FAA0BBB0BDC
:104130009C01AD01281939094A095B09A4EBB0E0DB
:104140000E94C4C2A7019601281939094A095B09CE
:104150000E94A5C2B90183E89CE10E94D1848AE053
:104160000E94812DA5C30E94F184B8018BE694E0E2
:104170000E94D18487E195E00E941D8499C38AE55D
:104180000E943D5E811106C083E50E943D5E88234A
:1041900009F44FC00E94DC5B20E030E040E050ECCE
:1041A0000E947CBE87FF02C00C94EA280E94DC5B60
:1041B00020E030E040E050E40E9481C5181614F47D
:1041C0000C94E3280E94DC5B6B017C0184E00E947C
:1041D0004468811122C02091870C3091880C409155
:1041E000890C50918A0CC701B6010E94E2BE0E9460
:1041F0008DC420912D0430912E04260F371F30934B
:104200002E0420932D042091B2033091B303620F4A
:10421000731F7093B3036093B20380E50E94135C35
:10422000882311F40C94F1280E94C85B81110C942E
:10423000F1288091F00387FF02C00C941829809127
:10424000F103837011F00C9418290E94BC854091F1
:104250001F0F5091200F6091210F7091220F8BE55D
:1042600094E00E94C0848AE00E94812D21C360E016
:1042700085E40E94595E811173C080E50E94135C41
:10428000882351F00E94DC5B60937C0E70937D0E5E
:1042900080937E0E90937F0E89E40E94135C8823A6
:1042A00081F00E94DC5B2CEA35EC47E25EE30E9481
:1042B000E2BE6093800E7093810E8093820E909385
:1042C000830E84E40E94135C882381F00E94DC5BEF
:1042D0002CEA35EC47E25EE30E941BC46093840E37
:1042E0007093850E8093860E9093870E0E94BC85F6
:1042F00040917C0E50917D0E60917E0E70917F0EEC
:1043000085E494E00E94C0842CEA35EC47E25EE349
:104310006091800E7091810E8091820E9091830E3B
:104320000E941BC4AB01BC0181E494E00E94C084E4
:104330002CEA35EC47E25EE36091840E7091850EC5
:104340008091860E9091870E0E94E2BEAB01BC0167
:104350008DE394E00E94C0848AE00E94812DA8C26F
:104360000E94F18489E494E00E941D84A1C280E54A
:104370000E94135C882351F00E94DC5B6093DE0393
:104380007093DF038093E0039093E10389E40E943C
:10439000135C882381F00E94DC5B2CEA35EC47E259
:1043A0005EE30E94E2BE6093E2037093E3038093B6
:1043B000E4039093E50384E40E94135C882381F076
:1043C0000E94DC5B2CEA35EC47E25EE30E941BC4F2
:1043D0006093E6037093E7038093E8039093E90307
:1043E0000E94BC854091DE035091DF036091E003A1
:1043F0007091E10385E494E00E94C0842CEA35ECDE
:1044000047E25EE36091E2037091E3038091E4038D
:104410009091E5030E941BC4AB01BC0181E494E0D0
:104420000E94C0842CEA35EC47E25EE36091E6032B
:104430007091E7038091E8039091E9030E94E2BE46
:10444000AB01BC018DE394E00E94C0848AE00E942D
:10445000812D2EC283E50E94135C182F882371F0F2
:104460000E94DC5B0E948DC4709337026093360219
:1044700021E0672B09F020E02093F70680E50E94F9
:10448000135C882359F02091360230913702232B98
:1044900011F00E94C85B8093F7060AC2111108C28E
:1044A0000E94BC858AE294E00E941D848091F706F8
:1044B000882319F081E098E102C081E194E00E9434
:1044C0001D84609136027091370289E194E00E9468
:1044D000D18485E194E00E941D84EAC10E948F701E
:1044E000E7C10E94EF57E4C18091160F81110C942F
:1044F000F61681E00E9406550C94F6160E94D259D9
:104500000E94DB590E94FE6DD3C10E94615CD0C144
:104510006FEF7FEF89E40E944A5E082F6FEF7FEF15
:104520008AE40E944A5E182F8AE50E943D5E81114E
:1045300008C081E50E943D5ED82E882309F47FC61D
:1045400001C0D12CC02E81E0800F863008F04DC014
:10455000912E81E0810F863008F047C00E94DC5B1D
:104560002B013C01F02E07FDF12C07FF02C0A4E057
:10457000CA2E812E17FD812C17FF02C0F4E09F2E5A
:10458000E5E03E2ECF1408F493C1E82C3F9C500187
:1045900011249E1440F10E2D10E0DD2071F0F50184
:1045A000E00FF11FEE0FFF1FEE0FFF1FE25BFC4F4E
:1045B000208131814281538103C020E030E0A90194
:1045C0000A0D1B1D000F111F000F111F025B1C4F56
:1045D000C301B2010E9421C3F80160837183828309
:1045E0009383E394D6CFF394CDCF0E94F1848DE0F2
:1045F00095E00E941D845CC187E00E94576881118C
:1046000057C108E315E02BE53EE03FA32EA3AE0122
:104610004F5F5F4F1A0146E6C42E45E0D42E71016C
:10462000C8010E94B88EAEA1BFA18D909D90AD90A3
:10463000BD90BFA3AEA3A50194010E9420C32B018E
:104640003C01F701608371838283938320E030E033
:1046500040EA51EC0E9481C587FD0AC020E030E0AD
:1046600040EA51E4C301B2010E947CBE18162CF44A
:10467000F601849118160CF4E9C5D7018D909D9030
:10468000AD90BD907D0120E030E040EA51ECC501E5
:10469000B4010E9481C587FDE4C520E030E040EA16
:1046A00051E4C501B4010E947CBE18160CF0E0C5AF
:1046B000D8C50E94B050FCC00E94DAA5F9C061E0E4
:1046C00083E50E94655E91E089270E942FA7F0C0D4
:1046D00090934D030E94BF9E10924D03882309F4CE
:1046E000E7C00E94BC8588EC93E00E941D84E0C076
:1046F0000E94579D082F87FDDBC085E50E94135C53
:104700008823B1F1E02E002E000CFF080E94DC5B34
:104710004B015C0120E030E0A9010E9481C587FFC8
:1047200004C0B7FAB094B7F8B094C70123E0880F7B
:10473000991F2A95E1F79C012B5B3C4F7901D90128
:104740008D929D92AD92BC92139720E030E048E4A8
:1047500053E4C501B4010E9481C518164CF480E0F1
:1047600090E0A8E4B3E4F70180839183A283B3834C
:104770008CE40E94135C882309F49AC0002E000C7C
:10478000110B0E94DC5B6B017C0120E030E0A90191
:104790000E9481C587FF04C0F7FAF094F7F8F094FF
:1047A00020E030E048E453E4C701B6010E9481C52F
:1047B000980193E0220F331F9A95E1F7F901EB5B23
:1047C000FC4F18162CF0C482D582E682F78270C0A6
:1047D00080E090E0A8E4B3E484839583A683B78364
:1047E00067C08091F00387FD68C58091F1038370F5
:1047F00009F063C54091170F5091180F6091190F80
:1048000070911A0F89EB93E00E94C08440911B0FB6
:1048100050911C0F60911D0F70911E0F8EE794E058
:104820000E94C08440911F0F5091200F6091210F72
:104830007091220F87E694E00E94C0848AE00E9473
:10484000812D36C081E08093270460E083E50E94DB
:10485000655E81112DC00E9438762AC00E94D7B0B3
:1048600027C00091290410912A040E94623F60939E
:10487000220470932304809324049093250400233E
:10488000B9F00E94BC8584E50E94812DB80177278C
:10489000072E000C880B990B0E94F52D80E20E94D8
:1048A000812D89E494E00E941D8402C00E94D7B04B
:1048B000E0914403F0E0E15FF04F8081882339F01C
:1048C00089E793E00E941D848AE00E94812DFDA962
:1048D000F0932C04C2C50E94EF5710920B02209156
:1048E0004A0E2AAB80E00E94EA800E94623F6093F9
:1048F00022047093230480932404909325040E943F
:10490000226C81E0809321040E94206F8AE50E943E
:10491000135CF82E882399F081E00E944468182FD8
:1049200082E00E94446801E0811101C000E01111A1
:1049300008C088E50E94135C811103C0BAC100E081
:10494000F8CF102F002309F4ACC1F112B7C111E068
:1049500001E031E03EA782E50E943D5E882319F028
:104960000E94DC5B04C060E070E080EA90E46E8F3F
:104970007F8F88A399A320E030E0A9010E947CBE2C
:10498000882369F0011106C0111104C04EA544230B
:1049900009F479C160E0CE014E960E9412500023C6
:1049A00009F4CFC0112309F4C9C010925B0E109214
:1049B0005C0E10925D0E10925E0E10925F0E1092C1
:1049C000600E1092610E1092620E0E94FC6DE6E67F
:1049D000F5E054915BAB8AE595E00E94B88E6B01DF
:1049E0007C018EE595E00E94B88E4B015C019B0135
:1049F000AC01C701B6010E9481C518162CF4A701AD
:104A00009601C501B40104C0A5019401C701B60116
:104A10000E941BC42B013C01E2E5F5E085919591D4
:104A2000A591B4918EA39FA3A8A7B9A7EEE4F5E042
:104A300025913591459154912AA73BA74CA75DA795
:104A4000BC01CD010E9481C5181634F42AA43BA4F0
:104A50000CA53DA53EA305C02EA03FA008A549A5D5
:104A60004EA3A3019201C301B2010E94E2BE20E065
:104A700030E040E85FE30E9421C30E94CFC591016E
:104A8000402F5EA10E94E2BE6A8F7B8F8C8F9D8F2C
:104A9000E7E6F5E0049120E030E040EC5FE3C5019B
:104AA000B4010E94E2BE4B015C01602F000F770B46
:104AB000880B990B0E9483BE9B01AC01C501B40118
:104AC0000E94E2BE69837A838B839C8320E030E07E
:104AD00040EC5FE3C701B6010E94E2BE6B017C01BE
:104AE0005BA9652F550F770B880B990B0E9483BE2E
:104AF0009B01AC01C701B6010E94E2BE6E8B7F8BA9
:104B0000888F998FAE01465E5F4FBE016F5F7F4F0A
:104B1000CE0146960E94026D0E9436B910925B0E3D
:104B200010925C0E10925D0E10925E0E10925F0E4F
:104B30001092600E1092610E1092620E80E00E9440
:104B4000E2B7112319F081E00E94E2B78EA5882315
:104B500009F499C080E00E94978383E00E9457681F
:104B6000811191C00E94FC6D4090630E5090640EC4
:104B70006090650E7090660E2091170F3091180F9F
:104B80004091190F50911A0F60E070E086E193E4B4
:104B90000E9420C36B017C01609311047093120486
:104BA000809313049093140420911B0F30911C0FD9
:104BB00040911D0F50911E0F60E070E086E193E47C
:104BC0000E9420C34B015C0160931504709316048E
:104BD000809317049093180420911F0F3091200F99
:104BE0004091210F5091220FC301B2010E9420C3B6
:104BF0006093190470931A0480931B0490931C040F
:104C000027E137EB41ED58EBC501B4010E9481C5A6
:104C100087FD57C023E030E046E953E4C501B40105
:104C20000E947CBE18160CF44CC027E137EB41ED16
:104C300058EBC701B6010E9481C587FD42C023E041
:104C400030E046E953E4C701B6010E947CBE181665
:104C5000C4F11E8A1F8A188E198E88E0E1E1F4E003
:104C6000DE01119601900D928A95E1F7AE014A5E40
:104C70005F4FBE016B5F7F4FCE0101960E94026DB8
:104C800082E00E94E2B70E94FC6D80911004809344
:104C900021048AA90E94EA800E94096C0E94FE6D8C
:104CA00007CE01E089E50E94135C182F081307C0A6
:104CB0004CCE0023B9F3102F00E001C0012FFEA657
:104CC0004ACE0E94BC8586E295E00E941D84DBCF1F
:104CD0000E947A5EEDCD88E50E94135C81115F9899
:104CE00089E50E94135C81118A988AE50E94135C11
:104CF000882331F0809108018170809306014798E4
:104D000085E40E94135C882309F4D2CD1298D0CD9B
:104D10005F988A9880910801817080930601479876
:104D20001298C6CD0E94DC5B0E948DC4CB010E940C
:104D3000B83F61E081E00E9444B911E00C94D81AB8
:104D40000E94DC5B0E948DC46C3871050CF05EC162
:104D50007093DC036093DB030E94EF9360E081E0DB
:104D60000E9444B981E0809306021AA61BA61CA6E5
:104D70001DA61FAA18AE19AE1AAE1CAEFCE3FDAFFD
:104D80002CE12EAF36E43FAFC12CD12C90E8E92EB8
:104D90002FEBF22E1EA241E04BAF812C912C54013F
:104DA0006091DB037091DC03072E000C880B990BDC
:104DB0000E9483BE162F072F782E692E9601A70119
:104DC0000E947CBE882321F12091D7033091D80323
:104DD0004091D9035091DA038EA9612F702F811170
:104DE00009C0872D962D0E947CBE881F8827881FAA
:104DF0008EA314C0872D962D0E947CBE87FF0DC008
:104E000080910602882309F453CD1092060250CDFA
:104E10001C2D0D2D7E2C6F2C01C01EA20E94623F06
:104E20006B017C01DC01CB012FA938AD49AD5AAD36
:104E3000821B930BA40BB50BB7FD33C0D701C60182
:104E400088519C4FAF4FBF4F8FAB98AFA9AFBAAF50
:104E500080E00E94EF8E8FE493E00E941D84811415
:104E60009104A104B104B9F0D501C401805F984D4B
:104E7000AF4FBF4FBC01CD016C197D098E099F0951
:104E800028EE33E040E050E00E9483C2CA01B9013D
:104E90000E94F52D03C08FE30E94812D8AE00E94BD
:104EA000812D80E00E94AD2E0E94623F609322041B
:104EB0007093230480932404909325049091D70346
:104EC0009EA7A091D803AAABB091D903BBABE09148
:104ED000DA03ECAB292F3A2F4B2F5E2F612F702F67
:104EE000872D962D0E9420C31B012C0120E030E06D
:104EF000A9010E9481C587FF04C057FA509457F852
:104F0000509481149104A104B104E1F420E030E054
:104F100040E85FE3C201B1010E947CBE87FF1EC072
:104F2000FBADFF2339F085E0882E8DE0982EA12C73
:104F3000B12C03C0812C912C54018C0C9D1CAE1CF7
:104F4000BF1C0CC020E030E040E450E4C201B101DD
:104F50000E9481C5181614F4460157012EA1222380
:104F6000C1F18AA59BA5ACA5BDA5892B8A2B8B2B4E
:104F700061F0D701C6012AA53BA54CA55DA5821B02
:104F8000930BA40BB50BB7FD24C02EA53AA94BA9D2
:104F90005CA96CAD7DAD8EAD9FAD0E9420C320E0BD
:104FA00030E040E85FE30E947CBE87FD29CFD70157
:104FB000C601805A9541AF4FBF4F8AA79BA7ACA7A8
:104FC000BDA79EA59CAFAAA9ADAFBBA9BEAFECA9DA
:104FD000EFAF80910602882309F412CF8114910467
:104FE000A104B10431F41BAEC12ED02EE72CF62C57
:104FF000D7CEF0E1CF1AF7E2DF0AE108F108C818CE
:10500000D908EA08FB08F7FCEECFFACE6CE870E0AE
:105010009FCE0E94EF5788E50E94135C882331F0F1
:105020005F9A8091150F8E7F8093150F89E50E94FE
:10503000135C882331F08A9A8091150F8D7F8093BD
:10504000150F8AE50E94135C882361F080910801A6
:105050008095817080930601479A8091150F8B7F10
:105060008093150F85E40E94135C882309F420CCFB
:105070000E940D2B1DCC0E945F591ACC602F83E536
:105080000E94655E0C94391E83E50E943D5E882374
:1050900091F00E94DC5B60939F0C7093A00C809356
:1050A000A10C9093A20C6093A70C7093A80C809312
:1050B000A90C9093AA0C80E50E943D5E882351F0D4
:1050C0000E94DC5B60939F0C7093A00C8093A10CFA
:1050D0009093A20C82E50E943D5E882351F00E94CD
:1050E000DC5B6093A30C7093A40C8093A50C90934D
:1050F000A60C84E50E943D5E882309F4D9CB0E946A
:10510000DC5B6093A70C7093A80C8093A90C909320
:10511000AA0CCECB82E40E94135C882351F00E943B
:10512000C58A60937B0C70937C0C80937D0C90936C
:105130007E0C83E50E94135C882351F00E94DC5BA7
:105140006093AB0C7093AC0C8093AD0C9093AE0C51
:1051500084E50E94135C882351F00E94DC5B60931D
:10516000AF0C7093B00C8093B10C9093B20C8AE4A6
:105170000E94135C882309F49BCB0E94DC5B6B01CB
:105180007C012AE037ED43E25CE30E9481C587FDA4
:1051900013C02AE939E949E95EE3C701B6010E9473
:1051A0007CBE18164CF0C092CE06D092CF06E0928C
:1051B000D006F092D1067CCB0E94F18481EA94E083
:1051C0000E941D8475CBC12CD12CE12C10E4F12E52
:1051D0000C94E620C12CD12CE12CB0ECFB2E0C94CD
:1051E000E620A701960160911F0F7091200F80911A
:1051F000210F9091220F0E9421C360931F0F709383
:10520000200F8093210F9093220F0E94BC85409124
:105210001F0F5091200F6091210F7091220F8BE58D
:1052200094E00E94C0848AE00E94812D0C94192190
:1052300082E50E94135C81110C94252139CB0E94D8
:10524000F18481EF93E00E941D8432CBB7FAB094D1
:10525000B7F8B094D7018D929D92AD92BC921397FE
:105260000CCA0E94F18483ED93E00E941D8420CB40
:105270000C5F1F4FBFEFCB1ADB0AE4E4F5E0E01749
:10528000F10709F0CDC938EBE32E33E0F32E10E03F
:10529000F10181919191A191B1911F01F701819348
:1052A0009193A193B1937F01812F0E9424681F5F86
:1052B000133071F70E94FE6DFBCAF091170FFEA329
:1052C0008090180F7090190F60901A0F50901B0F5C
:1052D00040901C0F30901D0F20901E0FC0901F0F8C
:1052E000D090200FE090210FF090220F88E50E94CF
:1052F0003D5E882361F10E94DC5B5B018C0120E054
:1053000030E046E953EC0E9481C587FD0AC020E0E9
:1053100030E046E953E4B501C8010E947CBE18168E
:1053200094F46CE271E086EA93E00E94D1846CE22E
:1053300071E081EA93E00E94D18481E696E20E94C6
:105340001D8410E005C0AEA28B2C702E612E11E0E2
:1053500089E50E943D5E882381F10E94DC5B962EE8
:10536000A72EB82E092F20E030E046E953EC0E942A
:1053700081C587FD0CC020E030E046E953E4692D8B
:105380007A2D8B2D902F0E947CBE181694F46CE21F
:1053900071E08EE893E00E94D1846CE271E081EAD2
:1053A00093E00E94D18481E696E20E941D8410E081
:1053B00004C0592C4A2C3B2C202E8AE50E943D5ECD
:1053C000882339F10E94DC5B6B017C0120E030E036
:1053D00040EA51EC0E9481C587FD0AC020E030E020
:1053E00040EA51E4C701B6010E947CBE18168CF455
:1053F0006CEE7FEF8CE793E00E94D18464E170E073
:1054000081EA93E00E94D18481E696E20E941D84A5
:105410004FCA112309F44CCA8EA1982DA72DB62D81
:105420008093170F9093180FA093190FB0931A0F32
:10543000852D942DA32DB22D80931B0F90931C0FBF
:10544000A0931D0FB0931E0FC0921F0FD092200F7C
:10545000E092210FF092220F2BCAEF960FB6F8942C
:10546000DEBF0FBECDBFDF91CF911F910F91FF9097
:10547000EF90DF90CF90BF90AF909F908F907F90F4
:105480006F905F904F903F902F900895CF92DF9252
:10549000EF92FF920F931F93CF93DF936C018B01D9
:1054A0007A01EC01C05CDB4F888187FF04C0FB01FF
:1054B0001182108224C02CE02C9DC0012D9D900DE6
:1054C00011242881AC01420F511D27FD5A952091CE
:1054D000E20E30E04217530794F42881AC01420FEA
:1054E000511D27FD5A959A01FA01EE0FFF1F2E0F4D
:1054F0003F1FF901E656F14F208127FD19C0888131
:105500008F5F88832CE02C9DC0012D9D900D112470
:105510002881AC01420F511D27FD5A952091E20EC2
:1055200030E042175307BCF428812C3044F113C0FB
:105530002881820F911D27FD9A95FC01EE0FFF1F18
:105540008E0F9F1FFC01E656F14F808160E08F7740
:105550000E94D53DD4CFF80180819181049680349A
:105560009C4918F480E49CE904C0F8018081918191
:105570000496F701918380838FEF888345C0F801FB
:10558000408151812881BC01620F711D27FD7A95F0
:105590009B01FB01EE0FFF1F2E0F3F1FF901E65687
:1055A000F14F21813281240F351FF7013183208390
:1055B0002881AC01420F511D27FD5A959A01FA012D
:1055C000EE0FFF1F2E0F3F1FF901E656F14F20810E
:1055D00027FF1AC02881820F911D27FD9A95FC0193
:1055E000EE0FFF1F8E0F9F1FFC01E656F14F8081CB
:1055F00061E08F77DF91CF911F910F91FF90EF9036
:10560000DF90CF900C94D53DDF91CF911F910F91FA
:10561000FF90EF90DF90CF900895129A08955F9ACF
:105620008091150F8E7F8093150F8A9A8091150FA8
:105630008D7F8093150F80910801809581708093F4
:105640000601479A8091150F8B7F8093150F0C945C
:105650000D2BC42F0E9427940E94F18482E896E0CB
:105660000E941D8489EE93E030E6019729F0232FF4
:105670002A950000E9F7F9CFF89489EE93E038EE27
:10568000019729F0232F2A950000E9F7F9CF0E940E
:105690002794CC2319F00E940F2B02C00E940D2BDF
:1056A000A895FECFFF920F931F93CF93DF931F9286
:1056B000CDB7DEB7F82E02EA16E041E050E0B801BF
:1056C000CE0101960E9409BE89818F1102C081E03E
:1056D00007C00F5F1F4F86E00E3B180771F780E091
:1056E0000F90DF91CF911F910F91FF900895DC01F2
:1056F000EC91F0E0CF01880F991FE80FF91FE656F3
:10570000F14F80818F77808308958F929F92AF921F
:10571000BF92CF92DF92EF92FF920F93CF93DF93DE
:105720001F92CDB7DEB75C016B017A014901F5012B
:10573000808191810E945DC28983002311F0F6016E
:105740008083BE016F5F7F4FC4010E94DDAFF50112
:1057500080819181019691838083FFEFCF1ADF0AC8
:1057600081E0E81AF10819F780E00F90DF91CF91FE
:105770000F91FF90EF90DF90CF90BF90AF909F90F0
:105780008F9008957F928F929F92AF92BF92CF9207
:10579000DF92EF92FF920F931F93CF93DF931F92AD
:1057A000CDB7DEB77C0159018B016B01C40ED51E4C
:1057B0000C151D0559F1F70180809180F801719059
:1057C0008F017982C4010E945DC2781691F0672D25
:1057D000C4010E9465C2C4010E945DC299818917FB
:1057E00041F00E94BC8589E695E00E941D8481E01D
:1057F0000EC0BE016F5F7F4FC5010E94DDAFF70194
:1058000080819181019691838083D2CF80E00F9037
:10581000DF91CF911F910F91FF90EF90DF90CF908C
:10582000BF90AF909F908F907F900895009781F4E4
:105830001092900082E08093910010929500109257
:105840009400C19A809171008260809371000895E4
:10585000019761F41092A00082E08093A100109261
:10586000A5001092A40089BB8093720008957F92D6
:105870008F929F92AF92BF92CF92DF92EF92FF9260
:105880000F931F93CF93DF93FC019081983108F021
:10589000CEC06B017F01892F90E0FC01EE0FFF1F4E
:1058A0008E0F9F1FFC01E656F14F808161E08F77DC
:1058B0000E94043EF7011182128280816CE00E94F6
:1058C000E6C2FCE08F9FB001112440E050E09B0154
:1058D000240F351FF901EE0FFF1F2E0F3F1FF90197
:1058E000E656F14F908197FD08C04F5F5F4F4C30F7
:1058F000510569F790E00E94162CF7017080C72DC2
:10590000D0E08E01000F111FF801EC0FFD1FE656CD
:10591000F14F80818068808377FC89C0F0E2CF16E8
:10592000F2E0DF060CF041C0F701828128E532E0A9
:10593000281B310987FD3395220F331F220F331F98
:10594000032E000C440B550B818168E870E04B017D
:10595000881A910887FD9394880C991C880C991CCF
:10596000092C000CAA08BB08D7FC0BC0B601653B8C
:10597000710514F064EB70E0072E000C880B990B96
:1059800003C060E070E0CB01281939094A095B09BE
:105990000E9473C224EB30E040E050E00E94A5C2B8
:1059A000820E931EA41EB51E01C04601F7E1F71535
:1059B00058F1F701218188E890E0821B910927FDC9
:1059C0009395880F991F880F991F8816990684F060
:1059D000F701228188E592E0821B910927FD9395CA
:1059E000880F991F880F991F881699060CF4C40117
:1059F00002972FB7F894C00FD11FC656D14F880F0A
:105A0000991F9A8389832FBF62E370E080E090E062
:105A1000DF91CF911F910F91FF90EF90DF90CF908A
:105A2000BF90AF909F908F907F900C945383DF91A5
:105A3000CF911F910F91FF90EF90DF90CF90BF908B
:105A4000AF909F908F907F9008951F920F920FB606
:105A50000F9211240BB60F922F933F934F935F93A6
:105A60006F937F938F939F93AF93BF93EF93FF9326
:105A700048EA50E064EA70E081E090E00E94462A43
:105A8000FF91EF91BF91AF919F918F917F916F9116
:105A90005F914F913F912F910F900BBE0F900FBED2
:105AA0000F901F9018951F920F920FB60F9211240E
:105AB0000BB60F922F933F934F935F936F937F9308
:105AC0008F939F93AF93BF93EF93FF9348E950E079
:105AD00064E970E080E090E00E94462AFF91EF9137
