:100000000C943F130C9470130C9470130C94701395
:100010000C9470130C9470130C9470130C94701354
:100020000C9470130C9470130C9470130C94701344
:100030000C9470130C9470130C9470130C94701334
:100040000C9470130C940A4B0C9470130C94701352
:100050000C9470130C9470130C9402930C94B04A8B
:100060000C9470130C94E3360C94D9360C947013E2
:100070000C9470130C9470130C9470130C947013F4
:100080000C94F22F0C9470130C9470130C94701346
:100090000C9470130C9470130C9470130C947013D4
:1000A0000C9470130C9470130C94C42F0C94701354
:1000B0000C9470130C9470130C9470130C947013B4
:1000C0000C9470130C9470130C9470130C947013A4
:1000D0000C9470130C9470130C9470130C94701394
:1000E0000C94701316372637373742374A37613743
:1000F0004E3761375237563761375C378E489148F3
:10010000804884488A48C848954899489F48A348E9
:10011000A748AD48B148B548C848BB48BF48C348E0
:10012000AB49B049B549BF49C949424AD349DB49FE
:10013000E349ED49F749014A104A1A4A424A244A1A
:100140002E4A384A059F089F0C9F0F9F129F3C9F85
:10015000169F199F1D9F209F239F279F2A9F2D9F9A
:100160003C9F319F349F379F879FA99FC99FEE9FD8
:1001700013A0CAA138A05BA07EA0A3A0C8A0EDA038
:1001800012A137A1CAA15CA181A1A6A1084AD73BAF
:100190003BCE016E84BCBFFDC12F3D6C74319ABD56
:1001A00056833DDA3D00C77F11BED9E4BB4C3E917A
:1001B0006BAAAABE000000803F05A84CCDB2D44E69
:1001C000B93836A9020C50B9918688083CA6AAAA6B
:1001D0002ABE000000803F000C94199F0C94AD488B
:1001E0000C94424A0C9495480C945C370C94B54995
:1001F0000C94169F0C94EE9F0C94A99F0C94C848E5
:100200000C94239F0C94B0490C94129F0C94563775
:100210000C945CA10C94C8A00C94CAA10C94E34962
:100220000C948A480C94C99F0C94D3490C94A3A0B5
:100230000C94BF480C9481A10C94BB480C94844846
:100240000C94379F0C947EA00C94A6A10C94DB49CF
:100250000C94104A0C940F9F0C94ED490C94523757
:100260000C949F480C94244A0C941A4A0C94F74915
:100270000C94014A0C9413A00C945BA00C94209F46
:100280000C942A9F0C94B5480C94349F0C94163708
:100290000C9412A10C948E480C94EDA00C94089F21
:1002A0000C944A370C94059F0C94879F0C94384A01
:1002B0000C94A7480C9491480C942E4A0C94373710
:1002C0000C94BF490C940C9F0C9438A00C94BFB1B3
:1002D0000C9437A10C941D9F0C9426370C94A348C2
:1002E0000C943C9F0C94C3480C9499480C94279F01
:1002F0000C94319F0C9461370C9442370C94C9498B
:100300000C9480480C94AB490C94B1480C944E3733
:100310000C942D9F4E414E494E495459494E46CD5D
:10032000CCCC3D0AD7233C17B7D13877CC2B3295AC
:1003300095E6241FB14F0A000020410000C842008A
:10034000401C4620BCBE4CCA1B0E5AAEC59D742034
:10035000573A00434F4D4D554E49434154494F4E36
:100360000044525952554E004552524F5253004983
:100370004E464F004543484F006F6B003F5A206F79
:100380007574206F662072616E67652028003F5982
:10039000206F7574206F662072616E676520282D4E
:1003A0000020746F20003F58206F7574206F662006
:1003B00072616E676520282D0050726F6265204F54
:1003C0006666736574205800454550524F4D204F66
:1003D0004B0A00546F6F206661722066726F6D2049
:1003E0007265666572656E636520706F696E740A0A
:1003F000004D34323120696E636F72726563742010
:10040000706172616D657465722075736167650AEC
:10041000006469730043290A0061626C65642028E6
:100420006D696E2074656D702000436F6C6420658B
:100430007874727564657320617265200020643A77
:100440000020693A0020703A00496E76616C696458
:100450002065787472756465720A0050726F626507
:10046000204F6666736574205A0020536572766F5C
:10047000200020466C6F773A200046523A002059FF
:100480000020204D61783A200020204D696E3A20EE
:1004900000536F667420656E6473746F70733A20D6
:1004A000003F4A206F7574206F662072616E676529
:1004B0002028302E303120746F20302E33290A004E
:1004C000205400205200416363656C657261746959
:1004D0006F6E3A2050002F2F20004348414D424577
:1004E000525F54454D50455241545552450042418A
:1004F00042595354455050494E47004152435300CE
:100500004D4F54494F4E5F4D4F444553005448455D
:10051000524D414C5F50524F54454354494F4E0049
:100520004C4F4E475F46494C454E414D4500415565
:10053000544F5245504F52545F53445F53544154AB
:100540005553005344434152440050524F4D505470
:100550005F535550504F525400454D455247454EFC
:1005600043595F50415253455200434153455F4CFC
:10057000494748545F4252494748544E45535300F7
:10058000544F47474C455F4C494748545300534FDD
:100590004654574152455F504F57455200425549C6
:1005A0004C445F50455243454E54004C4556454CD3
:1005B000494E475F44415441005A5F50524F4245B3
:1005C0000052554E4F5554004155544F4C455645D9
:1005D0004C005052494E545F4A4F420050524F47D0
:1005E00052455353004155544F5245504F52545F5A
:1005F00054454D5000564F4C554D455452494300BB
:10060000454550524F4D0042494E4152595F46496F
:100610004C455F5452414E53464552005345524952
:10062000414C5F584F4E5F584F4646004649524D29
:10063000574152455F4E414D453A4D61726C696E6E
:1006400020322E302E372E3220284F637420323243
:1006500020323032302030323A32373A35322920A7
:10066000534F555243455F434F44455F55524C3AB3
:1006700068747470733A2F2F6769746875622E639B
:100680006F6D2F4D61726C696E4669726D77617224
:10069000652F4D61726C696E2050524F544F434F1D
:1006A0004C5F56455253494F4E3A312E30204D4102
:1006B0004348494E455F545950453A33442050729F
:1006C000696E7465722045585452554445525F43D3
:1006D0004F554E543A3120555549443A34333466D7
:1006E000326238362D393135352D343336322D617D
:1006F0006463322D36376232646136643133666446
:100700000A004D3131332053006F66660044454284
:1007100055473A00256979202569642025696820B4
:1007200025696D20256973005072696E74207469A3
:100730006D653A20004D65736820706F696E742096
:100740006F7574206F662072616E67650A005A20AB
:1007500050726F62652050617374204265640A00B4
:1007600000000000000000000000000074036F03A0
:1007700068036103530300007042000070420000F0
:10078000C04000009643000096430000C843FFFFAE
:10079000FF4572726F722077726974696E67207498
:1007A0006F20454550524F4D210A004E6F2043683F
:1007B00065636B73756D2077697468206C696E650D
:1007C000206E756D6265722C204C617374204C69CB
:1007D0006E653A2000636865636B73756D206D69A3
:1007E000736D617463682C204C617374204C696E66
:1007F000653A20004C696E65204E756D6265722009
:100800006973206E6F74204C617374204C696E653F
:10081000204E756D6265722B312C204C61737420F3
:100820004C696E653A20004D313130002121204B5A
:10083000494C4C2063617573656420627920746F44
:100840006F206D75636820696E61637469766520D9
:1008500074696D65202D2063757272656E742063F6
:100860006F6D6D616E643A2000627573793A207025
:10087000617573656420666F7220696E7075740AA5
:1008800000627573793A2070617573656420666FD4
:100890007220757365720A00627573793A207072FE
:1008A0006F63657373696E670A005072696E746571
:1008B000722068616C7465642E206B696C6C2829E9
:1008C0002063616C6C6564210A006563686F3A009F
:1008D0004572726F723A0042696C696E656172208E
:1008E0004C6576656C696E6720477269643A0A00E8
:1008F000363726033C3D380E2E303E1224221E137E
:100900001A1C180A074309070844000120746F6F76
:10091000206C6F6E6720657874727573696F6E20D6
:1009200070726576656E7465640A0020636F6C642E
:1009300020657874727573696F6E20707265766564
:100940006E7465640A00DB0FC93F45BCDA3F8FB3A4
:100950000240FCF0274056946140FE4B9B4084A52A
:10096000D840E0231841346A5641E859974164DB86
:10097000D5416E271742B4B75542CE1A9742C8AE3A
:10098000D542B5885A43D40684BFA65FA7BF744337
:10099000E0BF10B11AC01C2C58C0E8F697C0B84987
:1009A000D6C04E4E17C124D355C1802497C1A0B5DF
:1009B000D5C1121A17C244AE55C2781797C26CAC93
:1009C000D5C267885AC370012C0190012701B0017C
:1009D0002201C0011D01F0011801100213013002B3
:1009E0000E016002090190020401C002FF00000331
:1009F000FA004003F5008003F000D003EB00200470
:100A0000E6007004E100E004DC004005D700C0050A
:100A1000D2004006CD00D006C8008007C3003008D1
:100A2000BE00F008B900C009B400B00AAF00B00BB6
:100A3000AA00D00CA500000EA000500F9B00C01013
:100A400096005012910000148C00C0158700B0175A
:100A50008200B0197D00D01B7800001E730040207A
:100A60006E0090226900F024640040275F00902906
:100A70005A00E02B5500102E500020304B00103251
:100A80004600E033410090353C00103737007038A5
:100A90003200A0392D00B03A2800A03B2300603C72
:100AA0001E00103D1900903D1400103E0F00703ED6
:100AB0000A00C03E0500003F0000403FFBFF803FB2
:100AC000F6FFC03FF1FF00002100240027002A00AC
:100AD0002D003000330001010000040107010A016C
:100AE00000002200250028002B002E0031003400D9
:100AF00002010000050108010B0100002000230095
:100B0000260029002C002F00320000010000030104
:100B10000601090105050505070508080808020280
:100B200002020A0A08080404040401010101010187
:100B300001010303030303030303040707070C0C6A
:100B40000C0C0C0C0C0C0202020206060606060631
:100B500006060B0B0B0B0B0B0B0B010210202008D6
:100B60000810204010204080020102010804020108
:100B70000102040810204080804020100804020177
:100B800080040201804020100804020108040201D0
:100B90000102040810204080010204081020408057
:100BA00000000A0B02090C0D0E08070304010000E7
:100BB0000000000000000000000000000000000035
:100BC00000000000000000000000000012111000F2
:100BD0000000000000000000000000000000000015
:100BE0000000000000002020506C616E6E657242B3
:100BF000756666657242797465733A2000204672A4
:100C00006565204D656D6F72793A2000436F6D7098
:100C1000696C65643A204F6374203232203230327E
:100C2000300A00204C6173742055706461746564EF
:100C30003A20323032302D31302D3135207C204178
:100C40007574686F723A2028447275636B626172C2
:100C50002E6E6574290A00322E302E372E320A008D
:100C60004D61726C696E0020536F667477617265B6
:100C70002052657365740A00205761746368646F5D
:100C8000672052657365740A002042726F776E2088
:100C90006F75742052657365740A00204578746519
:100CA000726E616C2052657365740A00506F7765CF
:100CB0007255700A0020503A00656E6473746F704C
:100CC00073206869743A200020204D3630332000AC
:100CD00020550046696C616D656E74206C6F6164AF
:100CE0002F756E6C6F6164206C656E677468733A03
:100CF0000020204D3835312058005A2D50726F6237
:100D000065204F66667365740020204D33303420B3
:100D1000500020204D333031205000504944207382
:100D2000657474696E67733A002020473239205722
:100D300020490020204D3432302053004175746F1B
:100D400020426564204C6576656C696E673A0020C8
:100D5000204D323036205800486F6D65206F666632
:100D60007365743A00204A0020204D32303520420D
:100D700000416476616E6365643A20423C6D696E41
:100D80005F7365676D656E745F74696D655F7573BC
:100D90003E20533C6D696E5F666565647261746583
:100DA0003E20543C6D696E5F74726176656C5F665F
:100DB000656564726174653E204A3C6A756E635F66
:100DC0006465763E0020204D32303420500041636F
:100DD00063656C65726174696F6E2028756E6974E5
:100DE000732F7332293A20503C7072696E745F61C0
:100DF0006363656C3E20523C726574726163745F1C
:100E0000616363656C3E20543C74726176656C5F0F
:100E1000616363656C3E0020204D32303120580004
:100E20004D6178696D756D20416363656C657261B4
:100E300074696F6E2028756E6974732F7332293A46
:100E40000020450020204D3230332058004D61787D
:100E5000696D756D206665656472617465732028BF
:100E6000756E6974732F73293A005374657073201B
:100E700070657220756E69743A0020440020204D20
:100E80003230302053002044697361626C65640A1B
:100E90000046696C616D656E742073657474696E6B
:100EA00067733A0020286D6D2900202047323120D9
:100EB0002020203B20556E69747320696E206D6D73
:100EC0000024F4D43050C38E20C2A24017828B700D
:100ED00011127A910D816CD90AA861E108C7586690
:100EE00007615143061E4B5D05C145A7041A411118
:100EF00004093D9803713931034036DB02653391B3
:100F000002D4305402802E1D02632CEE01752AC5D6
:100F100001B028A001102781018F2564012B244BEB
:100F200001E0223401AC211F018D200D01801FFC46
:100F300000841EED00971DDF00B81CD200E61BC622
:100F400000201BBC00641AB200B219A8000A19A044
:100F5000006A189900D117910040178B00B51684CC
:100F60000031167E00B31579003A157300C7146F6F
:100F70000058146A00EE1366008813630025135EA0
:100F800000C7125B006C12570015125400C11151BA
:100F90000070114F0021114B00D61049008D1047F1
:100FA000004610440002104200C00F4000800F3E77
:100FB00000420F3C00060F3B00CB0E3800930E376B
:100FC000005C0E3500270E3400F30D3200C10D31E8
:100FD00000900D3000600D2E00320D2D00050D2CFF
:100FE00000D90C2B00AE0C2900850C29005C0C27C5
:100FF00000350C27000E0C2600E80B2400C40B243F
:1010000000A00B23007D0B23005A0B2100390B217C
:1010100000180B2000F80A1F00D90A1E00BB0A1E88
:10102000009D0A1D00800A1D00630A1C00470A1B60
:10103000002C0A1B00110A1A00F7091A00DD091911
:1010400000C4091900AB091900920917007B09189F
:1010500000630917004C091600360916002009160E
:10106000000A091500F5081500E0081400CC081462
:1010700000B8081400A4081400900813007D08129A
:10108000006B0813005808120046081200340811BB
:1010900000230811001208110001081100F00710C8
:1010A00000E0071000D0071000C0071000B0070FC5
:1010B00000A107100091070E0083070F0074070FAF
:1010C0000065070E0057070E0049070E003B070D8D
:1010D000002E070E0020070D0013070D0006070D58
:1010E00000F9060C00ED060D00E0060C00D4060C1D
:1010F00000C8060C00BC060C00B0060C00A4060BD1
:101100000099060C008D060B0082060B0077060B7B
:10111000006C060B0061060A0057060B004C060A1D
:101120000042060A0038060A002E060A0024060AB3
:10113000001A060A001006090007060A00FD050944
:1011400000F4050900EB050900E2050900D90509CD
:1011500000D0050900C7050900BE050900B505084E
:1011600000AD050800A50509009C050800940508C8
:10117000008C050800840508007C0508007405083B
:10118000006C050700650508005D050700560508A9
:10119000004E050700470507004005080038050711
:1011A00000310507002A050700230507001C050676
:1011B00000160507000F05070008050600020507D1
:1011C00000FB040600F5040700EE040600E8040630
:1011D00000E2040700DB040600D5040600CF040685
:1011E00000C9040600C3040600BD040600B70406D7
:1011F00000B1040500AC040600A6040600A0040526
:10120000009B04060095040500900406008A04056E
:101210000085040500800406007A040500750405B5
:1012200000700405006B04050066040500610405F8
:10123000005C04050057040500520405004D040538
:101240000048040500430405003E0404003A040578
:101250000035040500300404002C040500270404B4
:1012600000230405001E0404001A040400160405EB
:1012700000110404000D0404000904050004040422
:101280000000040400FC030400F8030400F4030459
:1012900000F0030400EC030400E8030400E403048A
:1012A00000E0030400DC030400D8030400D40304BA
:1012B00000D0030400CC030400C8030300C50303EB
:1012C0000024F404D9201BC40C5C0E9804C4095FEC
:1012D0000265077101F405F900FB04B300480487B7
:1012E00000C10369005803550003034500BE023ADC
:1012F000008402310053022A002902250004022042
:1013000000E4011C00C8011900AF01170098011486
:101310000084011300710110006101100051010EE1
:101320000043010D0036010B002B010B0020010BC7
:1013300000150109000C01090003010800FB000869
:1013400000F3000800EB000700E4000600DE0006E2
:1013500000D8000600D2000600CC000500C700053A
:1013600000C2000500BD000400B9000400B500047F
:1013700000B1000400AD000400A9000400A50003B2
:1013800000A20003009F0004009B000300980003DC
:10139000009500020093000300900003008D0002FE
:1013A000008B000300880002008600020084000316
:1013B00000810002007F0002007D0002007B00022D
:1013C000007900020077000100760002007400023C
:1013D0000072000100710002006F0002006D000148
:1013E000006C0002006A0001006900020067000151
:1013F0000066000100650001006400020062000157
:101400000061000100600001005F0002005D00015A
:10141000005C0001005B0001005A0001005900015E
:10142000005800010057000100560001005500015E
:10143000005400010053000000530001005200015D
:101440000051000100500001004F0001004E00005B
:10145000004E0001004D0001004C0001004B000057
:10146000004B0001004A0001004900010048000053
:10147000004800010047000100460000004600014E
:101480000045000000450001004400010043000049
:101490000043000100420000004200010041000042
:1014A0000041000100400001003F0000003F00013A
:1014B000003E0000003E0001003D0000003D000134
:1014C000003C0000003C0000003C0001003B00002C
:1014D000003B0001003A0000003A00010039000022
:1014E0000039000100380000003800000038000119
:1014F0000037000000370001003600000036000011
:101500000036000100350000003500000035000104
:1015100000340000003400000034000100330000FB
:1015200000330000003300010032000000320000F0
:1015300000320001003100000031000000310001E4
:10154000003000000030000000300001002F0000DB
:10155000002F0000002F0000002F0001002E0000CF
:10156000002E0000002E0001002D0000002D0000C4
:10157000002D0000002D0001002C0000002C0000B8
:10158000002C0000002C0001002B0000002B0000AC
:10159000002B0000002B0001002A0000002A0000A0
:1015A000002A0000002A0001002900000029000094
:1015B0000029000000290000002900010028000087
:1015C000002800000028000000280000002800017A
:1015D000002700000027000000270000002700006F
:1015E0000027000100260000002600000026000061
:1015F0000026000000260001002500000025000054
:101600000025000000250000002500000025000145
:10161000002400000024000000240000002400003A
:10162000002400010023000000230000002300002C
:10163000002300000023000000230000002300011D
:101640000022000000220000002200000022000012
:101650000022000000220001002100000021000003
:1016600000210000002100000021000000210000F6
:1016700000210001002000000020000000200000E8
:1016800000200000002000000020000000200000DA
:1016900000200001001F0000001F0000001F0000CC
:1016A000001F0000001F0000001F0000001F0001BD
:1016B000001E0000001E0000001E0000001E0000B2
:1016C00000043700001E290000511B0000581000C4
:1016D0000010090000CC0400007802000041010065
:1016E00000486F6D696E67204661696C6564006FC4
:1016F00070656E00545249474745524544007A5F31
:1017000070726F6265007A5F6D696E00795F6D69F6
:101710006E00785F6D696E005265706F7274696EED
:101720006720656E6473746F702073746174757371
:101730000A00486F6D65202573257325732046695F
:10174000727374005761726E696E673A20486F6DEC
:10175000696E672042756D702044697669736F7297
:10176000203C20310A000202040000A0400000A03A
:10177000400000004053657474696E6773205374B1
:101780006F72656420280053544F505045442E20FA
:10179000005072696E7465722073746F7070656446
:1017A0002064756520746F206572726F72732E20CD
:1017B00046697820746865206572726F7220616E68
:1017C0006420757365204D39393920746F20726536
:1017D00073746172742E202854656D706572617423
:1017E0007572652069732072657365742E20536568
:1017F0007420697420616674657220726573746107
:101800007274696E67290A0021212053544F5020B9
:1018100063616C6C65642062656361757365206FDC
:101820006620424C546F756368206572726F722037
:101830002D20726573746172742077697468204D0D
:101840003939390A0053656E64204D3130382074BF
:101850006F20726573756D650A0053656E64204D67
:1018600031303820746F2068656174206E6F7A7A29
:101870006C650A00486F74656E6420746F6F206336
:101880006F6C640A00496E736572742066696C61DE
:101890006D656E7420616E642073656E64204D31D9
:1018A00030380A004F46460A0046616465204865A4
:1018B000696768742000426564204C6576656C69D0
:1018C0006E6720004661696C656420746F20656EE8
:1018D00061626C6520426564204C6576656C696E5A
:1018E000670A00496E76616C6964206D6573682EC5
:1018F0000A004361703A0047322F47332062616427
:1019000020706172616D65746572730A005265734F
:10191000656E643A200023646566696E65204445FF
:101920004641554C545F004B6420004B6920004BEE
:10193000702000504944204175746F74756E6520A5
:1019400066696E69736865642120507574207468D7
:1019500065206C617374204B702C204B6920616E84
:1019600064204B6420636F6E7374616E74732066C1
:10197000726F6D2062656C6F7720696E746F2043A3
:101980006F6E66696775726174696F6E2E680A00A2
:10199000504944204175746F74756E6520666169A5
:1019A0006C6564212074696D656F75740A000A2086
:1019B000436C617373696320504944200A00204BD3
:1019C000643A2000204B693A2000204B703A2000F6
:1019D0000A204E6F206F76657273686F6F740A000D
:1019E0002054753A2000204B753A2000206D617814
:1019F0003A2000206D696E3A200020643A200020D1
:101A0000626961733A2000504944204175746F74D3
:101A1000756E652073746172740A005049442041E8
:101A200075746F74756E65206661696C65642120DC
:101A300054656D706572617475726520746F6F2086
:101A4000686967680A00504944204175746F74756D
:101A50006E65206661696C65642120426164206561
:101A600078747275646572206E756D6265720A00B5
:101A700050726F62696E67206D65736820706F6960
:101A80006E742000202844525952554E2900473286
:101A900039204175746F20426564204C6576656C11
:101AA000696E67003F20284C2C522C462C4229207E
:101AB0006F7574206F6620626F756E64732E0A00F6
:101AC0003F2856296572626F7365206C6576656C78
:101AD00020696D706C61757369626C652028302DAA
:101AE00034292E0A00426164205A2076616C7565A3
:101AF0000A004E6F2062696C696E656172206772C0
:101B000069640A0046696E6973686564210A003A6F
:101B1000207A3A2000206F662000476F696E6720A8
:101B2000746F3A20580043570A00206469723A00E3
:101B300020616E676C653A00537461727420726143
:101B4000646975733A00506F736974696F6E696E7A
:101B500067207468652070726F62652E2E2E0A00F1
:101B60003F4C656773206F66206D6F76656D656E9F
:101B70007420696D706C61757369626C65202830C2
:101B80002D3135292E0A003F2028582C5929206F45
:101B90007574206F6620626F756E64732E0A003F45
:101BA00053616D706C652073697A65206E6F742067
:101BB000706C61757369626C652028342D3530292D
:101BC0002E0A004D3438205A2D50726F6265205213
:101BD00065706561746162696C69747920546573BC
:101BE000740A005A5F4D494E5F50524F42455F5054
:101BF000494E005A325F535445505F50494E005A87
:101C0000325F454E41424C455F50494E005A325F6B
:101C10004449525F50494E005A5F53544F505F50F1
:101C2000494E005A5F535445505F50494E005A5F29
:101C30004D494E5F50494E005A5F454E41424C451A
:101C40005F50494E005A5F4449525F50494E005917
:101C50005F53544F505F50494E00595F53544550A5
:101C60005F50494E00595F4D494E5F50494E0059F3
:101C70005F454E41424C455F50494E00595F4449D3
:101C8000525F50494E00585F53544F505F50494E79
:101C900000585F535445505F50494E00585F4D49BE
:101CA0004E5F50494E00585F454E41424C455F5093
:101CB000494E00585F4449525F50494E00534552C7
:101CC000564F335F50494E00534552564F325F5086
:101CD000494E00534552564F315F50494E005345CF
:101CE00052564F305F50494E0053445353005241B7
:101CF0004D50535F44395F50494E0052414D50534F
:101D00005F44385F50494E0052414D50535F44315B
:101D1000305F50494E004D4F534645545F445F502D
:101D2000494E004D4158363637355F53535F504961
:101D30004E004C45445F50494E0048454154455281
:101D40005F4245445F50494E004845415445525F0B
:101D5000305F50494E0046414E315F50494E00457C
:101D6000315F535445505F50494E0045315F454EF9
:101D700041424C455F50494E0045315F4449525FF6
:101D800050494E0045315F43535F50494E00453046
:101D90005F535445505F50494E0045305F454E41BA
:101DA000424C455F50494E0045305F4449525F50B8
:101DB000494E0045305F4155544F5F46414E5F509C
:101DC000494E00455F4D5558325F50494E00455FC2
:101DD0004D5558315F50494E00455F4D5558305F65
:101DE00050494E004156525F53535F50494E004197
:101DF00056525F53434B5F50494E004156525F4D20
:101E00004F53495F50494E004156525F4D49534F21
:101E10005F50494E0054454D505F4245445F504924
:101E20004E0054454D505F315F50494E0054454D72
:101E3000505F305F50494E0046494C574944544822
:101E40005F50494E005458443000525844300020EE
:101E50002020416E616C6F6720696E203D20253522
:101E60006C64003C756E757365642F756E6B6E6F78
:101E7000776E3E004F7574707574203D2000496E7A
:101E800070757420203D200070726F7465637465F6
:101E90006420002028412532642920200025336455
:101EA0002000446F6E652E0A0050756C73696E6772
:101EB00020202000556E746F75636865642000668D
:101EC000616C7365004641494C3A204E6F20747234
:101ED00069676765722064657465637465640A0088
:101EE0004641494C3A204E6F6973652064657465BC
:101EF00063746564202D20706C6561736520726564
:101F00002D72756E20746573740A003D20424C5426
:101F10006F756368207072652056332E3120286FEC
:101F20007220636F6D70617469626C6529003D2079
:101F30005A20536572766F2050726F6265003D20A3
:101F4000424C546F7563682056332E310020282B85
:101F50002F2D20346D73293A20003A2033306D73D1
:101F6000206F72206D6F72650A002E2050756C73A1
:101F700065207769647468002A2A20506C65617353
:101F80006520747269676765722070726F62652080
:101F900077697468696E20333020736563202A2A5C
:101FA0000A004641494C3A20424C544F5543482080
:101FB000656E61626C6564202D20536574207570B8
:101FC0002074686973206465766963652061732095
:101FD0006120536572766F2050726F626520776959
:101FE000746820494E56455254494E4720736574D3
:101FF00020746F202774727565272E0A00202044F4
:1020000045504C4F5945442073746174653A204CD7
:102010004F5720286C6F67696320302900202044C7
:1020200045504C4F5945442073746174653A2048BB
:1020300049474820286C6F676963203129003D209B
:102040004D656368616E6963616C20537769746381
:10205000682064657465637465640A005741524E74
:10206000494E473A20494E56455254494E472073EF
:10207000657474696E672070726F6261626C79203A
:102080006261636B77617264732E0A002E2044656F
:10209000706C6F7920262073746F772034207469F8
:1020A0006D65730A003D20424C546F756368204390
:1020B0006C617373696320312E322C20312E332CE6
:1020C00020536D61727420312E302C20322E302C32
:1020D00020322E322C20332E302C20332E3120640F
:1020E000657465637465642E0A002E204368656319
:1020F0006B20666F7220424C544F5543480A002EA5
:10210000205A5F4D494E5F50524F42455F454E4405
:1021100053544F505F494E56455254494E473A200A
:10212000002E2050726F6265205A5F4D494E5F50FD
:10213000524F42455F50494E3A20002C2073746F35
:102140007720616E676C653A202020002C20646542
:10215000706C6F7920616E676C653A200053657210
:10216000766F2070726F626520746573740A2E201A
:102170007573696E6720696E6465783A2020005730
:1021800061746368696E672070696E730A00656EBA
:102190006473746F70206D6F6E69746F72200020AD
:1021A0004D393220580020496E76616C6964206593
:1021B0007874727564657220004A1E0001451E0124
:1021C00001381E3B002D1E4300221E4500151E44F3
:1021D00000081E3201FB1D3301EF1D3401E41D35E3
:1021E00001D91D2801CE1D2A01C31D2C01B31D07D5
:1021F00001A81D1C019A1D18018E1D1A01841D2C99
:1022000001791D22016B1D1E015F1D2401BB1D09EB
:1022100001561D0701491D0A013A1D0801321D0D15
:1022200001231D42010C1E3201161D0701FF1D3343
:1022300001081D0A01FB1C0801EE1C0901F31D34F5
:1022400001E91C3501DE1C0B01D31C0601C81C056D
:1022500001BD1C04012B1D3501B31C3701A61C2632
:10226000019C1C0301911C3601861C03017C1C3D52
:10227000016F1C3801651C0E015A1C3C014F1C0EDD
:1022800001451C3001381C3E012E1C1201231C2E5E
:1022900001181C12010D1C2201FF1B1E01F31B243F
:1022A00001E31B1301202D20496E76616C696420C7
:1022B0006578747275646572206E756D62657220E2
:1022C000210A00544845524D414C2052554E415729
:1022D000415900546865726D616C2052756E61776A
:1022E0006179004572723A204D415854454D500075
:1022F0004D415854454D5020747269676765726549
:1023000064004572723A204D494E54454D50004D7F
:10231000494E54454D502074726967676572656413
:10232000000A0A0020205A5F4D494E5F50524F422A
:10233000453A0020205A5F4D494E3A002020595F0F
:102340004D494E3A002020585F4D494E3A00202F0B
:10235000002042403A0020403A00206279746573C0
:102360003B2063726320004E6F20454550524F4D15
:102370002E0A00454550524F4D20646174617369C7
:102380007A65206572726F722E0A002073746F7204
:1023900065642073657474696E6773207265747206
:1023A0006965766564202800202863616C63756C1C
:1023B0006174656429210A0020213D2000454550B3
:1023C000524F4D20435243206D69736D61746368B1
:1023D000202D202873746F726564292000205369B2
:1023E0007A653A2000496E6465783A20004449478E
:1023F00049504F5453204C6F616465640A0044494E
:102400004749504F5453204C6F6164696E670A000E
:10241000204D61726C696E3D563832290A0045457F
:1024200050524F4D2076657273696F6E206D6973DF
:102430006D617463682028454550524F4D3D0048FA
:10244000617264636F6465642044656661756C7471
:102450002053657474696E6773204C6F61646564A2
:102460000A003B2000000096430000964300002035
:1024700042000020423D0AA14233B3A1429A99C8CA
:10248000430000E343B80B0000B80B0000640000F9
:1024900000102700005374616E646172642044650B
:1024A00076696174696F6E3A20002052616E6765CB
:1024B0003A2000205369676D613A20004D65616ED6
:1024C0003A200050574D3A20202534640020202027
:1024D00020434F4D002020206E6F6E2D7374616E6F
:1024E000646172642050574D206D6F646500202038
:1024F00020636F6D7061726520696E7465727275AC
:10250000707420656E61626C6564002020206F76B7
:102510006572666C6F7720696E746572727570741F
:1025200020656E61626C6564002020202054494D56
:10253000534B00423A2000413A20002020202054F2
:10254000434352002020202043533A2000202020E3
:102550002057474D3A20002020202054494D455215
:102560000020697320616C736F2074696564207446
:102570006F20746869732070696E0054494D45522C
:102580003143000A202E002020506F72743A200040
:1025900047004800000088008A008C00B300B400A7
:1025A000000098009A009C00A800AA00AC00280136
:1025B0002A012C01440045006E00800081006F005C
:1025C000B000B1007000900091007100A000A10067
:1025D000720020012101730020436F756E74205832
:1025E0003A0042656400453100626564002C207346
:1025F000797374656D2073746F7070656421204801
:1026000065617465725F49443A2000486561746988
:102610006E67204661696C65640048656174696E27
:1026200067206661696C6564004D31313220536802
:102630007574646F776E0000220A00556E6B6E6FC2
:10264000776E20636F6D6D616E643A2022002045C5
:102650003A00205A3A0020593A00205A3A200020E5
:10266000593A200042656420583A200050726F6247
:10267000696E67204661696C65640A00BFB1112408
:102680001FBECFEFD1E2DEBFCDBF00E00CBF13E035
:10269000A0E0B2E0EAE8FDE701E00BBF02C007906E
:1026A0000D92A234B107D9F72EE0A2E4B3E001C045
:1026B0001D92A531B207E1F713E1CFE3D3E100E0CA
:1026C00006C021970109802FFE010E946BBBCE330B
:1026D000D10780E00807A9F70E9440AB0C94C3BE65
:1026E0000C9400002F923F924F925F926F927F92D4
:1026F0008F929F92AF92BF92CF92DF92EF92FF9212
:102700000F931F93CF93DF93CDB7DEB7EF970FB63D
:10271000F894DEBF0FBECDBF20912A042DAB91E00F
:1027200090932A04809129048D3409F410C38435D0
:1027300011F40C940023873411F00C94252320917C
:102740002704309128042B31310509F484C09CF40E
:102750002430310534F422303105CCF537FF2BC05D
:10276000F2C22430310509F440C02531310511F49D
:102770000C942723E8C22A32310509F4BDC15CF468
:102780002D31310509F497C00CF485C02E31310587
:1027900009F4B0C0D8C22B35310509F42AC12C3553
:1027A000310509F42BC12A35310509F0CCC210924C
:1027B00026040C94272380912504813011F00C9479
:1027C00027230E94CE890E9486560C94272380914D
:1027D0002504813011F00C9427232230310509F0B3
:1027E00080E00E94C6790C94272380E50E94C86A85
:1027F000882329F00E94EEA16B017C0103C0C12C4B
:10280000D12C760183E50E94C86A882361F00E947A
:10281000436A20E030E04AE754E40E9447B70E9450
:10282000F9BC6B017C010E94A3620E94A44AC60EFF
:10283000D71EE81EF91E0E94A44ADC01CB018C19A8
:102840009D09AE09BF09B7FD02C00C94272380E0A3
:102850000E94B032F0CF87E00E94935581110C9412
:1028600027238CE0E3E6F2E0DE01119601900D9261
:102870008A95E1F780E50E94C86A882321F00E94CA
:102880000B6A862F01C080E0BE016F5F7F4F0E9400
:102890008F710C942723809124048770873011F066
:1028A0000C943A2360E08FE40E94F06A81110C944A
:1028B00027230C943A230E94A44A60932004709327
:1028C0002104809322049093230487E00E9493556F
:1028D00081110C9427238091360D882311F40C94D8
:1028E000372560E08FE40E94F06A81110C94272361
:1028F0000C9437252091030E3091040E4091050E63
:102900005091060E6091470D7091480D8091490DD0
:1029100090914A0D0E9486BBAB01BC0188E50E94E4
:102920003B7269837A838B839C832091070E30915D
:10293000080E4091090E50910A0E60914B0D709156
:102940004C0D80914D0D90914E0D0E9486BBAB01B8
:10295000BC0189E50E943B726D837E838F839887DB
:10296000BE016B5F7F4FCE0101960E945C68882399
:1029700011F40C94272380E00E94386F0E945E5966
:1029800061E085E40E94F06A182F21E0482FBE0123
:102990006B5F7F4FCE0101960E9460A96B017C01A5
:1029A0009B01AC010E9478BE811119C049815A81F6
:1029B0006B817C8184E696E20E9478324D815E8153
:1029C0006F8178858FE596E20E947832B701A60183
:1029D0008AE596E20E9478328AE00E9420300E94C6
:1029E0004559113011F40E94F6820E943A5B0C9412
:1029F00027238FE0809326040C9427235BE7252E62
:102A000052E0352E62E0E62E64E0F62EA7E4BDE04B
:102A1000BFA3AEA37BE3C72E7DE0D72E00E010E07E
:102A2000F10181911F010E94C86A882309F44AC0FC
:102A30000E94436A2B013C01133049F0D6012D91CD
:102A40003D914D915C910E9485BB2B013C01EEA113
:102A5000FFA12081318142815381C301B2010E94D3
:102A600085BB4B015C012DEB37E346E855EB0E943B
:102A7000E6BD87FD0AC02DEB37E346E855E3C50107
:102A8000B4010E94E1B61816ECF4133051F44092F0
:102A9000530D5092540D6092550D7092560D01E0F9
:102AA00011C0A5019401D7016D917D918D919C91EB
:102AB0000E9486BBF7016083718382839383812F99
:102AC0000E9460551F5FF4E0EF0EF11C2EA13FA1A4
:102AD0002C5F3F4F3FA32EA334E0C30ED11C143014
:102AE00009F09ECF002321F083E59DE00E94B462AF
:102AF0000E943A5B0C94272380912504813011F0C9
:102B00000C94272389E40E94C86AE82E882321F0C8
:102B10000E943F6A082F01C000E08AE40E94C86A50
:102B2000F82E882321F00E943F6A182F01C010E080
:102B3000EE2011F0053020F4FF2041F0153030F088
:102B400085E397E00E9432300C94272380E1E7E48C
:102B5000FDE0AFE0B4E001900D928A95E1F7EE2040
:102B600019F1602F000F770B880B990B0E94E8B6C4
:102B70002091F2033091F3034091F4035091F50357
:102B80000E9447B72091FA033091FB034091FC0368
:102B90005091FD030E9486BB60930F047093100454
:102BA0008093110490931204FF2019F1612F110FEB
:102BB000770B880B990B0E94E8B62091F6033091B1
:102BC000F7034091F8035091F9030E9447B7209111
:102BD000FE033091FF0340910004509101040E94D4
:102BE00086BB609313047093140480931504909330
:102BF000160460E080E50E94F06A8823C1F1EE20AF
:102C0000D1F02091030E3091040E4091050E5091A9
:102C1000060E60910F047091100480911104909140
:102C200012040E9485BB60930F047093100480937C
:102C3000110490931204FF20D1F02091070E3091DF
:102C4000080E4091090E50910A0E60911304709184
:102C5000140480911504909116040E9485BB609322
:102C6000130470931404809315049093160440E0A9
:102C700050E0BA0186E40E943B726B017C0120E0C7
:102C800030E0A9010E94E6BD18165CF420E030E0B7
:102C900040E752E4C701B6010E9480BC6B017C0191
:102CA00003C0C12CD12C760180905B0290905C0215
:102CB000A0905D02B0905E0220E030E0A901C70163
:102CC000B6010E94E1B6882341F0C0925B02D09227
:102CD0005C02E0925D02F0925E02009108021091A7
:102CE000090284E690E09093090280930802C09064
:102CF0002E02D0902F02E0903002F090310280E05E
:102D000090E0A0E8BFE380932E0290932F02A0935F
:102D10003002B09331020E94865680925B029092FC
:102D20005C02A0925D02B0925E02109309020093D1
:102D30000802C0922E02D0922F02E0923002F0924E
:102D400031020C9427230E9452A90C94272300914E
:102D50002704109128040D37110509F45DC40CF007
:102D600022C10836110509F4E7C20CF056C00B3435
:102D7000110509F4D5C20CF50231110509F400C59D
:102D800074F417FF02C00C94FD22023011050CF4FC
:102D9000D1C10131110509F400C20C94FD220B329E
:102DA000110509F4B5C20033110509F4B5C20F319C
:102DB000110511F00C94FD2204C20235110509F42D
:102DC000D1C4DCF40D34110509F4B2C20CF4ACC268
:102DD0000135110511F00C94FD220E943E940E94D1
:102DE000DB5C0E9413641092E60468EE73E080E0FE
:102DF00090E00E94052E0C9427230435110509F458
:102E0000BFC40CF4B6C40535110509F4EFC40C3584
:102E1000110509F40EC50C94FD220037110511F4BB
:102E20000C942723A4F40C36110511F40C942723D9
:102E30003CF40A36110509F4DAC20CF4C4C2FBC230
:102E40000E36110509F402C30CF496C212C30537FD
:102E5000110511F40C9427230CF08EC002371105D4
:102E600009F471C50CF450C30337110511F00C942B
:102E7000FD228CE296E00E94323060E08CE196E028
:102E80000E94EA7E60E087E096E00E94EA7E61E0D0
:102E900080E096E00E94EA7E61E085EF95E00E9486
:102EA000EA7E61E085EE95E00E94EA7E60E08CEDCE
:102EB00095E00E94EA7E61E082ED95E00E94EA7E64
:102EC00061E088EC95E00E94EA7E60E081EC95E0AC
:102ED0000E94EA7E61E089EB95E00E94EA7E61E073
:102EE0008BEA95E00E94EA7E60E08DE995E00E9421
:102EF000EA7E60E08EE895E00E94EA7E60E080E88D
:102F000095E00E94EA7E60E08AE695E00E94EA7E13
:102F100061E089E595E00E94EA7E60E08AE495E060
:102F20000E94EA7E60E083E495E00E94EA7E60E031
:102F30008EE295E00E94EA7E60E080E295E00E94E9
:102F4000EA7E61E08DE095E00E94EA7E60E080E04C
:102F500095E00E94EA7E61E08BEF94E00E94EA7EB9
:102F600061E08EEE94E00E94EA7E60E08AED94E0FB
:102F70000E94EA7E0C9427230737110509F426C521
:102F80000CF4E8C40837110509F423C50937110505
:102F900011F00C94FD2210921F0410920E040E9456
:102FA000445C0C9427230F3241E0140711F40C9475
:102FB00064210CF055C00D3C110509F4D5C5FCF495
:102FC000083C110509F40DC574F40B39110509F419
:102FD000FBC20E3B110509F4E2C20C38110511F0D9
:102FE0000C94FD22BBC20B3C110509F468C50CF022
:102FF00087C5093C110509F43BC50C94FD220D3D24
:10300000110509F4CAC69CF4033D110509F4D8C59D
:103010000C3D110509F49AC60E3C110511F00C94F3
:10302000FD2276EBE72E73E0F72E10E0B8C50232F2
:1030300081E0180709F49EC734F40831114009F4FF
:1030400002C70C94FD220D32B1E01B0711F40C9461
:103050002D200E32114011F40C9420210C94FD22ED
:10306000043FF1E01F0711F40C944F2294F502394C
:1030700031E0130711F40C94742184F4003951E009
:10308000150711F40C94672114F00C946A21003395
:10309000114011F40C94AD200C94FD22043AA1E0EF
:1030A0001A0711F40C947B213CF40A39114011F4F5
:1030B0000C9427230C94FD22053AF1E01F0711F42C
:1030C0000C947E210C3A114011F40C94F2210C94D2
:1030D000FD22083F31E0130711F40C945E226CF4DA
:1030E000063F51E0150711F40C94522214F00C9491
:1030F00055220E944F9D0C9427230B3592E019070F
:1031000011F40C946E224CF40835124011F00C941A
:10311000FD220E94A88A0C9427230335E3E01E07B2
:1031200011F40C94E722073E134011F40C94F122A1
:103130000C94FD2280E50E94C86A882329F00E9431
:10314000EEA16B017C0103C0C12CD12C760183E57B
:103150000E94C86A882361F00E94436A20E030E040
:103160004AE754E40E9447B70E94F9BC6B017C0116
:103170000E94A3620091F0031091F1030115110563
:1031800029F00E945830C8010E948F3240E0C701E8
:10319000B6010E949B360C9427238091EC0384FF98
:1031A00002C00C943A258091EE0387FF02C00C9474
:1031B0003A258091EF03837011F00C943A250C941A
:1031C00057250E94535C7B018C0120E831E541E0EA
:1031D00050E00E94E8BAC9016DE671E00E9457BB59
:1031E0004B015C01C801B70120E13EE040E050E046
:1031F0000E94E8BACA01B90128E130E040E050E09D
:103200000E94E8BA762E672EC62ED72E4CE3242EC7
:10321000312C412C512CC801B701A20191010E940F
:10322000E8BAF62EE72ECA01B901A20191010E9467
:10323000E8BACB018E010F5F1F4F8114910499F002
:10324000EF92FF927F936F936F927F92BF92AF92B4
:103250009F928F9284E197E09F938F931F930F9398
:103260000E94B2B613C0A114B104B1F0EF92FF9264
:103270007F936F936F927F92BF92AF9288E197E0B6
:103280009F938F931F930F930E94B2B60FB6F8943B
:10329000DEBF0FBECDBF30C0CD2879F0EF92FF92D8
:1032A0007F936F936F927F928CE197E09F938F93C0
:1032B0001F930F930E94B2B6E9CF892B69F0EF926A
:1032C000FF927F936F9380E297E09F938F931F937A
:1032D0000F930E94B2B6DACFEF92FF9284E297E0AA
:1032E0009F938F931F930F930E94B2B60F900F90EE
:1032F0000F900F900F900F900E945830B80188E205
:1033000097E00E9441308AE00E9420300C942723ED
:103310000E94E78B0C9427230E94137F0C94272391
:103320000E94A25C0C9427230E94C65C0C94272365
:103330000E94DB5C0C94272380916A0983FF02C002
:103340000C9427230E947F8A87FF02C00C942723B6
:1033500083E50E94C86A882359F00E94436A0E944C
:10336000F2BCCB010E94FA4A61E080E00E94A9B160
:103370000E946AB10C94272380916A0983FF02C0DE
:103380000C9427230E947F8A082F87FF02C00C9489
:10339000272383E50E94C86AF82E81110C946125C9
:1033A00082E50E94C86A81110C94612510E00E9498
:1033B0006AB1112311F40C9427236F2D802F0E94E2
:1033C000788F0C9427230E947F8A182F87FD0AC0CC
:1033D00089E793E00E943230812F0E94068F8AE0B5
:1033E0000E942030BDA9B0932A040C94222960E0E9
:1033F00080E50E94E46A81110C94272381E40E94F5
:103400007A6A882321F06091E604062F02C00FEF4C
:1034100010E083E50E94C86A882349F00E940B6A85
:103420008B016F3F710519F010F00FEF10E0009362
:10343000E6040C94272360E080E50E94E46A811191
:103440000C9427231092E6040C9427238EE40E9408
:10345000C86A882311F40C9427230E940B6A609396
:10346000E8037093E9038093EA039093EB030C94D1
:10347000272383E50E947A6A882331F060E083E5A0
:103480000E94E46A80936A090E9458308DE097E0B8
:103490000E94323080916A09882369F13CE6E32E6C
:1034A00037E0F32E00E010E020E080916A0990E020
:1034B000A0E0B0E0002E04C0B695A795979587953B
:1034C0000A94D2F780FF0EC0DD24D394D20E2223BB
:1034D00019F08CE20E942030F701859194910E94AE
:1034E00032302D2D0F5F1F4FE2E0EE0EF11C053044
:1034F0001105D9F604C089E097E00E9432308AE0D5
:103500000E9420300C94272383E50E94C86A8823F8
:1035100081F00E941B6A282F30E02D33310524F4FE
:10352000809307020C9427238CE3809307020C946A
:1035300027230E945830C0900702D12CE12CF12C97
:1035400082E097E00E9432304AE0C701B6010E9453
:10355000D9308AE00E9420300C94272380916A0998
:1035600083FF02C00C94272383E50E94C86A882346
:1035700011F40C9427230E94436A0E94F2BC6C3819
:1035800071050CF48B011093DA030093D9030E94A8
:10359000069461E080E00E94A9B10C9427238091F9
:1035A0006A0983FF02C00C94272383E50E94C86A3E
:1035B0008EAB81110C946F2582E50E94C86A81113F
:1035C0000C946F250C94272383E50E94C86A8823F6
:1035D00011F40C9427230E941B6A182F90E0CD97BA
:1035E0000CF01CE31093D0030E94A44A6B017C01F1
:1035F000212F30E0A8EEB3E00E943CBBC60ED71EE0
:10360000E81EF91EC092CC03D092CD03E092CE0307
:10361000F092CF030C9427238CE40E947A6A8823CB
:1036200081F00E94436A6B017C0120E030E0A90137
:103630000E94E6BD87FF0AC0F7FAF094F7F8F0940D
:1036400005C0C12CD12CE12C00E4F02EF7FAF09447
:10365000F7F8F094CAA2DBA2ECA2FDA28CE0EFE6A0
:10366000F2E0DE01119601900D928A95E1F788E56E
:103670000E94C86A8823A1F040E050E0BA0188E5C2
:103680000E943B7220913B0D30913C0D40913D0DCD
:1036900050913E0D0E9485BB69837A838B839C8306
:1036A00089E50E94C86A8823A1F040E050E0BA0191
:1036B00089E50E943B7220913B0D30913C0D409179
:1036C0003D0D50913E0D0E9485BB6D837E838F839F
:1036D00098878AE50E94C86A882351F040E050E04C
:1036E000BA018AE50E943B7269877A878B879C873B
:1036F0001E8A1F8A188E198E20E0AE014A5E5F4F27
:10370000BE016F5F7F4FCE0182960E94F26C8823CC
:1037100009F49DC760E080E00E947B6C8AA19BA1B8
:10372000ACA1BDA1B0588E8B9F8BA88FB98F1A8E7C
:103730001B8E1C8E1D8E1E8E1F8E18A219A28091AC
:10374000CB03882309F483C700E010E020E0AE013A
:103750004A5E5F4FBE01665E7F4FCE014E960E946D
:10376000056B75C7809126048F7D80618093260448
:103770006EC7809126048F7E80628093260467C77F
:1037800083E50E94C86A8823E9F00E94A44A6093F6
:1037900020047093210480932204909323040E94B8
:1037A000436A20E030E04AE754E40E9447B70E94B1
:1037B000F9BC609302027093030280930402909319
:1037C000050245C78091EC0384FF02C00C94D82603
:1037D0008091EE0387FF02C00C94D8268091EF03FE
:1037E000837011F00C94D8260C940A2783E50E946C
:1037F0007A6A882309F42BC70E94A44A60932004A4
:103800007093210480932204909323040E94436ABE
:1038100020E030E04AE754E40E9447B70E94F9BC38
:103820006093C7037093C8038093C9039093CA033E
:103830000EC70E947F8A87FD0AC79091EC0394FD12
:1038400004C09091EE0397FF0AC0BBE7CB2EB2E015
:10385000DB2E1BE6E12E19E0F12E10E009C090915D
:10386000EF03937091F7682F81E00E94AC8BEFC655
:10387000D6018D916D010E94C86A882309F459C050
:10388000133009F04FC00E94436A4B015C0120E0F5
:1038900030E040EA51E40E94E1B687FF3AC0A5015A
:1038A000940160918B0970918C0980918D099091A0
:1038B0008E090E9480BC2B013C019B01AC016091F0
:1038C0009B0970919C0980919D0990919E090E948D
:1038D00047B760939B0970939C0980939D099093CF
:1038E0009E096091DE047091DF048091E004909164
:1038F000E1040E94E6B6A30192010E9447B70E942C
:10390000F9BC6093DE047093DF048093E00490932D
:10391000E10480928B0990928C09A0928D09B0925B
:103920008E0907C00E94436AF701648B758B868BF2
:10393000978B1F5FF4E0EF0EF11C143009F098CF65
:103940000E947F6284C60E9470A88BEE9DE00E9458
:1039500072A77DC60091F0031091F10394E0F12C61
:1039600040E0915031F1D8018C91282F2B7F2134E8
:1039700029F411962C912133E1F408C08035C9F463
:10398000F801818180538A3048F013C0813421F0DE
:10399000853421F441E002C0FF24F39498012E5FA6
:1039A0003F4F89012F5F3F4FD8018C918032C9F37F
:1039B000D8CF41110E945830FF2021F086ED94E0CD
:1039C0000E943230C8010E948F3241C60E94E75BDC
:1039D0003EC681E080931F0480930E040E94445CE5
:1039E00036C60E947F8A182F87FD31C60091C60314
:1039F00084E40E94C86A882311F40C940D270E9465
:103A0000436A6B017C0120E030E0A9010E94E1B62D
:103A1000882341F1B4E01B02F0011124EE53FC4F66
:103A2000C082D182E282F38220E030E0A90160917D
:103A3000C2037091C3038091C4039091C5030E9497
:103A4000E1B681110CC080E090E0A0EEBFE380936E
:103A5000C2039093C303A093C403B093C50301E0D2
:103A60000C940D2780E08093C6030E948664EFC506
:103A70000E947F8A87FDEBC5FBE7EF2EF2E0FF2E69
:103A80000BE619E0ABE7CA2EA9E0DA2EF701819127
:103A90007F010E947A6A882361F00E94436A0E9433
:103AA000F9BCD8016D937D938D939C9313970E94DD
:103AB00038620C5F1F4FC016D10641F7C8C50E947F
:103AC0007F8A87FDC4C5EBE7EE2EE2E0FE2E0BE613
:103AD00019E0F70181917F010E947A6A882349F0F9
:103AE0000E94436AD80194966D937D938D939C9325
:103AF00097970C5F1F4FB9E00B371B0751F7A7C50E
:103B00008091ED0387FF02C00C9413278091EE0390
:103B10008E7011F00C94132740919F095091A009C9
:103B20006091A1097091A20986EC94E00E9478321C
:103B30004091A3095091A4096091A5097091A6092B
:103B400083EC94E00E9478324091A7095091A80933
:103B50006091A9097091AA0980EC94E00E947832E2
:103B60008AE00E94203073C58091EC0381FF02C07F
:103B70000C9459278091ED0381FF02C00C945927C2
:103B80008091EE038C7011F00C94592760C51F5F73
:103B9000F4E0EF0EF11C133011F40C94781588E565
:103BA000810F0E947A6A882391F30E94436AF70189
:103BB0006083718382839383812F0E946055E7CF56
:103BC00040903B0D50903C0D60903D0D70903E0D2F
:103BD00020910C0230910D0240910E0250910F0283
:103BE000C301B2010E9486BB6EA37FA388A799A7D9
:103BF00080903F0D9090400DA090410DB090420DEF
:103C00002091100230911102409112025091130242
:103C1000C501B4010E9486BB6AA77BA78CA79DA79C
:103C2000C090430DD090440DE090450DF090460DAE
:103C30002091140230911502409116025091170202
:103C4000C701B6010E9486BB6EA77FA788AB99AB60
:103C5000209118023091190240911A0250911B02D2
:103C6000C301B2010E9486BB2B013C0120911C02C2
:103C700030911D0240911E0250911F02C501B401F6
:103C80000E9486BB4B015C012091200230912102F1
:103C90004091220250912302C701B6010E9486BBC7
:103CA0006B017C010E94583081E994E00E9432301F
:103CB00083E50E947A6A882321F00E942F6A80930C
:103CC0000A0280910A02882319F08EE593E002C06F
:103CD00088E296E00E94323089E894E00E94323017
:103CE0004EA15FA168A579A58DE19EE00E94783282
:103CF0004AA55BA56CA57DA58EE794E00E9478326D
:103D00004EA55FA568A979A987E694E00E9478325C
:103D10008AE491E20E94323081E894E00E943230DD
:103D2000B301A2018DE19EE00E947832B501A401A9
:103D30008EE794E00E947832B701A60187E694E00E
:103D40000E9478328AE00E94203081C483E50E947C
:103D5000C86A882331F00E943F6A909309028093D9
:103D600008028091EC039091ED03A091EE03B091D5
:103D7000EF03892B8A2B8B2B09F069C46091080211
:103D8000709109028AE794E00E946F3185E20E94F7
:103D900020308AE00E9420305AC40E947F8AF82E88
:103DA00087FD55C483E50E94C86A0F2D0F2C000CB7
:103DB000110B882369F10E943F6AF801EE0FFF1F83
:103DC000E050FE4F91838083000F111F000F111FE1
:103DD0009801225D3D4F7901BC01990F880B990B29
:103DE0000E94E8B62AE037ED43E25CE30E9447B761
:103DF000F801EE54FC4F20813181428153810E94B1
:103E000047B7D7016D937D938D939C9313971FC4F0
:103E10000E94583085E40E94203080E38F0D0E947C
:103E20002030000F111FF801E050FE4F60817181BA
:103E300082E794E00E946F3185E20E9420308AE0A0
:103E40000E94203004C480E50E947A6A882309F425
:103E5000FEC30E943F6A8C01892B09F07FC083E575
:103E60000E947A6A882389F00E943F6A8F3FBFEFE1
:103E70009B0729F48FEC9DE00E946A2EE8C3BC01E9
:103E80008FEC9DE00E94D62EE2C30E94583060E085
:103E900070E08AE694E00E946F318091D10D28E5B0
:103EA00032E06901C81AD10887FDD394CC0CDD1C1F
:103EB000CC0CDD1C0D2C000CEE08FF088091D00D01
:103EC00028E830E04901881A910887FD9394880C0E
:103ED000991C880C991C092C000CAA08BB0880911D
:103EE000CF0D8F3FC1F090E0FC01EE0FFF1F8E0F52
:103EF0009F1FFC01EA57F24F2181328183E0220F9C
:103F0000331F8A95E1F794E0369527959A95E1F766
:103F10002E5F3F4F02C020E030E02F5F3F4FC901CE
:103F2000330FAA0BBB0B9C01AD01281939094A09B3
:103F30005B09A4EBB0E00E9429BBA70196012819F8
:103F400039094A095B090E940ABBB90187E59FE16B
:103F50000E946F318AE00E94203079C30E94543061
:103F6000B8018BE694E00E946F318FE397E00E94E6
:103F700032306DC38AE50E94C86A811106C083E5AC
:103F80000E94C86A882309F44DC00E94436A20E059
:103F900030E040E050EC0E94E1B687FF02C00C9494
:103FA000B9270E94436A20E030E040E050E40E94DC
:103FB000E6BD181614F40C94B2270E94436A6B01F4
:103FC0007C0184E00E948055811122C020918709E4
:103FD000309188094091890950918A09C701B60139
:103FE0000E9447B70E94F2BC20912B0430912C0410
:103FF000260F371F30932C0420932B042091B003FD
:104000003091B103620F731F7093B1036093B003DB
:1040100080E50E947A6A882309F4B2C70E942F6A59
:104020008111AEC78091EE0387FDD0C78091EF0369
:10403000837009F0CBC70E94583040910B0E50910D
:104040000C0E60910D0E70910E0E8BE594E00E94A7
:1040500078328AE00E942030FAC260E085E40E9453
:10406000E46A811173C080E50E947A6A882351F066
:104070000E94436A6093680D7093690D80936A0D86
:1040800090936B0D89E40E947A6A882381F00E94E4
:10409000436A2CEA35EC47E25EE30E9447B760933F
:1040A0006C0D70936D0D80936E0D90936F0D84E485
:1040B0000E947A6A882381F00E94436A2CEA35ECD8
:1040C00047E25EE30E9480BC6093700D7093710DB7
:1040D0008093720D9093730D0E9458304091680D3B
:1040E0005091690D60916A0D70916B0D85E494E0BB
:1040F0000E9478322CEA35EC47E25EE360916C0D69
:1041000070916D0D80916E0D90916F0D0E9480BC2D
:10411000AB01BC0181E494E00E9478322CEA35ECDA
:1041200047E25EE36091700D7091710D8091720DA8
:104130009091730D0E9447B7AB01BC018DE394E0F1
:104140000E9478328AE00E94203081C20E9454305E
:1041500089E494E00E9432307AC280E50E947A6A53
:10416000882351F00E94436A6093DC037093DD035F
:104170008093DE039093DF0389E40E947A6A8823A8
:1041800081F00E94436A2CEA35EC47E25EE30E942C
:1041900047B76093E0037093E1038093E203909349
:1041A000E30384E40E947A6A882381F00E94436AD0
:1041B0002CEA35EC47E25EE30E9480BC6093E403A6
:1041C0007093E5038093E6039093E7030E945830D1
:1041D0004091DC035091DD036091DE037091DF03B9
:1041E00085E494E00E9478322CEA35EC47E25EE305
:1041F0006091E0037091E1038091E2039091E30309
:104200000E9480BCAB01BC0181E494E00E94783242
:104210002CEA35EC47E25EE36091E4037091E5033C
:104220008091E6039091E7030E9447B7AB01BC0180
:104230008DE394E00E9478328AE00E94203007C229
:1042400083E50E947A6A182F882371F00E94436ADE
:104250000E94F2BC709333026093320221E0672B1C
:1042600009F020E02093F70480E50E947A6A882311
:1042700059F02091320230913302232B11F00E9429
:104280002F6A8093F704E3C11111E1C10E945830F5
:104290008AE294E00E9432308091F704882319F07A
:1042A00081EF96E102C081E194E00E94323060919A
:1042B00032027091330289E194E00E946F3185E10E
:1042C00094E00E943230C3C10E945272C0C10E9469
:1042D000A362BDC18091020E81110C94781581E01A
:1042E0000E947F610C9478150E940A7F0E94F682DA
:1042F0000E943A5BACC10E946C6FA9C16FEF7FEF67
:1043000089E40E94D56A082F6FEF7FEF8AE40E944C
:10431000D56A182F8AE50E94C86A811108C081E514
:104320000E94C86AD82E882309F456C601C0D12C31
:10433000C02E81E0800F863008F04DC0912E81E0C4
:10434000810F863008F047C00E94436A2B013C0170
:10435000F02E07FDF12C07FF02C0A4E0CA2E812E2B
:1043600017FD812C17FF02C0F4E09F2EE5E03E2EE2
:10437000CF1408F46CC1E82C3F9C500111249E140A
:1043800040F10E2D10E0DD2071F0F501E00FF11F7E
:10439000EE0FFF1FEE0FFF1FE45BFC4F208131810A
:1043A0004281538103C020E030E0A9010A0D1B1DAA
:1043B000000F111F000F111F045B1C4FC301B2013E
:1043C0000E9486BBF8016083718382839383E394A8
:1043D000D6CFF394CDCF0E94543085E397E00E946E
:1043E000323035C187E00E949355811130C100E61B
:1043F00017E027E43DE03FA32EA3AE014F5F5F4FE0
:104400001A014EE8C42E47E0D42E7101C8010E9463
:10441000047FAEA1BFA18D909D90AD90BD90BFA334
:10442000AEA3A50194010E9485BB2B013C01F701BD
:10443000608371838283938320E030E040EA51EC13
:104440000E94E6BD87FD0AC020E030E040EA51E46A
:10445000C301B2010E94E1B618162CF4F601849152
:1044600018160CF4C0C5D7018D909D90AD90BD90ED
:104470007D0120E030E040EA51ECC501B4010E942A
:10448000E6BD87FDE0C520E030E040EA51E4C5012B
:10449000B4010E94E1B618160CF0B0C5D4C50E9454
:1044A000295DD5C00E94D995D2C061E083E50E9404
:1044B000F06A91E089270E944752C9C090934B034C
:1044C0000E94209710924B03882309F4C0C00E94D9
:1044D000583088EC93E00E943230B9C00E947F8A45
:1044E000082F87FDB4C085E50E947A6A8823B1F160
:1044F000E02E002E000CFF080E94436A4B015C0175
:1045000020E030E0A9010E94E6BD87FF04C0B7FAB1
:10451000B094B7F8B094C70123E0880F991F2A958B
:10452000E1F79C012D5B3C4F7901D9018D929D9261
:10453000AD92BC92139720E030E048E453E4C5010B
:10454000B4010E94E6BD18164CF480E090E0A8E4A7
:10455000B3E4F70180839183A283B3838CE40E9448
:104560007A6A882309F473C0002E000C110B0E9494
:10457000436A6B017C0120E030E0A9010E94E6BDA6
:1045800087FF04C0F7FAF094F7F8F09420E030E0E9
:1045900048E453E4C701B6010E94E6BD980193E0E8
:1045A000220F331F9A95E1F7F901ED5BFC4F1816C6
:1045B0002CF0C482D582E682F78249C080E090E088
:1045C000A8E4B3E484839583A683B78340C0809135
:1045D000EE0387FD3FC58091EF03837009F03AC574
:1045E00009C681E08093250460E083E50E94F06ABB
:1045F00081112DC00E94FB772AC00E9452A927C0BA
:1046000000912704109128040E94A44A609320047A
:104610007093210480932204909323040023B9F023
:104620000E94583084E50E942030B8017727072E79
:10463000000C880B990B0E94533180E20E942030BD
:1046400089E494E00E94323002C00E9452A9E091B5
:104650004203F0E0E550F24F8081882339F089E78A
:1046600093E00E9432308AE00E942030FDA9F0934E
:104670002A04E8C50E94A36210920B022091360D15
:104680002AAB80E00E94386F0E94A44A6093200405
:104690007093210480932204909323040E945E5916
:1046A00081E080931F040E94445C8AE50E947A6A3C
:1046B000F82E882399F081E00E948055182F82E01F
:1046C0000E94805501E0811101C000E0111108C075
:1046D00088E50E947A6A811103C0BAC100E0F8CF70
:1046E000102F002309F4ACC1F112B7C111E001E0B1
:1046F00031E03EA782E50E94C86A882319F00E9433
:10470000436A04C060E070E080EA90E46E8F7F8FBF
:1047100088A399A320E030E0A9010E94E1B6882394
:1047200069F0011106C0111104C04EA5442309F41B
:1047300079C160E0CE014E960E940E48002309F434
:10474000CFC0112309F4C9C01092470D1092480D33
:104750001092490D10924A0D10924B0D10924C0D73
:1047600010924D0D10924E0D0E94385BEEE8F7E06E
:1047700054915BAB82E897E00E94047F6B017C015F
:1047800086E897E00E94047F4B015C019B01AC012D
:10479000C701B6010E94E6BD18162CF4A7019601C8
:1047A000C501B40104C0A5019401C701B6010E946E
:1047B00080BC2B013C01EAE7F7E085919591A5913A
:1047C000B4918EA39FA3A8A7B9A7E6E7F7E0259128
:1047D0003591459154912AA73BA74CA75DA7BC01F1
:1047E000CD010E94E6BD181634F42AA43BA40CA502
:1047F0003DA53EA305C02EA03FA008A549A54EA3F8
:10480000A3019201C301B2010E9447B720E030E04A
:1048100040E85FE30E9486BB0E9434BE9101402FB6
:104820005EA10E9447B76A8F7B8F8C8F9D8FEFE8C8
:10483000F7E0049120E030E040EC5FE3C501B40113
:104840000E9447B74B015C01602F000F770B880B6C
:10485000990B0E94E8B69B01AC01C501B4010E940E
:1048600047B769837A838B839C8320E030E040ECF8
:104870005FE3C701B6010E9447B76B017C015BA9EA
:10488000652F550F770B880B990B0E94E8B69B019B
:10489000AC01C701B6010E9447B76E8B7F8B888F32
:1048A000998FAE01465E5F4FBE016F5F7F4FCE01B5
:1048B00046960E943E5A0E944DAF1092470D1092AC
:1048C000480D1092490D10924A0D10924B0D109206
:1048D0004C0D10924D0D10924E0D80E00E9416B0BE
:1048E000112319F081E00E9416B08EA5882309F4E7
:1048F00099C080E00E94BD6E83E00E9493558111B3
:1049000091C00E94385B40904F0D5090500D6090C8
:10491000510D7090520D2091030E3091040E409174
:10492000050E5091060E60E070E086E193E40E946F
:1049300085BB6B017C0160930F047093100480931E
:104940001104909312042091070E3091080E4091AB
:10495000090E50910A0E60E070E086E193E40E9437
:1049600085BB4B015C016093130470931404809326
:1049700015049093160420910B0E30910C0E40916B
:104980000D0E50910E0EC301B2010E9485BB6093C3
:104990001704709318048093190490931A0427E164
:1049A00037EB41ED58EBC501B4010E94E6BD87FD30
:1049B00057C023E030E046E953E4C501B4010E944A
:1049C000E1B618160CF44CC027E137EB41ED58EB7B
:1049D000C701B6010E94E6BD87FD42C023E030E07A
:1049E00046E953E4C701B6010E94E1B61816C4F1C6
:1049F0001E8A1F8A188E198E88E0EFE0F4E0DE012F
:104A0000119601900D928A95E1F7AE014A5E5F4FD3
:104A1000BE016B5F7F4FCE0101960E943E5A82E03D
:104A20000E9416B00E94385B80910E0480931F0490
:104A30008AA90E94386F0E9445590E943A5B07CEAE
:104A400001E089E50E947A6A182F081307C04CCE4E
:104A50000023B9F3102F00E001C0012FFEA64ACEBB
:104A60000E9458308EE497E00E943230DBCF0E94E3
:104A70001083EDCD88E50E947A6A81115F9889E5FF
:104A80000E947A6A81118A988AE50E947A6A88234C
:104A900031F080910801817080930601479885E488
:104AA0000E947A6A882309F4D2CD1298D0CD5F98FB
:104AB0008A98809108018170809306014798129826
:104AC000C6CD0E94436A0E94F2BCCB010E94FA4A02
:104AD00061E081E00E94A9B111E00C94D7190E9415
:104AE000436A0E94F2BC6C3871050CF05EC1709391
:104AF000DA036093D9030E94069460E081E00E948B
:104B0000A9B181E0809306021AA61BA61CA61DA6C9
:104B10001FAA18AE19AE1AAE1CAEFCE3FDAF2CE115
:104B20002EAF36E43FAFC12CD12C90E8E92E2FEB0D
:104B3000F22E1EA241E04BAF812C912C54016091CA
:104B4000D9037091DA03072E000C880B990B0E9491
:104B5000E8B6162F072F782E692E9601A7010E941E
:104B6000E1B6882321F12091D5033091D6034091FD
:104B7000D7035091D8038EA9612F702F811109C0DE
:104B8000872D962D0E94E1B6881F8827881F8EA347
:104B900014C0872D962D0E94E1B687FF0DC080912D
:104BA0000602882309F453CD1092060250CD1C2D25
:104BB0000D2D7E2C6F2C01C01EA20E94A44A6B01F9
:104BC0007C01DC01CB012FA938AD49AD5AAD821B68
:104BD000930BA40BB50BB7FD33C0D701C6018851A9
:104BE0009C4FAF4FBF4F8FAB98AFA9AFBAAF80E02C
:104BF0000E94068F8FE493E00E943230811491046A
:104C0000A104B104B9F0D501C401805F984DAF4F44
:104C1000BF4FBC01CD016C197D098E099F0928EE9B
:104C200033E040E050E00E94E8BACA01B9010E94B6
:104C3000533103C08FE30E9420308AE00E9420306D
:104C400080E00E94B0320E94A44A609320047093D6
:104C5000210480932204909323049091D5039EA76E
:104C6000A091D603AAABB091D703BBABE091D80318
:104C7000ECAB292F3A2F4B2F5E2F612F702F872DF2
:104C8000962D0E9485BB1B012C0120E030E0A9017C
:104C90000E94E6BD87FF04C057FA509457F850941D
:104CA00081149104A104B104E1F420E030E040E873
:104CB0005FE3C201B1010E94E1B687FF1EC0FBADF8
:104CC000FF2339F085E0882E8DE0982EA12CB12CA1
:104CD00003C0812C912C54018C0C9D1CAE1CBF1C5C
:104CE0000CC020E030E040E450E4C201B1010E9479
:104CF000E6BD181614F4460157012EA12223C1F176
:104D00008AA59BA5ACA5BDA5892B8A2B8B2B61F011
:104D1000D701C6012AA53BA54CA55DA5821B930B17
:104D2000A40BB50BB7FD24C02EA53AA94BA95CA9CD
:104D30006CAD7DAD8EAD9FAD0E9485BB20E030E0B7
:104D400040E85FE30E94E1B687FD29CFD701C601A5
:104D5000805A9541AF4FBF4F8AA79BA7ACA7BDA76D
:104D60009EA59CAFAAA9ADAFBBA9BEAFECA9EFAF02
:104D700080910602882309F412CF81149104A104C2
:104D8000B10431F41BAEC12ED02EE72CF62CD7CEB9
:104D9000F0E1CF1AF7E2DF0AE108F108C818D908F4
:104DA000EA08FB08F7FCEECFFACE6CE870E09FCE85
:104DB0000E94A36288E50E947A6A882331F05F9A94
:104DC0008091010E8E7F8093010E89E50E947A6AA0
:104DD000882331F08A9A8091010E8D7F8093010E95
:104DE0008AE50E947A6A882361F0809108018095A3
:104DF000817080930601479A8091010E8B7F80938A
:104E0000010E85E40E947A6A882309F420CC0E946E
:104E1000292E1DCC0E9413641ACC602F83E50E94BA
:104E2000F06A0C94331D83E50E94C86A882391F0D0
:104E30000E94436A60939F097093A0098093A1091F
:104E40009093A2096093A7097093A8098093A90978
:104E50009093AA0980E50E94C86A882351F00E94B5
:104E6000436A60939F097093A0098093A10990936E
:104E7000A20982E50E94C86A882351F00E94436A11
:104E80006093A3097093A4098093A5099093A60940
:104E900084E50E94C86A882309F4D9CB0E94436A3A
:104EA0006093A7097093A8098093A9099093AA0910
:104EB000CECB82E40E947A6A882351F00E94EEA150
:104EC00060937B0970937C0980937D0990937E09A0
:104ED00083E50E947A6A882351F00E94436A6093B6
:104EE000AB097093AC098093AD099093AE0984E54A
:104EF0000E947A6A882351F00E94436A6093AF0946
:104F00007093B0098093B1099093B2098AE40E942A
:104F10007A6A882309F49BCB0E94436A6B017C0167
:104F20002AE037ED43E25CE30E94E6BD87FD13C053
:104F30002AE939E949E95EE3C701B6010E94E1B611
:104F400018164CF0C092CE04D092CF04E092D00458
:104F5000F092D1047CCB0E94543081EA94E00E940C
:104F6000323075CBC12CD12CE12C10E4F12E0C94F5
:104F7000E11FC12CD12CE12CB0ECFB2E0C94E11FD5
:104F8000A701960160910B0E70910C0E80910D0E91
:104F900090910E0E0E9486BB60930B0E70930C0EC8
:104FA00080930D0E90930E0E0E94583040910B0E80
:104FB00050910C0E60910D0E70910E0E8BE594E0E9
:104FC0000E9478328AE00E9420302CC882E50E943C
:104FD0007A6A811130C83BCB0E94543081EF93E054
:104FE0000E94323034CBB7FAB094B7F8B094D701FE
:104FF0008D929D92AD92BC92139735CA0C5F1F4F54
:10500000BFEFCB1ADB0AECE6F7E0E017F10709F097
:10501000FDC936EBE32E33E0F32E10E0F101819170
:105020009191A191B1911F01F70181939193A19366
:10503000B1937F01812F0E9460551F5F133071F77C
:105040000E943A5B04CB0E94543083ED93E00E94AF
:105050003230FDCAF091030EFEA38090040E7090D2
:10506000050E6090060E5090070E4090080E30908E
:10507000090E20900A0EC0900B0ED0900C0EE090FE
:105080000D0EF0900E0E88E50E94C86A882361F12B
:105090000E94436A5B018C0120E030E046E953EC5A
:1050A0000E94E6BD87FD0AC020E030E046E953E4F7
:1050B000B501C8010E94E1B6181694F46CE271E0E3
:1050C00086EA93E00E946F316CE271E081EA93E03E
:1050D0000E946F318BE194E20E94323010E005C0F3
:1050E000AEA28B2C702E612E11E089E50E94C86A59
:1050F000882381F10E94436A962EA72EB82E092F8D
:1051000020E030E046E953EC0E94E6BD87FD0CC08C
:1051100020E030E046E953E4692D7A2D8B2D902F65
:105120000E94E1B6181694F46CE271E08EE893E008
:105130000E946F316CE271E081EA93E00E946F316E
:105140008BE194E20E94323010E004C0592C4A2CCA
:105150003B2C202E8AE50E94C86A882339F10E94E0
:10516000436A6B017C0120E030E040EA51EC0E9490
:10517000E6BD87FD0AC020E030E040EA51E4C70107
:10518000B6010E94E1B618168CF46CEE7FEF8CE746
:1051900093E00E946F3164E170E081EA93E00E9445
:1051A0006F318BE194E20E94323051CA112309F42D
:1051B0004ECA8EA1982DA72DB62D8093030E9093E5
:1051C000040EA093050EB093060E852D942DA32DED
:1051D000B22D8093070E9093080EA093090EB09302
:1051E0000A0EC0920B0ED0920C0EE0920D0EF092B1
:1051F0000E0E2DCA4091030E5091040E6091050EC3
:105200007091060E89EB93E00E9478324091070E70
:105210005091080E6091090E70910A0E8EE794E08D
:105220000E94783240910B0E50910C0E60910D0E41
:1052300070910E0E87E694E00E9478328AE00E9418
:10524000203005CAEF960FB6F894DEBF0FBECDBF73
:10525000DF91CF911F910F91FF90EF90DF90CF9052
:10526000BF90AF909F908F907F906F905F904F9086
:105270003F902F900895CF92DF92EF92FF920F937D
:105280001F93CF93DF936C018B017A01EC01CF5C0C
:10529000DB4F888187FF04C0FB011182108224C08C
:1052A0002CE02C9DC0012D9D900D11242881AC0176
:1052B000420F511D27FD5A952091CE0D30E0421727
:1052C000530794F42881AC01420F511D27FD5A95D4
:1052D0009A01FA01EE0FFF1F2E0F3F1FF901EA5747
:1052E000F24F208127FD19C088818F5F88832CE0D1
:1052F0002C9DC0012D9D900D11242881AC01420FE1
:10530000511D27FD5A952091CE0D30E042175307CD
:10531000BCF428812C3044F113C02881820F911DE8
:1053200027FD9A95FC01EE0FFF1F8E0F9F1FFC01BA
:10533000EA57F24F808160E08F770E941749D4CFFF
:10534000F80180819181049680349C4918F480E4AE
:105350009CE904C0F801808191810496F701918352
:1053600080838FEF888345C0F80140815181288177
:10537000BC01620F711D27FD7A959B01FB01EE0FA9
:10538000FF1F2E0F3F1FF901EA57F24F2181328193
:10539000240F351FF701318320832881AC01420F90
:1053A000511D27FD5A959A01FA01EE0FFF1F2E0F8E
:1053B0003F1FF901EA57F24F208127FF1AC02881C9
:1053C000820F911D27FD9A95FC01EE0FFF1F8E0F96
:1053D0009F1FFC01EA57F24F808161E08F77DF91D8
:1053E000CF911F910F91FF90EF90DF90CF900C9491
:1053F0001749DF91CF911F910F91FF90EF90DF90B0
:10540000CF9008954F925F926F927F928F929F926A
:10541000AF92BF92CF92DF92EF92FF920F931F93C2
:10542000CF93DF93EC012091FA033091FB0340917D
:10543000FC035091FD03688179818A819B810E94E0
:1054400085BB6B017C012091FE033091FF034091ED
:105450000004509101046C817D818E819F810E94A6
:1054600085BB4B015C01A7019601609126027091FA
:10547000270280912802909129020E94E1B6882398
:1054800009F467C0C0922602D0922702E092280257
:10549000F09229022091C6043091C7044091C804BB
:1054A0005091C904C701B6010E9447B72B013C01C6
:1054B0000E9428BD6B017C0120E030E0A9010E9420
:1054C000E1B687FD11C020E030E040E850E4C701BC
:1054D000B6010E94E6BD181654F4C12CD12CC0E8C8
:1054E000EC2EC0E4FC2E03C0C12CD12C7601A70108
:1054F0009601C301B2010E9485BB2B013C0120E053
:1055000030E0A9010E94E1B687FD09C04092BE04C7
:105510005092BF046092C0047092C10408C01092FF
:10552000BE041092BF041092C0041092C104C701BF
:10553000B6010E94F2BC6093BC04062E000C770BEF
:105540006F5F7F4F6430710514F064E070E060932A
:10555000BA04A501940160912A0270912B028091F6
:105560002C0290912D020E94E1B6D091240210915C
:10557000BC04811103C0D11368C0B9C080922A0253
:1055800090922B02A0922C02B0922D022091CA047C
:105590003091CB044091CC045091CD04C501B401AD
:1055A0000E9447B74B015C010E9428BD6B017C0142
:1055B00020E030E0A9010E94E1B687FD11C020E0A3
:1055C00030E040E850E4C701B6010E94E6BD18167D
:1055D00054F4C12CD12CB0E8EB2EB0E4FB2E03C068
:1055E000C12CD12C7601A7019601C501B4010E94FE
:1055F00085BB4B015C0120E030E0A9010E94E1B6CF
:1056000087FD09C08092C2049092C304A092C40492
:10561000B092C50408C01092C2041092C304109244
:10562000C4041092C504C701B6010E94F2BC609385
:10563000BD04062E000C770B6F5F7F4F6430710541
:1056400014F064E070E06093BB04C091BD04D1131A
:105650007BC0809125028C1377C08090C20490900B
:10566000C304A090C404B090C5042091B20430914A
:10567000B3044091B4045091B504C501B4010E9433
:1056800047B72091B6043091B7044091B8045091C7
:10569000B9040E9486BB6B017C016093A6047093E1
:1056A000A7048093A8049093A9042091AA043091A0
:1056B000AB044091AC045091AD04C501B4010E940B
:1056C00047B72091AE043091AF044091B00450919F
:1056D000B1040E9486BBA70196010E9485BB60931E
:1056E000A2047093A3048093A4049093A504209132
:1056F000A2043091A3044091A4045091A5046091A8
:10570000BE047091BF048091C0049091C1040E94B6
:1057100047B72091A6043091A7044091A804509166
:10572000A9040E9486BBDF91CF911F910F91FF903A
:10573000EF90DF90CF90BF90AF909F908F907F9031
:105740006F905F904F9008958091BC049091BD043C
:1057500090932502809324020C2E000CDD0B85E033
:10576000F82E2F2D1203C0011124FC01EC0FFD1F98
:10577000EE0FFF1FEE0FFF1FE45BFC4F2081318116
:10578000428153812093B6043093B7044093B80408
:105790005093B9040091BB04002E000C110BFC01C6
:1057A000E00FF11FEE0FFF1FEE0FFF1FE45BFC4F3A
:1057B00060817181828193810E9485BB6093B20474
:1057C0007093B3048093B4049093B5042091BA0409
:1057D0003F2D2303F0011124CE0FDF1FCC0FDD1F5F
:1057E000CC0FDD1FC45BDC4F288139814A815B818E
:1057F0002093AE043093AF044093B0045093B104AF
:10580000E00FF11FEE0FFF1FEE0FFF1FE45BFC4FD9
:1058100060817181828193810E9485BB6093AA041B
:105820007093AB048093AC049093AD0416CF8F9229
:105830009F92AF92BF92CF92DF92EF92FF92C09071
:10584000F203D090F303E090F403F090F50320E02E
:1058500030E0A901C701B6010E94E1B6882359F0E2
:10586000A701960160E070E080E89FE30E9480BCA1
:105870006B017C0103C0C12CD12C76018090F60312
:105880009090F703A090F803B090F90320E030E087
:10589000A901C501B4010E94E1B6882349F0A50120
:1058A000940160E070E080E89FE30E9480BC03C048
:1058B00060E070E0CB01C092C604D092C704E092D1
:1058C000C804F092C9046093CA047093CB04809317
:1058D000CC049093CD04FF90EF90DF90CF90BF90D9
:1058E000AF909F908F9008952F923F924F925F922A
:1058F0006F927F928F929F92AF92BF92CF92DF92E0
:10590000EF92FF920F931F93CF93DF93CDB7DEB744
:105910002E970FB6F894DEBF0FBECDBFF82EE62E41
:10592000042FA22E282F30E03C872B87462F50E0F3
:105930005A87498715E0129FC001139F900D1124CB
:105940009E878D87FA01E80FF91FEE0FFF1FEE0FFC
:10595000FF1FE45BFC4F60817181828193819B0119
:10596000AC010E9478BE882309F436C1F00E6E2D7A
:105970006A0D1F9D40011124E985FA85E80DF91D86
:10598000EE0FFF1FEE0FFF1FE45BFC4FB080C180E6
:10599000D280E380F00E1F9DA0011124E985FA85D5
:1059A000E40FF51FEE0FFF1FEE0FFF1FE45BFC4F30
:1059B000F080018112817380E62FF0E0AD85BE8515
:1059C000AE0FBF1FAA0FBB1FAA0FBB1FA45BBC4F0C
:1059D0006C9011965C90119712964C9012971396BA
:1059E0003C906A0D70E0AD85BE85A60FB71FAA0F6B
:1059F000BB1FAA0FBB1FA45BBC4FBE87AD872C90FB
:105A00001196AC9011971296BC91B983AD85BE8565
:105A10001396BC91BA83E80DF91DEE0FFF1FEE0F30
:105A2000FF1FE45BFC4F9080818022812B833381B8
:105A30003C83FA01E60FF71FEE0FFF1FEE0FFF1F6B
:105A4000E45BFC4F40814D8351815E8382818F8373
:105A5000938198872F2D302F412F572D6F2D702F29
:105A6000812F972D0E9478BE882321F0F12C00E031
:105A700010E0712C2B2D3C2D4D2D5E2D6B2D7C2D92
:105A80008D2D9E2D0E9478BE882319F0BF2C6801B1
:105A9000E72C222D3A2D49815A81622D7A2D898158
:105AA0009A810E9478BE882321F0212CA12C198292
:105AB0001A82262D352D442D532D662D752D842DBE
:105AC000932D0E9478BE882321F0622C5A2C4980A5
:105AD0003A802D813E814F8158856D817E818F81F5
