:100000000C945F130C9490130C9490130C94901315
:100010000C9490130C9490130C9490130C949013D4
:100020000C9490130C9490130C9490130C949013C4
:100030000C9490130C9490130C9490130C949013B4
:100040000C9490130C94B74A0C9490130C94901346
:100050000C9490130C9490130C9478990C94A539EB
:100060000C9490130C9490360C9486360C94901348
:100070000C9490130C9490130C9490130C94901374
:100080000C949F2F0C9490130C9490130C94901339
:100090000C9490130C9490130C9490130C94901354
:1000A0000C9490130C9490130C94712F0C94901347
:1000B0000C9490130C9490130C9490130C94901334
:1000C0000C9490130C9490130C9490130C94901324
:1000D0000C9490130C9490130C9490130C94901314
:1000E0000C949013C336D336E436EF36F7360E371A
:1000F000FB360E37FF3603370E370937833786371F
:10010000753779377F37BD378A378E3794379837C9
:100110009C37A237A637AA37BD37B037B437B837C0
:10012000A038A538AA38B438BE383739C838D038DE
:10013000D838E238EC38F63805390F3937391939FB
:1001400023392D39CD87EF870F8834885988108A55
:100150007E88A188C488E9880E89338958897D8979
:10016000108AA289C789EC89858B888B8C8B8F8BB1
:10017000928BBC8B968B998B9D8BA08BA38BA78B23
:10018000AA8BAD8BBC8BB18BB48BB78B084AD73B9A
:100190003BCE016E84BCBFFDC12F3D6C74319ABD56
:1001A00056833DDA3D00C77F11BED9E4BB4C3E917A
:1001B0006BAAAABE000000803F05A84CCDB2D44E69
:1001C000B93836A9020C50B9918688083CA6AAAA6B
:1001D0002ABE000000803F000C9423390C94AA8BA7
:1001E0000C94C3360C94BE380C940E370C94A08B30
:1001F0000C94108A0C9433890C9475370C940F88E6
:100200000C94FB360C94D3360C94EC890C94033785
:100210000C94B18B0C9419390C94C8380C94998BAC
:100220000C94AD8B0C94888B0C94EC380C94983710
:100230000C940E890C94B4370C94EF870C94AA3765
:100240000C942D390C9409370C94AA380C94A38B78
:100250000C9486370C94A1880C947E880C947F377C
:100260000C94BC8B0C94B4380C94B48B0C942BB3BE
:100270000C94BD370C9459880C94F6380C94A23722
:100280000C948E370C94D0380C94B0370C94C488EE
:100290000C9458890C940F390C94A0380C94B837EE
:1002A0000C94858B0C94968B0C94FF360C947937B8
:1002B0000C9434880C949C370C9405390C94D838E1
:1002C0000C94B78B0C94A2890C94EF360C94A6373F
:1002D0000C94A5380C94E2380C9437390C949D8B0F
:1002E0000C948F8B0C94928B0C94C7890C94E98896
:1002F0000C948C8B0C94F7360C94CD870C947D89E0
:100300000C94A78B0C948A370C9483370C949437F5
:100310000C94E4364E414E494E495459494E46CD0F
:10032000CCCC3D0AD7233C17B7D13877CC2B3295AC
:1003300095E6241FB14F0A000020410000C842008A
:10034000401C4620BCBE4CCA1B0E5AAEC59D742034
:10035000573A00434F4D4D554E49434154494F4E36
:100360000044525952554E004552524F5253004983
:100370004E464F004543484F006F6B003F5A206F79
:100380007574206F662072616E67652028003F5982
:10039000206F7574206F662072616E676520282D4E
:1003A0000020746F20003F58206F7574206F662006
:1003B00072616E676520282D0050726F6265204F54
:1003C0006666736574205800454550524F4D204F66
:1003D0004B0A00546F6F206661722066726F6D2049
:1003E0007265666572656E636520706F696E740A0A
:1003F000004D34323120696E636F72726563742010
:10040000706172616D657465722075736167650AEC
:10041000006469730043290A0061626C65642028E6
:100420006D696E2074656D702000436F6C6420658B
:100430007874727564657320617265200020643A77
:100440000020693A0020703A00496E76616C696458
:100450002065787472756465720A0050726F626507
:10046000204F6666736574205A0020536572766F5C
:10047000200020466C6F773A200046523A002059FF
:100480000020204D61783A200020204D696E3A20EE
:1004900000536F667420656E6473746F70733A20D6
:1004A000003F4A206F7574206F662072616E676529
:1004B0002028302E303120746F20302E33290A004E
:1004C000205400205200416363656C657261746959
:1004D0006F6E3A2050002F2F20004D3131332053C2
:1004E000006F66660044454255473A002569792009
:1004F000256964202569682025696D2025697300B8
:100500005072696E742074696D653A20004D657390
:100510006820706F696E74206F7574206F6620722A
:10052000616E67650A005A2050726F6265205061E3
:100530007374204265640A0000000000000000009F
:100540000000000074036F0368036103530300009D
:100550007042000070420000C0400000964300005E
:1005600096430000C843FFFFFF4572726F72207709
:10057000726974696E6720746F20454550524F4D03
:10058000210A004E6F20436865636B73756D207799
:10059000697468206C696E65206E756D6265722C79
:1005A000204C617374204C696E653A200063686565
:1005B000636B73756D206D69736D617463682C2056
:1005C0004C617374204C696E653A20004C696E650D
:1005D000204E756D626572206973206E6F74204CB9
:1005E000617374204C696E65204E756D6265722B67
:1005F000312C204C617374204C696E653A20004D9B
:10060000313130002121204B494C4C2063617573FE
:10061000656420627920746F6F206D75636820694E
:100620006E6163746976652074696D65202D206341
:10063000757272656E7420636F6D6D616E643A20C1
:1006400000627573793A2070617573656420666F16
:100650007220696E7075740A00627573793A207041
:10066000617573656420666F7220757365720A0028
:10067000627573793A2070726F63657373696E6720
:100680000A005072696E7465722068616C746564EA
:100690002E206B696C6C28292063616C6C65642169
:1006A0000A006563686F3A004572726F723A0042E1
:1006B000696C696E656172204C6576656C696E6700
:1006C00020477269643A0A00363726033C3D380EEB
:1006D0002E303E1224221E131A1C180A0743090743
:1006E000084400014D3130362050002020506C610C
:1006F0006E6E657242756666657242797465733AAC
:1007000020002046726565204D656D6F72793A2034
:1007100000436F6D70696C65643A204E6F762020DF
:100720003920323032300A00204C61737420557009
:1007300064617465643A20323032302D31302D31AD
:1007400035207C20417574686F723A202844727598
:10075000636B6261722E6E6574290A00322E302E30
:10076000372E320A004D61726C696E0020536F663D
:1007700074776172652052657365740A0020576151
:10078000746368646F672052657365740A00204261
:10079000726F776E206F75742052657365740A00EE
:1007A0002045787465726E616C2052657365740AB9
:1007B00000506F77657255700A0020503A00656EE0
:1007C0006473746F7073206869743A200070012C30
:1007D0000190012701B0012201C0011D01F00118A3
:1007E000011002130130020E01600209019002049F
:1007F00001C002FF000003FA004003F5008003F08F
:1008000000D003EB002004E6007004E100E004DC0B
:10081000004005D700C005D2004006CD00D006C874
:10082000008007C3003008BE00F008B900C009B45A
:1008300000B00AAF00B00BAA00D00CA500000EA0BB
:1008400000500F9B00C01096005012910000148CB5
:1008500000C0158700B0178200B0197D00D01B784A
:1008600000001E730040206E0090226900F0246496
:100870000040275F0090295A00E02B5500102E50B1
:100880000020304B0010324600E033410090353CF0
:10089000001037370070383200A0392D00B03A28E8
:1008A00000A03B2300603C1E00103D1900903D1449
:1008B00000103E0F00703E0A00C03E0500003F00E1
:1008C00000403FFBFF803FF6FFC03FF1FF000021EB
:1008D00000240027002A002D003000330001010011
:1008E00000040107010A0100002200250028002B56
:1008F000002E003100340002010000050108010B48
:1009000001000020002300260029002C002F0032C7
:1009100000000100000301060109010505050507A6
:100920000508080808020202020A0A08080404046A
:100930000401010101010101010303030303030396
:1009400003040707070C0C0C0C0C0C0C0C02020225
:100950000206060606060606060B0B0B0B0B0B0B18
:100960000B010210202008081020401020408002B7
:1009700001020108040201010204081020408080E5
:100980004020100804020180040201804020100869
:100990000402010804020101020408102040800141
:1009A0000204081020408000000A0B02090C0D0E02
:1009B0000807030401000000000000000000000020
:1009C0000000000000000000000000000000000027
:1009D00000000012111000000000000000000000E4
:1009E0000000000000000000000000000020746F04
:1009F0006F206C6F6E6720657874727573696F6EA7
:100A00002070726576656E7465640A0020636F6C91
:100A10006420657874727573696F6E207072657684
:100A2000656E7465640A00DB0FC93F45BCDA3F8F11
:100A3000B30240FCF0274056946140FE4B9B40843B
:100A4000A5D840E0231841346A5641E859974164DB
:100A5000DBD5416E271742B4B75542CE1A9742C82C
:100A6000AED542B5885A43D40684BFA65FA7BF74EB
:100A700043E0BF10B11AC01C2C58C0E8F697C0B8AC
:100A800049D6C04E4E17C124D355C1802497C1A06A
:100A9000B5D5C1121A17C244AE55C2781797C26CA9
:100AA000ACD5C267885AC320204D36303320002091
:100AB000550046696C616D656E74206C6F61642FC2
:100AC000756E6C6F6164206C656E677468733A0054
:100AD00020204D3835312058005A2D50726F6265F4
:100AE000204F66667365740020204D3330342050EB
:100AF0000020204D33303120500050494420736590
:100B00007474696E67733A00202047323920572089
:100B1000490020204D3432302053004175746F203D
:100B2000426564204C6576656C696E673A002020EA
:100B30004D323036205800486F6D65206F66667301
:100B400065743A00204A0020204D323035204200A2
:100B5000416476616E6365643A20423C6D696E5F04
:100B60007365676D656E745F74696D655F75733EFF
:100B700020533C6D696E5F66656564726174653EA5
:100B800020543C6D696E5F74726176656C5F66655A
:100B90006564726174653E204A3C6A756E635F6489
:100BA00065763E0020204D32303420500041636392
:100BB000656C65726174696F6E2028756E697473F7
:100BC0002F7332293A20503C7072696E745F6163F2
:100BD00063656C3E20523C726574726163745F6140
:100BE0006363656C3E20543C74726176656C5F6132
:100BF0006363656C3E0020204D3230312058004D3B
:100C00006178696D756D20416363656C65726174AF
:100C1000696F6E2028756E6974732F7332293A00DC
:100C200020450020204D3230332058004D61786936
:100C30006D756D20666565647261746573202875D5
:100C40006E6974732F73293A005374657073207042
:100C5000657220756E69743A0020440020204D3280
:100C600030302053002044697361626C65640A006F
:100C700046696C616D656E742073657474696E6726
:100C8000733A0020286D6D29002020473231202042
:100C900020203B20556E69747320696E206D6D00B5
:100CA00024F4D43050C38E20C2A24017828B70111E
:100CB000127A910D816CD90AA861E108C7586607BC
:100CC000615143061E4B5D05C145A7041A4111043D
:100CD000093D9803713931034036DB0265339102D7
:100CE000D4305402802E1D02632CEE01752AC501FA
:100CF000B028A001102781018F2564012B244B010E
:100D0000E0223401AC211F018D200D01801FFC0069
:100D1000841EED00971DDF00B81CD200E61BC60044
:100D2000201BBC00641AB200B219A8000A19A00066
:100D30006A189900D117910040178B00B5168400EE
:100D400031167E00B31579003A157300C7146F0091
:100D500058146A00EE1366008813630025135E00C2
:100D6000C7125B006C12570015125400C1115100DC
:100D700070114F0021114B00D61049008D10470013
:100D80004610440002104200C00F4000800F3E0099
:100D9000420F3C00060F3B00CB0E3800930E37008D
:100DA0005C0E3500270E3400F30D3200C10D31000A
:100DB000900D3000600D2E00320D2D00050D2C0021
:100DC000D90C2B00AE0C2900850C29005C0C2700E7
:100DD000350C27000E0C2600E80B2400C40B240061
:100DE000A00B23007D0B23005A0B2100390B21009F
:100DF000180B2000F80A1F00D90A1E00BB0A1E00AB
:100E00009D0A1D00800A1D00630A1C00470A1B0082
:100E10002C0A1B00110A1A00F7091A00DD09190033
:100E2000C4091900AB091900920917007B091800C1
:100E3000630917004C091600360916002009160030
:100E40000A091500F5081500E0081400CC08140084
:100E5000B8081400A4081400900813007D081200BC
:100E60006B081300580812004608120034081100DD
:100E7000230811001208110001081100F0071000EA
:100E8000E0071000D0071000C0071000B0070F00E7
:100E9000A107100091070E0083070F0074070F00D1
:100EA00065070E0057070E0049070E003B070D00AF
:100EB0002E070E0020070D0013070D0006070D007A
:100EC000F9060C00ED060D00E0060C00D4060C003F
:100ED000C8060C00BC060C00B0060C00A4060B00F3
:100EE00099060C008D060B0082060B0077060B009E
:100EF0006C060B0061060A0057060B004C060A0040
:100F000042060A0038060A002E060A0024060A00D5
:100F10001A060A001006090007060A00FD05090066
:100F2000F4050900EB050900E2050900D9050900EF
:100F3000D0050900C7050900BE050900B505080070
:100F4000AD050800A50509009C05080094050800EA
:100F50008C050800840508007C050800740508005D
:100F60006C050700650508005D05070056050800CB
:100F70004E05070047050700400508003805070033
:100F8000310507002A050700230507001C05060098
:100F9000160507000F0507000805060002050700F3
:100FA000FB040600F5040700EE040600E804060052
:100FB000E2040700DB040600D5040600CF040600A7
:100FC000C9040600C3040600BD040600B7040600F9
:100FD000B1040500AC040600A6040600A004050048
:100FE0009B04060095040500900406008A04050091
:100FF00085040500800406007A04050075040500D8
:10100000700405006B04050066040500610405001A
:101010005C04050057040500520405004D0405005A
:1010200048040500430405003E0404003A0405009A
:1010300035040500300404002C04050027040400D6
:10104000230405001E0404001A040400160405000D
:10105000110404000D040400090405000404040044
:1010600000040400FC030400F8030400F40304007B
:10107000F0030400EC030400E8030400E4030400AC
:10108000E0030400DC030400D8030400D4030400DC
:10109000D0030400CC030400C8030300C50303000D
:1010A00024F404D9201BC40C5C0E9804C4095F020C
:1010B00065077101F405F900FB04B30048048700DB
:1010C000C10369005803550003034500BE023A00FE
:1010D0008402310053022A00290225000402200064
:1010E000E4011C00C8011900AF01170098011400A9
:1010F00084011300710110006101100051010E0004
:1011000043010D0036010B002B010B0020010B00E9
:10111000150109000C01090003010800FB0008008B
:10112000F3000800EB000700E4000600DE00060004
:10113000D8000600D2000600CC000500C70005005C
:10114000C2000500BD000400B9000400B5000400A1
:10115000B1000400AD000400A9000400A5000300D4
:10116000A20003009F0004009B00030098000300FE
:101170009500020093000300900003008D00020020
:101180008B00030088000200860002008400030038
:10119000810002007F0002007D0002007B0002004F
:1011A000790002007700010076000200740002005E
:1011B00072000100710002006F0002006D0001006A
:1011C0006C0002006A000100690002006700010073
:1011D0006600010065000100640002006200010079
:1011E00061000100600001005F0002005D0001007D
:1011F0005C0001005B0001005A0001005900010081
:101200005800010057000100560001005500010080
:10121000540001005300000053000100520001007F
:1012200051000100500001004F0001004E0000007D
:101230004E0001004D0001004C0001004B00000079
:101240004B0001004A000100490001004800000075
:101250004800010047000100460000004600010070
:10126000450000004500010044000100430000006B
:101270004300010042000000420001004100000064
:1012800041000100400001003F0000003F0001005C
:101290003E0000003E0001003D0000003D00010056
:1012A0003C0000003C0000003C0001003B0000004E
:1012B0003B0001003A0000003A0001003900000044
:1012C000390001003800000038000000380001003B
:1012D0003700000037000100360000003600000033
:1012E0003600010035000000350000003500010027
:1012F000340000003400000034000100330000001E
:101300003300000033000100320000003200000012
:101310003200010031000000310000003100010006
:101320003000000030000000300001002F000000FD
:101330002F0000002F0000002F0001002E000000F1
:101340002E0000002E0001002D0000002D000000E6
:101350002D0000002D0001002C0000002C000000DA
:101360002C0000002C0001002B0000002B000000CE
:101370002B0000002B0001002A0000002A000000C2
:101380002A0000002A0001002900000029000000B6
:1013900029000000290000002900010028000000A9
:1013A000280000002800000028000000280001009C
:1013B0002700000027000000270000002700000091
:1013C0002700010026000000260000002600000083
:1013D0002600000026000100250000002500000076
:1013E0002500000025000000250000002500010068
:1013F000240000002400000024000000240000005D
:10140000240001002300000023000000230000004E
:10141000230000002300000023000000230001003F
:101420002200000022000000220000002200000034
:101430002200000022000100210000002100000025
:101440002100000021000000210000002100000018
:10145000210001002000000020000000200000000A
:1014600020000000200000002000000020000000FC
:10147000200001001F0000001F0000001F000000EE
:101480001F0000001F0000001F0000001F000100DF
:101490001E0000001E0000001E0000001E000000D4
:1014A000043700001E290000511B000058100000E6
:1014B00010090000CC040000780200004101000087
:1014C000486F6D696E67204661696C6564006F7076
:1014D000656E00545249474745524544007A5F7053
:1014E000726F6265007A5F6D696E00795F6D696E1B
:1014F00000785F6D696E005265706F7274696E6717
:1015000020656E6473746F70207374617475730AF0
:1015100000486F6D65202573257325732046697219
:101520007374005761726E696E673A20486F6D6917
:101530006E672042756D702044697669736F722002
:101540003C20310A000202040000A0400000A0403C
:101550000000004053657474696E67732053746FA4
:1015600072656420280053544F505045442E20008B
:101570005072696E7465722073746F707065642048
:1015800064756520746F206572726F72732E2046C9
:10159000697820746865206572726F7220616E646C
:1015A00020757365204D39393920746F2072657349
:1015B000746172742E202854656D70657261747543
:1015C00072652069732072657365742E205365748B
:1015D000206974206166746572207265737461722B
:1015E00074696E67290A0021212053544F502063EB
:1015F000616C6C65642062656361757365206F66FC
:1016000020424C546F756368206572726F72202D92
:1016100020726573746172742077697468204D3923
:1016200039390A0053656E64204D31303820746FAB
:1016300020726573756D650A0053656E64204D31C7
:10164000303820746F2068656174206E6F7A7A6C10
:10165000650A00486F74656E6420746F6F20636F55
:101660006C640A00496E736572742066696C616D02
:10167000656E7420616E642073656E64204D313038
:10168000380A004F46460A0046616465204865698D
:101690006768742000426564204C6576656C696EED
:1016A0006720004661696C656420746F20656E6117
:1016B000626C6520426564204C6576656C696E6776
:1016C0000A00496E76616C6964206D6573682E0A44
:1016D0000047322F47332062616420706172616D70
:1016E00065746572730A00526573656E643A200012
:1016F00023646566696E652044454641554C545FD8
:10170000004B6420004B6920004B7020005049447E
:10171000204175746F74756E652066696E697368B3
:101720006564212050757420746865206C61737441
:10173000204B702C204B6920616E64204B64206329
:101740006F6E7374616E74732066726F6D20626564
:101750006C6F7720696E746F20436F6E6669677572
:10176000726174696F6E2E680A0050494420417599
:10177000746F74756E65206661696C656421207490
:10178000696D656F75740A000A20436C6173736933
:101790006320504944200A00204B643A2000204B2B
:1017A000693A2000204B703A20000A204E6F206FCB
:1017B00076657273686F6F740A002054753A200062
:1017C000204B753A2000206D61783A2000206D6929
:1017D0006E3A200020643A200020626961733A204A
:1017E00000504944204175746F74756E65207374A0
:1017F0006172740A00504944204175746F74756EAB
:1018000065206661696C6564212054656D70657240
:10181000617475726520746F6F20686967680A006B
:10182000504944204175746F74756E652066616916
:101830006C6564212042616420657874727564650A
:1018400072206E756D6265720A0050726F62696E09
:1018500067206D65736820706F696E7420002028A2
:1018600044525952554E2900473239204175746F00
:1018700020426564204C6576656C696E67003F2088
:10188000284C2C522C462C4229206F7574206F66F0
:1018900020626F756E64732E0A003F2856296572A8
:1018A000626F7365206C6576656C20696D706C6124
:1018B000757369626C652028302D34292E0A004228
:1018C0006164205A2076616C75650A004E6F206253
:1018D000696C696E65617220677269640A004669A5
:1018E0006E6973686564210A003A207A3A20002004
:1018F0006F662000476F696E6720746F3A2058004A
:1019000043570A00206469723A0020616E676C6573
:101910003A005374617274207261646975733A009D
:10192000506F736974696F6E696E672074686520A3
:1019300070726F62652E2E2E0A003F4C6567732011
:101940006F66206D6F76656D656E7420696D706C65
:1019500061757369626C652028302D3135292E0A36
:10196000003F2028582C5929206F7574206F66205D
:10197000626F756E64732E0A003F53616D706C6503
:101980002073697A65206E6F7420706C617573695D
:10199000626C652028342D3530292E0A004D3438EC
:1019A000205A2D50726F62652052657065617461B6
:1019B00062696C69747920546573740A005A5F4DCA
:1019C000494E5F50524F42455F50494E005A325F78
:1019D000535445505F50494E005A325F454E414284
:1019E0004C455F50494E005A325F4449525F50495E
:1019F0004E005A5F53544F505F50494E005A5F5348
:101A00005445505F50494E005A5F4D494E5F504912
:101A10004E005A5F454E41424C455F50494E005A78
:101A20005F4449525F50494E00595F53544F505FD5
:101A300050494E00595F535445505F50494E00592C
:101A40005F4D494E5F50494E00595F454E41424CF3
:101A5000455F50494E00595F4449525F50494E001E
:101A6000585F53544F505F50494E00585F53544590
:101A7000505F50494E00585F4D494E5F50494E00EF
:101A8000585F454E41424C455F50494E00585F44B7
:101A900049525F50494E00534552564F335F5049AB
:101AA0004E00534552564F325F50494E00534552F7
:101AB000564F315F50494E00534552564F305F509C
:101AC000494E00534453530052414D50535F4439E3
:101AD0005F50494E0052414D50535F44385F50496A
:101AE0004E0052414D50535F4431305F50494E00DB
:101AF0004D4F534645545F445F50494E004D415849
:101B0000363637355F53535F50494E004C45445F7E
:101B100050494E004845415445525F4245445F504C
:101B2000494E004845415445525F305F50494E0090
:101B300046414E315F50494E0045315F5354455048
:101B40005F50494E0045315F454E41424C455F5024
:101B5000494E0045315F4449525F50494E0045317E
:101B60005F43535F50494E0045305F535445505FCB
:101B700050494E0045305F454E41424C455F50490B
:101B80004E0045305F4449525F50494E0045305F3A
:101B90004155544F5F46414E5F50494E00455F4DA1
:101BA0005558325F50494E00455F4D5558315F5092
:101BB000494E00455F4D5558305F50494E004156E3
:101BC000525F53535F50494E004156525F53434B4F
:101BD0005F50494E004156525F4D4F53495F504947
:101BE0004E004156525F4D49534F5F50494E00548D
:101BF000454D505F4245445F50494E0054454D505D
:101C00005F315F50494E0054454D505F305F504941
:101C10004E0046494C57494454485F50494E005481
:101C20005844300052584430005374616E646172FD
:101C30006420446576696174696F6E3A20002052B1
:101C4000616E67653A2000205369676D613A200034
:101C50004D65616E3A200050574D3A20202534647E
:101C60000020202020434F4D002020206E6F6E2D3D
:101C70007374616E646172642050574D206D6F649F
:101C80006500202020636F6D7061726520696E743D
:101C900065727275707420656E61626C6564002097
:101CA00020206F766572666C6F7720696E7465723E
:101CB0007275707420656E61626C6564002020200E
:101CC0002054494D534B00423A2000413A20002015
:101CD00020202054434352002020202043533A2008
:101CE000002020202057474D3A200020202020545B
:101CF000494D45520020697320616C736F207469EF
:101D0000656420746F20746869732070696E005474
:101D1000494D45523143000A202E002020506F7259
:101D2000743A2000202020416E616C6F6720696E3C
:101D3000203D2025356C64003C756E757365642FFD
:101D4000756E6B6E6F776E3E004F75747075742094
:101D50003D2000496E70757420203D200070726F28
:101D6000746563746564200020284125326429204D
:101D70002000253364200047004800000088008AC6
:101D8000008C00B300B400000098009A009C00A8EA
:101D900000AA00AC0028012A012C01440045006E75
:101DA00000800081006F00B000B1007000900091D1
:101DB000007100A000A10072002001210173002425
:101DC0001C00011F1C0101121C3B00071C4300FCEE
:101DD0001B4500EF1B4400E21B3201D51B3301C938
:101DE0001B3401BE1B3501B31B2801A81B2A019D12
:101DF0001B2C018D1B0701821B1C01741B18016821
:101E00001B1A015E1B2C01531B2201451B1E0139AD
:101E10001B2401951B0901301B0701231B0A011418
:101E20001B08010C1B0D01FD1A4201E61B3201F0DB
:101E30001A0701D91B3301E21A0A01D51A0801C891
:101E40001A0901CD1B3401C31A3501B81A0B01ADB3
:101E50001A0601A21A0501971A0401051B35018D06
:101E60001A3701801A2601761A03016B1A360160AF
:101E70001A0301561A3D01491A38013F1A0E01345E
:101E80001A3C01291A0E011F1A3001121A3E0108CC
:101E90001A1201FD192E01F2191201E7192201D9B6
:101EA000191E01CD192401BD191301446F6E652E51
:101EB0000A0050756C73696E6720202000556E749F
:101EC0006F7563686564200066616C7365004641E8
:101ED000494C3A204E6F20747269676765722064BE
:101EE000657465637465640A004641494C3A204E46
:101EF0006F697365206465746563746564202D2063
:101F0000706C656173652072652D72756E207465E5
:101F100073740A003D20424C546F756368207072E0
:101F2000652056332E3120286F7220636F6D7061EB
:101F30007469626C6529003D205A20536572766F82
:101F40002050726F6265003D20424C546F7563688B
:101F50002056332E310020282B2F2D20346D73294D
:101F60003A20003A2033306D73206F72206D6F720B
:101F7000650A002E2050756C73652077696474685B
:101F8000002A2A20506C6561736520747269676746
:101F900065722070726F62652077697468696E205F
:101FA000333020736563202A2A0A004641494C3A9F
:101FB00020424C544F55434820656E61626C656405
:101FC000202D205365742075702074686973206417
:101FD0006576696365206173206120536572766F51
:101FE0002050726F6265207769746820494E5645AB
:101FF0005254494E472073657420746F20277472C1
:102000007565272E0A0020204445504C4F59454401
:102010002073746174653A204C4F5720286C6F67A9
:1020200069632030290020204445504C4F594544D5
:102030002073746174653A204849474820286C6FC2
:10204000676963203129003D204D656368616E69D1
:1020500063616C2053776974636820646574656399
:102060007465640A005741524E494E473A20494E22
:1020700056455254494E472073657474696E672003
:1020800070726F6261626C79206261636B776172FA
:1020900064732E0A002E204465706C6F7920262010
:1020A00073746F7720342074696D65730A003D2066
:1020B000424C546F75636820436C6173736963208D
:1020C000312E322C20312E332C20536D617274202E
:1020D000312E302C20322E302C20322E322C203338
:1020E0002E302C20332E3120646574656374656452
:1020F0002E0A002E20436865636B20666F722042B3
:102100004C544F5543480A002E205A5F4D494E5FAC
:1021100050524F42455F454E4453544F505F494ED5
:1021200056455254494E473A20002E2050726F6255
:1021300065205A5F4D494E5F50524F42455F5049AE
:102140004E3A20002C2073746F7720616E676C65A7
:102150003A202020002C206465706C6F7920616E1D
:10216000676C653A2000536572766F2070726F62FB
:102170006520746573740A2E207573696E67206913
:102180006E6465783A2020005761746368696E67F1
:102190002070696E730A00656E6473746F70206DD1
:1021A0006F6E69746F722000204D39322058002004
:1021B000496E76616C6964206578747275646572C5
:1021C00020004361703A007D007D7D2C776F726B3B
:1021D0003A7B6D696E3A7B783A007D2C6D61783A76
:1021E0007B783A002C7A3A002C793A00617265616A
:1021F0003A7B66756C6C3A7B6D696E3A7B783A0017
:102200004348414D4245525F54454D50455241541B
:1022100055524500424142595354455050494E474A
:102220000041524353004D4F54494F4E5F4D4F4470
:10223000455300544845524D414C5F50524F544510
:102240004354494F4E004C4F4E475F46494C454E14
:10225000414D45004155544F5245504F52545F53E4
:10226000445F535441545553005344434152440036
:1022700050524F4D50545F535550504F525400459B
:102280004D455247454E43595F50415253455200C8
:10229000434153455F4C494748545F425249474880
:1022A000544E45535300544F47474C455F4C4947A4
:1022B00048545300534F4654574152455F504F576F
:1022C0004552004255494C445F50455243454E5497
:1022D000004C4556454C494E475F44415441005AD5
:1022E0005F50524F42450052554E4F555400415594
:1022F000544F4C4556454C005052494E545F4A4F3E
:10230000420050524F4752455353004155544F528B
:1023100045504F52545F54454D5000564F4C554D0B
:10232000455452494300454550524F4D0042494E95
:102330004152595F46494C455F5452414E534645C0
:10234000520053455249414C5F584F4E5F584F46DB
:1023500046004649524D574152455F4E414D453A20
:102360004D61726C696E20322E302E372E3220284D
:102370004E6F7620203920323032302032303A34DD
:10238000373A33312920534F555243455F434F4429
:10239000455F55524C3A68747470733A2F2F6769D1
:1023A000746875622E636F6D2F4D61726C696E4635
:1023B00069726D776172652F4D61726C696E205024
:1023C000524F544F434F4C5F56455253494F4E3A2C
:1023D000312E30204D414348494E455F54595045B8
:1023E0003A3344205072696E7465722045585452D5
:1023F000554445525F434F554E543A312055554947
:10240000443A34333466326238362D393135352D1D
:10241000343336322D616463322D36376232646173
:102420003664313366640A00202D20496E76616C73
:102430006964206578747275646572206E756D626A
:10244000657220210A00544845524D414C20525596
:102450004E4157415900546865726D616C20527548
:102460006E61776179004572723A204D415854454A
:102470004D50004D415854454D5020747269676766
:1024800065726564004572723A204D494E54454D5F
:1024900050004D494E54454D502074726967676530
:1024A000726564000A0A0020205A5F4D494E5F5051
:1024B000524F42453A0020205A5F4D494E3A002083
:1024C00020595F4D494E3A002020585F4D494E3A01
:1024D00000202F002042403A0020403A002062793C
:1024E0007465733B2063726320004E6F2045455036
:1024F000524F4D2E0A00454550524F4D2064617495
:102500006173697A65206572726F722E0A0020739A
:10251000746F7265642073657474696E677320727A
:102520006574726965766564202800202863616C93
:1025300063756C6174656429210A0020213D2000C7
:10254000454550524F4D20435243206D69736D6194
:10255000746368202D202873746F726564292000CD
:102560002053697A653A2000496E6465783A200004
:1025700044494749504F5453204C6F616465640A85
:102580000044494749504F5453204C6F6164696E71
:10259000670A00204D61726C696E3D563832290A17
:1025A00000454550524F4D2076657273696F6E201D
:1025B0006D69736D617463682028454550524F4DB5
:1025C0003D0048617264636F6465642044656661C0
:1025D000756C742053657474696E6773204C6F61F9
:1025E0006465640A003B20000000964300009643A7
:1025F00000002042000020423D0AA14233B3A14224
:102600009A99C8430000E343B80B0000B80B0000E0
:10261000640000001027000020436F756E7420587E
:102620003A0042656400453100626564002C207305
:10263000797374656D2073746F70706564212048C0
:1026400065617465725F49443A2000486561746948
:102650006E67204661696C65640048656174696EE7
:1026600067206661696C6564004D313132205368C2
:102670007574646F776E0000220A00556E6B6E6F82
:10268000776E20636F6D6D616E643A202200204585
:102690003A00205A3A0020593A00205A3A200020A5
:1026A000593A200042656420583A200050726F6207
:1026B000696E67204661696C65640A002BB311245A
:1026C0001FBECFEFD1E2DEBFCDBF00E00CBF13E0F5
:1026D000A0E0B2E0E2E6F0E801E00BBF02C0079044
:1026E0000D92A434B107D9F72EE0A4E4B3E001C001
:1026F0001D92A731B207E1F713E1CFE5D3E100E086
:1027000006C021970109802FFE010E94D7BCCE355B
:10271000D10780E00807A9F70E9496AC0C942FC05F
:102720000C9400002F923F924F925F926F927F9293
:102730008F929F92AF92BF92CF92DF92EF92FF92D1
:102740000F931F93CF93DF93CDB7DEB7EF970FB6FD
:10275000F894DEBF0FBECDBF20912C042DAB91E0CD
:1027600090932C0480912B048D3409F410C384358C
:1027700011F40C94D322873411F00C94F822209198
:10278000290430912A042B31310509F484C09CF4CA
:102790002430310534F422303105CCF537FF2BC01D
:1027A000F2C22430310509F440C02531310511F45D
:1027B0000C94FA22E8C22A32310509F4BDC15CF456
:1027C0002D31310509F497C00CF485C02E31310547
:1027D00009F4B0C0D8C22B35310509F42AC12C3513
:1027E000310509F42BC12A35310509F0CCC210920C
:1027F00028040C94FA2280912704813011F00C9463
:10280000FA220E9444900E9433560C94FA2280913E
:102810002704813011F00C94FA222230310509F09E
:1028200080E00E9473790C94FA2280E50E94756A18
:10283000882329F00E94D98D6B017C0103C0C12C33
:10284000D12C760183E50E94756A882361F00E948D
:10285000F06920E030E04AE754E40E94B3B80E94F7
:1028600065BE6B017C010E9450620E949939C60EC0
:10287000D71EE81EF91E0E949939DC01CB018C1984
:102880009D09AE09BF09B7FD02C00C94FA2280E091
:102890000E945D32F0CF87E00E94405581110C9478
:1028A000FA228CE0E3E6F2E0DE01119601900D924F
:1028B0008A95E1F780E50E94756A882321F00E94DD
:1028C000B869862F01C080E0BE016F5F7F4F0E9414
:1028D0003C710C94FA22809126048770873011F0A5
:1028E0000C940D2360E08FE40E949D6A81110C948A
:1028F000FA220C940D230E9499396093220470935C
:102900002304809324049093250487E00E9440557B
:1029100081110C94FA228091380D882311F40C94C3
:102920000A2560E08FE40E949D6A81110C94FA22CE
:102930000C940A252091050E3091060E4091070E49
:102940005091080E6091490D70914A0D80914B0D88
:1029500090914C0D0E94F2BCAB01BC0188E50E9435
:10296000E87169837A838B839C832091090E30916F
:102970000A0E40910B0E50910C0E60914D0D70910E
:102980004E0D80914F0D9091500D0E94F2BCAB0105
:10299000BC0189E50E94E8716D837E838F839887EF
:1029A000BE016B5F7F4FCE0101960E9409688823AC
:1029B00011F40C94FA2280E00E94E56E0E940B59FB
:1029C00061E085E40E949D6A182F21E0482FBE0136
:1029D0006B5F7F4FCE0101960E94B6AA6B017C010E
:1029E0009B01AC010E94E4BF811119C049815A8149
:1029F0006B817C8184EA96E20E9425324D815E8162
:102A00006F8178858FE996E20E942532B701A60191
:102A10008AE996E20E9425328AE00E94CD2F0E9428
:102A2000F258113011F40E9489820E94E75A0C94E6
:102A3000FA228FE0809328040C94FA225BE7252E7B
:102A400052E0352E64E0E62E64E0F62EA9E4BDE007
:102A5000BFA3AEA37DE3C72E7DE0D72E00E010E03C
:102A6000F10181911F010E94756A882309F44AC00F
:102A70000E94F0692B013C01133049F0D6012D91E1
:102A80003D914D915C910E94F1BC2B013C01EEA166
:102A9000FFA12081318142815381C301B2010E9493
:102AA000F1BC4B015C012DEB37E346E855EB0E948E
:102AB00052BF87FD0AC02DEB37E346E855E3C50159
:102AC000B4010E944DB81816ECF4133051F4409242
:102AD000550D5092560D6092570D7092580D01E0B1
:102AE00011C0A5019401D7016D917D918D919C91AB
:102AF0000E94F2BCF7016083718382839383812FEC
:102B00000E940D551F5FF4E0EF0EF11C2EA13FA1B6
:102B10002C5F3F4F3FA32EA334E0C30ED11C1430D3
:102B200009F09ECF002321F085E59DE00E946162BF
:102B30000E94E75A0C94FA2280912704813011F008
:102B40000C94FA2289E40E94756AE82E882321F009
:102B50000E94EC69082F01C000E08AE40E94756AB7
:102B6000F82E882321F00E94EC69182F01C010E094
:102B7000EE2011F0053020F4FF2041F0153030F048
:102B80008DE095E00E94DF2F0C94FA2280E1E9E4C9
:102B9000FDE0A1E1B4E001900D928A95E1F7EE200D
:102BA00019F1602F000F770B880B990B0E9454B816
:102BB0002091F4033091F5034091F6035091F7030F
:102BC0000E94B3B82091FC033091FD034091FE03B5
:102BD0005091FF030E94F2BC6093110470931204A1
:102BE0008093130490931404FF2019F1612F110FA7
:102BF000770B880B990B0E9454B82091F803309101
:102C0000F9034091FA035091FB030E94B3B820915D
:102C100000043091010440910204509103040E9489
:102C2000F2BC60931504709316048093170490937C
:102C3000180460E080E50E949D6A8823C1F1EE20BF
:102C4000D1F02091050E3091060E4091070E509163
:102C5000080E6091110470911204809113049091F8
:102C600014040E94F1BC60931104709312048093C9
:102C7000130490931404FF20D1F02091090E309199
:102C80000A0E40910B0E50910C0E6091150470913C
:102C9000160480911704909118040E94F1BC60936F
:102CA000150470931604809317049093180440E061
:102CB00050E0BA0186E40E94E8716B017C0120E0DB
:102CC00030E0A9010E9452BF18165CF420E030E009
:102CD00040E752E4C701B6010E94ECBD6B017C01E4
:102CE00003C0C12CD12C760180905B0290905C02D5
:102CF000A0905D02B0905E0220E030E0A901C70123
:102D0000B6010E944DB8882341F0C0925B02D09278
:102D10005C02E0925D02F0925E0200910802109166
:102D2000090284E690E09093090280930802C09023
:102D30003802D0903902E0903A02F0903B0280E0F5
:102D400090E0A0E8BFE38093380290933902A0930B
:102D50003A02B0933B020E94335680925B029092FB
:102D60005C02A0925D02B0925E0210930902009391
:102D70000802C0923802D0923902E0923A02F092F0
:102D80003B020C94FA220E94A8AA0C94FA22009109
:102D9000290410912A040D37110509F4E5C30CF03C
:102DA000A5C00836110509F46AC20CF059C00B34ED
:102DB000110509F458C20CF50231110509F488C453
:102DC00074F417FF02C00C94D022023011050CF4E9
:102DD00054C10131110509F483C10C94D0220B3286
:102DE000110509F438C20033110509F438C20F3156
:102DF000110511F00C94D02287C10235110509F498
:102E000059C4F4F40D34110509F435C20CF42FC281
:102E10000135110511F00C94D0220E94B49A0E9441
:102E2000885C0E94C0631092BA0680E00E94A3B042
:102E300068EE73E080E090E00E94B22D0C94FA22DC
:102E40000435110509F444C40CF43BC405351105DF
:102E500009F474C40C35110509F493C40C94D02200
:102E60000037110511F40C94FA22A4F40C36110564
:102E700011F40C94FA223CF40A36110509F45AC2F2
:102E80000CF444C27EC20E36110509F487C20CF45C
:102E900016C297C20537110511F40C94FA227CF47E
:102EA0000237110509F4F7C40CF4D6C20337110533
:102EB00011F00C94D0220E949B8E0C94FA220737BA
:102EC000110509F42BC50CF4EDC40837110509F4FC
:102ED00028C50937110511F00C94D0221092210455
:102EE000109210040E94F15B0C94FA220F3241E020
:102EF000140711F40C9410210CF055C00D3C110571
:102F000009F4DAC5FCF4083C110509F412C574F49F
:102F10000B39110509F400C30E3B110509F4E7C292
:102F20000C38110511F00C94D022C0C20B3C1105D5
:102F300009F46DC50CF08CC5093C110509F440C5B8
:102F40000C94D0220D3D110509F4CEC69CF4033D2E
:102F5000110509F4DCC50C3D110509F49EC60E3CB3
:102F6000110511F00C94D02278EBE72E73E0F72EC8
:102F700010E0BCC5023281E0180709F4A2C734F49E
:102F80000831114009F406C70C94D0220D32B1E08B
:102F90001B0711F40C94D91F0E32114011F40C943C
:102FA000CC200C94D022043FF1E01F0711F40C94C4
:102FB000FB2194F5023931E0130711F40C94202120
:102FC00084F4003951E0150711F40C94132114F026
:102FD0000C9416210033114011F40C9459200C94D8
:102FE000D022043AA1E01A0711F40C9427213CF4F2
:102FF0000A39114011F40C94FA220C94D022053AAB
:10300000F1E01F0711F40C942A210C3A114011F43D
:103010000C949E210C94D022083F31E0130711F448
:103020000C940A226CF4063F51E0150711F40C943D
:10303000FE2114F00C9401220E94C5A30C94FA22E4
:103040000B3592E0190711F40C941A224CF4083550
:10305000124011F00C94D0220E941E910C94FA227E
:103060000335E3E01E0711F40C949322073E13404E
:1030700011F40C94C4220C94D02280E50E94756A4D
:10308000882329F00E94D98D6B017C0103C0C12CDB
:10309000D12C760183E50E94756A882361F00E9435
:1030A000F06920E030E04AE754E40E94B3B80E949F
:1030B00065BE6B017C010E9450620091F203109189
:1030C000F3030115110529F00E940530C8010E9483
:1030D0003C3240E0C701B6010E9448360C94FA2207
:1030E0008091EE0384FF02C00C940D258091F003C3
:1030F00087FF02C00C940D258091F103837011F0BD
:103100000C940D250C942A250E94005C7B018C01F7
:1031100020E831E541E050E00E9454BCC9016DE671
:1031200071E00E94C3BC4B015C01C801B70120E102
:103130003EE040E050E00E9454BCCA01B90128E1E1
:1031400030E040E050E00E9454BC762E672EC62E40
:10315000D72E4CE3242E312C412C512CC801B70121
:10316000A20191010E9454BCF62EE72ECA01B901BA
:10317000A20191010E9454BCCB018E010F5F1F4F31
:103180008114910499F0EF92FF927F936F936F9265
:103190007F92BF92AF929F928F928CEE94E09F931A
:1031A0008F931F930F930E941EB813C0A114B104F4
:1031B000B1F0EF92FF927F936F936F927F92BF92E5
:1031C000AF9280EF94E09F938F931F930F930E9491
:1031D0001EB80FB6F894DEBF0FBECDBF30C0CD28ED
:1031E00079F0EF92FF927F936F936F927F9284EFCB
:1031F00094E09F938F931F930F930E941EB8E9CF83
:10320000892B69F0EF92FF927F936F9388EF94E0A0
:103210009F938F931F930F930E941EB8DACFEF9264
:10322000FF928CEF94E09F938F931F930F930E94D4
:103230001EB80F900F900F900F900F900F900E945C
:103240000530B80180E095E00E94EE2F8AE00E94F0
:10325000CD2F0C94FA220E945D920C94FA220E94C7
:10326000A67E0C94FA220E944F5C0C94FA220E94D3
:10327000735C0C94FA220E94885C0C94FA22809170
:103280003E0B83FF02C00C94FA220E94F59087FF48
:1032900002C00C94FA2283E50E94756A882359F0D3
:1032A0000E94F0690E945EBECB010E94EF3961E08E
:1032B00080E00E9415B30E94D6B20C94FA2280914D
:1032C0003E0B83FF02C00C94FA220E94F590082F57
:1032D00087FF02C00C94FA2283E50E94756AF82EDB
:1032E00081110C94342582E50E94756A81110C9439
:1032F000342510E00E94D6B2112311F40C94FA2266
:103300006F2D802F0E94EE950C94FA220E94F5906A
:10331000182F87FD0AC089E793E00E94DF2F812FD5
:103320000E947C958AE00E94CD2FBDA9B0932C0409
:103330000C94CF2860E080E50E94916A81110C9482
:10334000FA2281E40E94276A882321F06091BA065C
:10335000062F02C00FEF10E083E50E94756A8823F4
:1033600049F00E94B8698B016F3F710519F010F0A8
:103370000FEF10E00093BA0680E00E94A3B00C9417
:10338000FA2260E080E50E94916A81110C94FA2291
:103390001092BA060E94A3B00C94FA228EE40E9406
:1033A000756A882311F40C94FA220E94B86960931C
:1033B000EA037093EB038093EC039093ED030C947A
:1033C000FA2283E50E94276A882331F060E083E5D2
:1033D0000E94916A80933E0B0E94053085EE94E036
:1033E0000E94DF2F80913E0B882369F134E4E32EA5
:1033F00035E0F32E00E010E020E080913E0B90E0FD
:10340000A0E0B0E0002E04C0B695A79597958795EB
:103410000A94D2F780FF0EC0DD24D394D20E22236B
:1034200019F08CE20E94CD2FF701859194910E94B2
:10343000DF2F2D2D0F5F1F4FE2E0EE0EF11C053048
:103440001105D9F604C081EE94E00E94DF2F8AE0D6
:103450000E94CD2F0C94FA2283E50E94756A88237E
:1034600081F00E94C869282F30E02D33310524F403
:10347000809307020C94FA228CE3809307020C9449
:10348000FA220E940530C0900702D12CE12CF12CC9
:103490008AED94E00E94DF2F4AE0C701B6010E9446
:1034A00086308AE00E94CD2F0C94FA2280913E0B48
:1034B00083FF02C00C94FA2283E50E94756A882378
:1034C00011F40C94FA220E94F0690E945EBE6C38DE
:1034D00071050CF48B011093DC030093DB030E9455
:1034E0007C9A61E080E00E9415B30C94FA228091EE
:1034F0003E0B83FF02C00C94FA2283E50E94756A9A
:103500008EAB81110C94422582E50E94756A81116F
:103510000C9442250C94FA2283E50E94756A882354
:1035200011F40C94FA220E94C869182F90E0CD97EC
:103530000CF01CE31093D2030E9499396B017C01BB
:10354000212F30E0A8EEB3E00E94A8BCC60ED71E23
:10355000E81EF91EC092CE03D092CF03E092D003B2
:10356000F092D1030C94FA228CE40E94276A8823FB
:1035700081F00E94F0696B017C0120E030E0A9013C
:103580000E9452BF87FF0AC0F7FAF094F7F8F09450
:1035900005C0C12CD12CE12C00E4F02EF7FAF094F8
:1035A000F7F8F094CAA2DBA2ECA2FDA28CE0EFE651
:1035B000F2E0DE01119601900D928A95E1F788E51F
:1035C0000E94756A8823A1F040E050E0BA0188E5C6
:1035D0000E94E87120913D0D30913E0D40913F0DCC
:1035E0005091400D0E94F1BC69837A838B839C8348
:1035F00089E50E94756A8823A1F040E050E0BA0195
:1036000089E50E94E87120913D0D30913E0D409179
:103610003F0D5091400D0E94F1BC6D837E838F83DE
:1036200098878AE50E94756A882351F040E050E04F
:10363000BA018AE50E94E87169877A878B879C873F
:103640001E8A1F8A188E198E20E0AE014A5E5F4FD7
:10365000BE016F5F7F4FCE0182960E949F6C8823D0
:1036600009F4C8C760E080E00E94286C8AA19BA191
:10367000ACA1BDA1B0588E8B9F8BA88FB98F1A8E2D
:103680001B8E1C8E1D8E1E8E1F8E18A219A280915D
:10369000CD03882309F4AEC700E010E020E0AE01BE
:1036A0004A5E5F4FBE01665E7F4FCE014E960E941E
:1036B000B26AA0C7809128048F7D8061809328041E
:1036C00099C7809128048F7E80628093280492C7D6
:1036D00083E50E94756A8823E9F00E949939609316
:1036E00022047093230480932404909325040E9461
:1036F000F06920E030E04AE754E40E94B3B80E9449
:1037000065BE60930202709303028093040290935B
:10371000050270C78091EE0384FF02C00C94AB26B3
:103720008091F00387FF02C00C94AB268091F103D7
:10373000837011F00C94AB260C94DD2683E50E9477
:10374000276A882309F456C70E9499396093220496
:103750007093230480932404909325040E94F069BD
:1037600020E030E04AE754E40E94B3B80E9465BE0E
:103770006093C9037093CA038093CB039093CC03E7
:1037800039C70E94F59087FD35C79091EE0394FDEF
:1037900004C09091F00397FF0AC0BBE7CB2EB2E0C4
:1037A000DB2E1FE3E12E1BE0F12E10E009C090910B
:1037B000F103937091F7682F81E00E9422921AC75B
:1037C000D6018D916D010E94756A882309F459C054
:1037D000133009F04FC00E94F0694B015C0120E0FA
:1037E00030E040EA51E40E944DB887FF3AC0A5019D
:1037F000940160915F0B7091600B8091610B9091CF
:10380000620B0E94ECBD2B013C019B01AC0160915D
:103810006F0B7091700B8091710B9091720B0E94E5
:10382000B3B860936F0B7093700B8093710B909390
:10383000720B6091B2067091B3068091B4069091BC
:10384000B5060E9452B8A30192010E94B3B80E942B
:1038500065BE6093B2067093B3068093B4069093EE
:10386000B50680925F0B9092600BA092610BB092B4
:10387000620B07C00E94F069F701648B758B868B21
:10388000978B1F5FF4E0EF0EF11C143009F098CF16
:103890000E942C62AFC60E94C6A98DEE9DE00E94D8
:1038A000C8A8A8C60091F2031091F30394E0F12C8C
:1038B00040E0915031F1D8018C91282F2B7F213499
:1038C00029F411962C912133E1F408C08035C9F414
:1038D000F801818180538A3048F013C0813421F08F
:1038E000853421F441E002C0FF24F39498012E5F57
:1038F0003F4F89012F5F3F4FD8018C918032C9F330
:10390000D8CF41110E940530FF2021F086ED94E0D0
:103910000E94DF2FC8010E943C326CC60E94945B5B
:1039200069C681E080932104809310040E94F15BBA
:1039300061C60E94F590182F87FD5CC60091C803F0
:1039400084E40E94756A882311F40C94E0260E9496
:10395000F0696B017C0120E030E0A9010E944DB8C4
:10396000882341F1B4E01B02F0011124EC53FC4F19
:10397000C082D182E282F38220E030E0A90160912E
:10398000C4037091C5038091C6039091C7030E9440
:103990004DB881110CC080E090E0A0EEBFE38093B1
:1039A000C4039093C503A093C603B093C70301E07B
:1039B0000C94E02680E08093C8030E9433641AC60A
:1039C0000E94F59087FD16C6FBE7EF2EF2E0FF2E72
:1039D0000FE31BE0AFE4CA2EABE0DA2EF7018191D2
:1039E0007F010E94276A882361F00E94F0690E948B
:1039F00065BED8016D937D938D939C9313970E9420
:103A0000E5610C5F1F4FC016D10641F7F3C50E9458
:103A1000F59087FDEFC5EBE7EE2EE2E0FE2E0FE31B
:103A20001BE0F70181917F010E94276A882349F0FA
:103A30000E94F069D80194966D937D938D939C9329
:103A400097970C5F1F4FBBE00F341B0751F7D2C590
:103A50008091EF0387FF02C00C94E6268091F0036B
:103A60008E7011F00C94E6264091730B5091740BFC
:103A70006091750B7091760B86EC94E00E94253274
:103A80004091770B5091780B6091790B70917A0B84
:103A900083EC94E00E94253240917B0B50917C0B8B
:103AA00060917D0B70917E0B80EC94E00E9425323A
:103AB0008AE00E94CD2F9EC58091EE0381FF02C057
:103AC0000C942C278091EF0381FF02C00C942C27CB
:103AD0008091F0038C7011F00C942C278BC51F5F24
:103AE000F4E0EF0EF11C133009F422C888E5810FD1
:103AF0000E94276A882399F30E94F069F701608386
:103B0000718382839383812F0E940D55E8CF40906B
:103B10003D0D50903E0D60903F0D7090400D2091F6
:103B20000C0230910D0240910E0250910F02C30120
:103B3000B2010E94F2BC6EA37FA388A799A78090D0
:103B4000410D9090420DA090430DB090440D2091F6
:103B50001002309111024091120250911302C501DE
:103B6000B4010E94F2BC6AA77BA78CA79DA7C09056
:103B7000450DD090460DE090470DF090480D2091F6
:103B80001402309115024091160250911702C7019C
:103B9000B6010E94F2BC6EA77FA788AB99AB2091BB
:103BA00018023091190240911A0250911B02C30170
:103BB000B2010E94F2BC2B013C0120911C02309109
:103BC0001D0240911E0250911F02C501B4010E94C6
:103BD000F2BC4B015C012091200230912102409106
:103BE000220250912302C701B6010E94F2BC6B0170
:103BF0007C010E94053081E994E00E94DF2F83E57B
:103C00000E94276A882321F00E94DC6980930A02BF
:103C100080910A02882319F08EE593E002C08EE4B9
:103C200093E20E94DF2F89E894E00E94DF2F4EA1EB
:103C30005FA168A579A58CEF9BE00E9425324AA57B
:103C40005BA56CA57DA58EE794E00E9425324EA56C
:103C50005FA568A979A987E694E00E94253283E5EB
:103C600091E20E94DF2F81E894E00E94DF2FB301F0
:103C7000A2018CEF9BE00E942532B501A4018EE7E2
:103C800094E00E942532B701A60187E694E00E94E5
:103C900025328AE00E94CD2FADC483E50E94756A6B
:103CA000882331F00E94EC69909309028093080206
:103CB0008091EE039091EF03A091F003B091F10396
:103CC000892B8A2B8B2B09F095C460910802709187
:103CD00009028AE794E00E941C3185E20E94CD2F00
:103CE0008AE00E94CD2F86C40E94F590F82E87FDB1
:103CF00081C483E50E94756A0F2D0F2C000C110BF7
:103D0000882369F10E94EC69F801EE0FFF1FE05073
:103D1000FE4F91838083000F111F000F111F980128
:103D2000285C3D4F7901BC01990F880B990B0E94CB
:103D300054B82AE037ED43E25CE30E94B3B8F801DF
:103D4000EC54FC4F20813181428153810E94B3B8F1
:103D5000D7016D937D938D939C9313974BC40E94D1
:103D6000053085E40E94CD2F80E38F0D0E94CD2F7A
:103D7000000F111FF801E050FE4F6081718182E752
:103D800094E00E941C3185E20E94CD2F8AE00E94BF
:103D9000CD2F30C480E50E94276A882309F42AC405
:103DA0000E94EC698C01892B09F07FC083E50E9499
:103DB000276A882389F00E94EC698F3FBFEF9B0739
:103DC00029F481ED9DE00E94172E14C4BC0181ED01
:103DD0009DE00E94832E0EC40E94053060E070E0DA
:103DE0008AE694E00E941C318091D30D28E532E0F0
:103DF0006901C81AD10887FDD394CC0CDD1CCC0C0A
:103E0000DD1C0D2C000CEE08FF088091D20D28E877
:103E100030E04901881A910887FD9394880C991C19
:103E2000880C991C092C000CAA08BB088091D10DA4
:103E30008F3FC1F090E0FC01EE0FFF1F8E0F9F1F20
:103E4000FC01E857F24F2181328183E0220F331FBA
:103E50008A95E1F794E0369527959A95E1F72E5FDC
:103E60003F4F02C020E030E02F5F3F4FC901330FCA
:103E7000AA0BBB0B9C01AD01281939094A095B0942
:103E8000A4EBB0E00E9495BCA7019601281939095E
:103E90004A095B090E9476BCB90180E69FE10E9455
:103EA0001C318AE00E94CD2FA5C30E940130B801C9
:103EB0008BE694E00E941C3187E195E00E94DF2FA1
:103EC00099C38AE50E94756A811106C083E50E9444
:103ED000756A882309F44FC00E94F06920E030E041
:103EE00040E050EC0E944DB887FF02C00C948C2734
:103EF0000E94F06920E030E040E050E40E9452BFB0
:103F0000181614F40C9485270E94F0696B017C014B
:103F100084E00E942D55811122C020915B0B3091CD
:103F20005C0B40915D0B50915E0BC701B6010E9486
:103F3000B3B80E945EBE20912D0430912E04260F4E
:103F4000371F30932E0420932D042091B20330911B
:103F5000B303620F731F7093B3036093B20380E5E2
:103F60000E94276A882311F40C9493270E94DC692D
:103F700081110C9493278091F00387FF02C00C9469
:103F8000BA278091F103837011F00C94BA270E9434
:103F9000053040910D0E50910E0E60910F0E7091F4
:103FA000100E8BE594E00E9425328AE00E94CD2F0E
:103FB00021C360E085E40E94916A811173C080E5AD
:103FC0000E94276A882351F00E94F06960936A0D6D
:103FD00070936B0D80936C0D90936D0D89E40E942E
:103FE000276A882381F00E94F0692CEA35EC47E2C9
:103FF0005EE30E94B3B860936E0D70936F0D809373
:10400000700D9093710D84E40E94276A882381F0DB
:104010000E94F0692CEA35EC47E25EE30E94ECBDB9
:104020006093720D7093730D8093740D9093750D62
:104030000E94053040916A0D50916B0D60916C0D9E
:1040400070916D0D85E494E00E9425322CEA35ECE8
:1040500047E25EE360916E0D70916F0D8091700D7F
:104060009091710D0E94ECBDAB01BC0181E494E024
:104070000E9425322CEA35EC47E25EE36091720D36
:104080007091730D8091740D9091750D0E94B3B86D
:10409000AB01BC018DE394E00E9425328AE00E94CE
:1040A000CD2FA8C20E94013089E494E00E94DF2F46
:1040B000A1C280E50E94276A882351F00E94F0691E
:1040C0006093DE037093DF038093E0039093E1033A
:1040D00089E40E94276A882381F00E94F0692CEA13
:1040E00035EC47E25EE30E94B3B86093E20370935D
:1040F000E3038093E4039093E50384E40E94276A3A
:10410000882381F00E94F0692CEA35EC47E25EE3F7
:104110000E94ECBD6093E6037093E7038093E8038D
:104120009093E9030E9405304091DE035091DF0334
:104130006091E0037091E10385E494E00E942532F0
:104140002CEA35EC47E25EE36091E2037091E30311
:104150008091E4039091E5030E94ECBDAB01BC01AA
:1041600081E494E00E9425322CEA35EC47E25EE3DC
:104170006091E6037091E7038091E8039091E90371
:104180000E94B3B8AB01BC018DE394E00E942532DC
:104190008AE00E94CD2F2EC283E50E94276A182F45
:1041A000882371F00E94F0690E945EBE70933D0208
:1041B00060933C0221E0672B09F020E02093CB06BE
:1041C00080E50E94276A882359F020913C023091B3
:1041D0003D02232B11F00E94DC698093CB060AC2BA
:1041E000111108C20E9405308AE294E00E94DF2F7C
:1041F0008091CB06882319F080ED94E102C081E123
:1042000094E00E94DF2F60913C0270913D0289E1B1
:1042100094E00E941C3185E194E00E94DF2FEAC106
:104220000E94FF71E7C10E945062E4C18091040EB8
:1042300081110C94981581E00E942C610C949815C2
:104240000E949D7E0E9489820E94E75AD3C10E94EB
:10425000196FD0C16FEF7FEF89E40E94826A082F47
:104260006FEF7FEF8AE40E94826A182F8AE50E942E
:10427000756A811108C081E50E94756AD82E88236D
:1042800009F47FC601C0D12CC02E81E0800F86309A
:1042900008F04DC0912E81E0810F863008F047C0B4
:1042A0000E94F0692B013C01F02E07FDF12C07FF65
:1042B00002C0A4E0CA2E812E17FD812C17FF02C078
:1042C000F4E09F2EE5E03E2ECF1408F493C1E82CD5
:1042D0003F9C500111249E1440F10E2D10E0DD2072
:1042E00071F0F501E00FF11FEE0FFF1FEE0FFF1F42
:1042F000E25BFC4F208131814281538103C020E089
:1043000030E0A9010A0D1B1D000F111F000F111F26
:10431000025B1C4FC301B2010E94F2BCF801608332
:10432000718382839383E394D6CFF394CDCF0E949D
:1043300001308DE095E00E94DF2F5CC187E00E9494
:104340004055811157C108E315E029E43DE03FA342
:104350002EA3AE014F5F5F4F1A0146E6C42E45E023
:10436000D42E7101C8010E94977EAEA1BFA18D908D
:104370009D90AD90BD90BFA3AEA3A50194010E94F6
:10438000F1BC2B013C01F70160837183828393832D
:1043900020E030E040EA51EC0E9452BF87FD0AC0A5
:1043A00020E030E040EA51E4C301B2010E944DB880
:1043B00018162CF4F601849118160CF4E9C5D701EF
:1043C0008D909D90AD90BD907D0120E030E040EA61
:1043D00051ECC501B4010E9452BF87FDE4C520E045
:1043E00030E040EA51E4C501B4010E944DB818160E
:1043F0000CF0E0C5D8C50E94D65CFCC00E944F9C62
:10440000F9C061E083E50E949D6A91E089270E94DE
:10441000F451F0C090934D030E94969D10924D036D
:10442000882309F4E7C00E94053088EC93E00E94DD
:10443000DF2FE0C00E94F590082F87FDDBC085E5E7
:104440000E94276A8823B1F1E02E002E000CFF089D
:104450000E94F0694B015C0120E030E0A9010E945C
:1044600052BF87FF04C0B7FAB094B7F8B094C70141
:1044700023E0880F991F2A95E1F79C012B5B3C4FA5
:104480007901D9018D929D92AD92BC92139720E053
:1044900030E048E453E4C501B4010E9452BF18164D
:1044A0004CF480E090E0A8E4B3E4F70180839183CA
:1044B000A283B3838CE40E94276A882309F49AC0FC
:1044C000002E000C110B0E94F0696B017C0120E0B2
:1044D00030E0A9010E9452BF87FF04C0F7FAF094B0
:1044E000F7F8F09420E030E048E453E4C701B60167
:1044F0000E9452BF980193E0220F331F9A95E1F773
:10450000F901EB5BFC4F18162CF0C482D582E682D1
:10451000F78270C080E090E0A8E4B3E484839583E0
:10452000A683B78367C08091F00387FD68C580913B
:10453000F103837009F063C54091050E5091060E9A
:104540006091070E7091080E89EB93E00E9425326E
:104550004091090E50910A0E60910B0E70910C0E55
:104560008EE794E00E94253240910D0E50910E0E80
:1045700060910F0E7091100E87E694E00E94253234
:104580008AE00E94CD2F36C081E08093270460E04E
:1045900083E50E949D6A81112DC00E94A8772AC0E0
:1045A0000E94A8AA27C00091290410912A040E9401
:1045B0009939609322047093230480932404909388
:1045C00025040023B9F00E94053084E50E94CD2F18
:1045D000B8017727072E000C880B990B0E94003139
:1045E00080E20E94CD2F89E494E00E94DF2F02C078
:1045F0000E94A8AAE0914403F0E0E350F24F8081CA
:10460000882339F089E793E00E94DF2F8AE00E9437
:10461000CD2FFDA9F0932C04C2C50E9450621092C8
:104620000B022091380D2AAB80E00E94E56E0E94BB
:104630009939609322047093230480932404909307
:1046400025040E940B5981E0809321040E94F15BB4
:104650008AE50E94276AF82E882399F081E00E945B
:104660002D55182F82E00E942D5501E0811101C0C7
:1046700000E0111108C088E50E94276A811103C07B
:10468000BAC100E0F8CF102F002309F4ACC1F11239
:10469000B7C111E001E031E03EA782E50E94756AF2
:1046A000882319F00E94F06904C060E070E080EA9D
:1046B00090E46E8F7F8F88A399A320E030E0A9015A
:1046C0000E944DB8882369F0011106C0111104C081
:1046D0004EA5442309F479C160E0CE014E960E94B4
:1046E000524A002309F4CFC0112309F4C9C0109223
:1046F000490D10924A0D10924B0D10924C0D1092D4
:104700004D0D10924E0D10924F0D1092500D0E94B3
:10471000E55AE6E6F5E054915BAB8AE595E00E9448
:10472000977E6B017C018EE595E00E94977E4B01A0
:104730005C019B01AC01C701B6010E9452BF181673
:104740002CF4A7019601C501B40104C0A501940190
:10475000C701B6010E94ECBD2B013C01E2E5F5E08A
:1047600085919591A591B4918EA39FA3A8A7B9A770
:10477000EEE4F5E025913591459154912AA73BA7A8
:104780004CA75DA7BC01CD010E9452BF181634F49E
:104790002AA43BA40CA53DA53EA305C02EA03FA086
:1047A00008A549A54EA3A3019201C301B2010E942D
:1047B000B3B820E030E040E85FE30E94F2BC0E9422
:1047C000A0BF9101402F5EA10E94B3B86A8F7B8F7A
:1047D0008C8F9D8FE7E6F5E0049120E030E040EC1F
:1047E0005FE3C501B4010E94B3B84B015C01602FC7
:1047F000000F770B880B990B0E9454B89B01AC01FA
:10480000C501B4010E94B3B869837A838B839C830A
:1048100020E030E040EC5FE3C701B6010E94B3B88E
:104820006B017C015BA9652F550F770B880B990BEA
:104830000E9454B89B01AC01C701B6010E94B3B8F5
:104840006E8B7F8B888F998FAE01465E5F4FBE0166
:104850006F5F7F4FCE0146960E94EB590E94B9B020
:104860001092490D10924A0D10924B0D10924C0D62
:1048700010924D0D10924E0D10924F0D1092500D42
:1048800080E00E9482B1112319F081E00E9482B180
:104890008EA5882309F499C080E00E946A6E83E0A7
:1048A0000E944055811191C00E94E55A4090510DDF
:1048B0005090520D6090530D7090540D2091050E44
:1048C0003091060E4091070E5091080E60E070E0A6
:1048D00086E193E40E94F1BC6B017C0160931104BA
:1048E0007093120480931304909314042091090E82
:1048F00030910A0E40910B0E50910C0E60E070E06A
:1049000086E193E40E94F1BC4B015C0160931504C5
:1049100070931604809317049093180420910D0E41
:1049200030910E0E40910F0E5091100EC301B20146
:104930000E94F1BC6093190470931A0480931B04C5
:1049400090931C0427E137EB41ED58EBC501B4010E
:104950000E9452BF87FD57C023E030E046E953E490
:10496000C501B4010E944DB818160CF44CC027E1E3
:1049700037EB41ED58EBC701B6010E9452BF87FDEE
:1049800042C023E030E046E953E4C701B6010E948B
:104990004DB81816C4F11E8A1F8A188E198E88E029
:1049A000E1E1F4E0DE01119601900D928A95E1F7C4
:1049B000AE014A5E5F4FBE016B5F7F4FCE01019635
:1049C0000E94EB5982E00E9482B10E94E55A8091D8
:1049D0001004809321048AA90E94E56E0E94F25877
:1049E0000E94E75A07CE01E089E50E94276A182F46
:1049F000081307C04CCE0023B9F3102F00E001C00C
:104A0000012FFEA64ACE0E94053086E295E00E9464
:104A1000DF2FDBCF0E94A382EDCD88E50E94276ABD
:104A200081115F9889E50E94276A81118A988AE539
:104A30000E94276A882331F0809108018170809359
:104A40000601479885E40E94276A882309F4D2CD9D
:104A50001298D0CD5F988A988091080181708093D8
:104A6000060147981298C6CD0E94F0690E945EBE6A
:104A7000CB010E94EF3961E081E00E9415B311E0A3
:104A80000C947A190E94F0690E945EBE6C38710520
:104A90000CF05EC17093DC036093DB030E947C9A90
:104AA00060E081E00E9415B381E0809306021AA6BF
:104AB0001BA61CA61DA61FAA18AE19AE1AAE1CAEC8
:104AC000FCE3FDAF2CE12EAF36E43FAFC12CD12C7F
:104AD00090E8E92E2FEBF22E1EA241E04BAF812C85
:104AE000912C54016091DB037091DC03072E000CC4
:104AF000880B990B0E9454B8162F072F782E692E19
:104B00009601A7010E944DB8882321F12091D70377
:104B10003091D8034091D9035091DA038EA9612FC7
:104B2000702F811109C0872D962D0E944DB8881FC6
:104B30008827881F8EA314C0872D962D0E944DB8FC
:104B400087FF0DC080910602882309F453CD10928F
:104B5000060250CD1C2D0D2D7E2C6F2C01C01EA2E7
:104B60000E9499396B017C01DC01CB012FA938AD82
:104B700049AD5AAD821B930BA40BB50BB7FD33C0E7
:104B8000D701C60188519C4FAF4FBF4F8FAB98AF35
:104B9000A9AFBAAF80E00E947C958FE493E00E94B9
:104BA000DF2F81149104A104B104B9F0D501C4012F
:104BB000805F984DAF4FBF4FBC01CD016C197D098F
:104BC0008E099F0928EE33E040E050E00E9454BC7B
:104BD000CA01B9010E94003103C08FE30E94CD2FAA
:104BE0008AE00E94CD2F80E00E945D320E949939B8
:104BF00060932204709323048093240490932504EB
:104C00009091D7039EA7A091D803AAABB091D903E6
:104C1000BBABE091DA03ECAB292F3A2F4B2F5E2F81
:104C2000612F702F872D962D0E94F1BC1B012C0146
:104C300020E030E0A9010E9452BF87FF04C057FA6C
:104C4000509457F8509481149104A104B104E1F4F4
:104C500020E030E040E85FE3C201B1010E944DB8BE
:104C600087FF1EC0FBADFF2339F085E0882E8DE065
:104C7000982EA12CB12C03C0812C912C54018C0CAA
:104C80009D1CAE1CBF1C0CC020E030E040E450E492
:104C9000C201B1010E9452BF181614F44601570117
:104CA0002EA12223C1F18AA59BA5ACA5BDA5892B68
:104CB0008A2B8B2B61F0D701C6012AA53BA54CA5F9
:104CC0005DA5821B930BA40BB50BB7FD24C02EA5CD
:104CD0003AA94BA95CA96CAD7DAD8EAD9FAD0E948C
:104CE000F1BC20E030E040E85FE30E944DB887FD72
:104CF00029CFD701C601805A9541AF4FBF4F8AA730
:104D00009BA7ACA7BDA79EA59CAFAAA9ADAFBBA909
:104D1000BEAFECA9EFAF80910602882309F412CF51
:104D200081149104A104B10431F41BAEC12ED02E24
:104D3000E72CF62CD7CEF0E1CF1AF7E2DF0AE10834
:104D4000F108C818D908EA08FB08F7FCEECFFACE3C
:104D50006CE870E09FCE0E94506288E50E94276A4E
:104D6000882331F05F9A8091030E8E7F8093030E2B
:104D700089E50E94276A882331F08A9A8091030E80
:104D80008D7F8093030E8AE50E94276A882361F055
:104D9000809108018095817080930601479A8091E7
:104DA000030E8B7F8093030E85E40E94276A88237D
:104DB00009F420CC0E94D62D1DCC0E94C0631ACCD1
:104DC000602F83E50E949D6A0C94DB1C83E50E94A2
:104DD000756A882391F00E94F0696093730B709359
:104DE000740B8093750B9093760B60937B0B709391
:104DF0007C0B80937D0B90937E0B80E50E94756AFF
:104E0000882351F00E94F0696093730B7093740BC8
:104E10008093750B9093760B82E50E94756A8823C8
:104E200051F00E94F0696093770B7093780B809338
:104E3000790B90937A0B84E50E94756A882309F4B4
:104E4000D9CB0E94F06960937B0B70937C0B8093AD
:104E50007D0B90937E0BCECB82E40E94276A882341
:104E600051F00E94D98D60934F0B7093500B80933B
:104E7000510B9093520B83E50E94276A882351F0CF
:104E80000E94F06960937F0B7093800B8093810B7D
:104E90009093820B84E50E94276A882351F00E9438
:104EA000F0696093830B7093840B8093850B9093D0
:104EB000860B8AE40E94276A882309F49BCB0E9410
:104EC000F0696B017C012AE037ED43E25CE30E946C
:104ED00052BF87FD13C02AE939E949E95EE3C701FA
:104EE000B6010E944DB818164CF0C092A206D0929E
:104EF000A306E092A406F092A5067CCB0E940130A6
:104F000081EA94E00E94DF2F75CBC12CD12CE12CDB
:104F100010E4F12E0C94881FC12CD12CE12CB0ECA4
:104F2000FB2E0C94881FA701960160910D0E7091C5
:104F30000E0E80910F0E9091100E0E94F2BC6093A5
:104F40000D0E70930E0E80930F0E9093100E0E9414
:104F5000053040910D0E50910E0E60910F0E709124
:104F6000100E8BE594E00E9425328AE00E94CD2F3E
:104F70000C94BB1F82E50E94276A81110C94C71F05
:104F800039CB0E94013081EF93E00E94DF2F32CBBA
:104F9000B7FAB094B7F8B094D7018D929D92AD92C4
:104FA000BC9213970CCA0E94013083ED93E00E94DB
:104FB000DF2F20CB0C5F1F4FBFEFCB1ADB0AE4E4DF
:104FC000F5E0E017F10709F0CDC938EBE32E33E047
:104FD000F32E10E0F10181919191A191B1911F0106
:104FE000F70181939193A193B1937F01812F0E9447
:104FF0000D551F5F133071F70E94E75AFBCAF091FD
:10500000050EFEA38090060E7090070E6090080EAD
:105010005090090E40900A0E30900B0E20900C0E0E
:10502000C0900D0ED0900E0EE0900F0EF090100E6E
:1050300088E50E94756A882361F10E94F0695B012E
:105040008C0120E030E046E953EC0E9452BF87FD1E
:105050000AC020E030E046E953E4B501C8010E94EF
:105060004DB8181694F46CE271E086EA93E00E9461
:105070001C316CE271E081EA93E00E941C318EE900
:1050800095E20E94DF2F10E005C0AEA28B2C702E9F
:10509000612E11E089E50E94756A882381F10E94E2
:1050A000F069962EA72EB82E092F20E030E046E9B1
:1050B00053EC0E9452BF87FD0CC020E030E046E96F
:1050C00053E4692D7A2D8B2D902F0E944DB8181620
:1050D00094F46CE271E08EE893E00E941C316CE283
:1050E00071E081EA93E00E941C318EE995E20E9412
:1050F000DF2F10E004C0592C4A2C3B2C202E8AE5CF
:105100000E94756A882339F10E94F0696B017C0165
:1051100020E030E040EA51EC0E9452BF87FD0AC017
:1051200020E030E040EA51E4C701B6010E944DB8EA
:1051300018168CF46CEE7FEF8CE793E00E941C3124
:1051400064E170E081EA93E00E941C318EE995E20F
:105150000E94DF2F4FCA112309F44CCA8EA1982D4B
:10516000A72DB62D8093050E9093060EA093070EE3
:10517000B093080E852D942DA32DB22D8093090E8A
:1051800090930A0EA0930B0EB0930C0EC0920D0ECE
:10519000D0920E0EE0920F0EF092100E2BCAEF96E8
:1051A0000FB6F894DEBF0FBECDBFDF91CF911F9138
:1051B0000F91FF90EF90DF90CF90BF90AF909F90B6
:1051C0008F907F906F905F904F903F902F900895B9
:1051D000CF92DF92EF92FF920F931F93CF93DF93C3
:1051E0006C018B017A01EC01CD5CDB4F888187FF7C
:1051F00004C0FB011182108224C02CE02C9DC00150
:105200002D9D900D11242881AC01420F511D27FDC9
:105210005A952091D00D30E04217530794F428811D
:10522000AC01420F511D27FD5A959A01FA01EE0F6C
:10523000FF1F2E0F3F1FF901E857F24F208127FD76
:1052400019C088818F5F88832CE02C9DC0012D9D23
:10525000900D11242881AC01420F511D27FD5A9554
:105260002091D00D30E042175307BCF428812C3038
:1052700044F113C02881820F911D27FD9A95FC01EE
:10528000EE0FFF1F8E0F9F1FFC01E857F24F80812A
:1052900060E08F770E940C38D4CFF8018081918133
:1052A000049680349C4918F480E49CE904C0F80119
:1052B000808191810496F701918380838FEF8883A9
:1052C00045C0F801408151812881BC01620F711DE8
:1052D00027FD7A959B01FB01EE0FFF1F2E0F3F1F4D
:1052E000F901E857F24F21813281240F351FF70170
:1052F000318320832881AC01420F511D27FD5A952F
:105300009A01FA01EE0FFF1F2E0F3F1FF901E85718
:10531000F24F208127FF1AC02881820F911D27FD9F
:105320009A95FC01EE0FFF1F8E0F9F1FFC01E8579F
:10533000F24F808161E08F77DF91CF911F910F91C4
:10534000FF90EF90DF90CF900C940C38DF91CF91CD
:105350001F910F91FF90EF90DF90CF9008954F92A3
:105360005F926F927F928F929F92AF92BF92CF92F5
:10537000DF92EF92FF920F931F93CF93DF93EC0195
:105380002091FC033091FD034091FE035091FF03F7
:10539000688179818A819B810E94F1BC6B017C01CB
:1053A00020910004309101044091020450910304C3
:1053B0006C817D818E819F810E94F1BC4B015C01DB
:1053C000A701960160912602709127028091280220
:1053D000909129020E944DB8882309F467C0C092B9
:1053E0002602D0922702E0922802F0922902209110
:1053F000C8043091C9044091CA045091CB04C7013C
:10540000B6010E94B3B82B013C010E9494BE6B010F
:105410007C0120E030E0A9010E944DB887FD11C059
:1054200020E030E040E850E4C701B6010E9452BFDE
:10543000181654F4C12CD12CC0E8EC2EC0E4FC2E7C
:1054400003C0C12CD12C7601A7019601C301B20182
:105450000E94F1BC2B013C0120E030E0A9010E9438
:105460004DB887FD09C04092C0045092C1046092BB
:10547000C2047092C30408C01092C0041092C10408
:105480001092C2041092C304C701B6010E945EBE0E
:105490006093BE04062E000C770B6F5F7F4F643065
:1054A000710514F064E070E06093BC04A501940100
:1054B00060912A0270912B0280912C0290912D0212
:1054C0000E944DB8D09124021091BE04811103C0F6
:1054D000D11368C0B9C080922A0290922B02A09288
:1054E0002C02B0922D022091CC043091CD04409139
:1054F000CE045091CF04C501B4010E94B3B84B0152
:105500005C010E9494BE6B017C0120E030E0A901A7
:105510000E944DB887FD11C020E030E040E850E423
:10552000C701B6010E9452BF181654F4C12CD12CE9
:10553000B0E8EB2EB0E4FB2E03C0C12CD12C7601D9
:10554000A7019601C501B4010E94F1BC4B015C01A9
:1055500020E030E0A9010E944DB887FD09C080928B
:10556000C4049092C504A092C604B092C70408C0B7
:105570001092C4041092C5041092C6041092C7047D
:10558000C701B6010E945EBE6093BF04062E000CE8
:10559000770B6F5F7F4F6430710514F064E070E04B
:1055A0006093BD04C091BF04D1137BC080912502DC
:1055B0008C1377C08090C4049090C504A090C6045A
:1055C000B090C7042091B4043091B5044091B60462
:1055D0005091B704C501B4010E94B3B82091B8043A
:1055E0003091B9044091BA045091BB040E94F2BCBE
:1055F0006B017C016093A8047093A9048093AA04B2
:105600009093AB042091AC043091AD044091AE0472
:105610005091AF04C501B4010E94B3B82091B00409
:105620003091B1044091B2045091B3040E94F2BC95
:10563000A70196010E94F1BC6093A4047093A50495
:105640008093A6049093A7042091A4043091A5040C
:105650004091A6045091A7046091C0047091C104C8
:105660008091C2049091C3040E94B3B82091A80411
:105670003091A9044091AA045091AB040E94F2BC5D
:10568000DF91CF911F910F91FF90EF90DF90CF901E
:10569000BF90AF909F908F907F906F905F904F9052
:1056A00008958091BE049091BF0490932502809349
:1056B00024020C2E000CDD0B85E0F82E2F2D12039A
:1056C000C0011124FC01EC0FFD1FEE0FFF1FEE0FB8
:1056D000FF1FE25BFC4F2081318142815381209387
:1056E000B8043093B9044093BA045093BB040091BA
:1056F000BD04002E000C110BFC01E00FF11FEE0F9A
:10570000FF1FEE0FFF1FE25BFC4F60817181828102
:1057100093810E94F1BC6093B4047093B5048093AC
:10572000B6049093B7042091BC043F2D2303F001ED
:105730001124CE0FDF1FCC0FDD1FCC0FDD1FC25B8E
:10574000DC4F288139814A815B812093B0043093FA
:10575000B1044093B2045093B304E00FF11FEE0F75
:10576000FF1FEE0FFF1FE25BFC4F608171818281A2
:1057700093810E94F1BC6093AC047093AD0480935C
:10578000AE049093AF0416CF8F929F92AF92BF92C8
:10579000CF92DF92EF92FF92C090F403D090F50386
:1057A000E090F603F090F70320E030E0A901C70194
:1057B000B6010E944DB8882359F0A701960160E018
:1057C00070E080E89FE30E94ECBD6B017C0103C0A8
:1057D000C12CD12C76018090F8039090F903A09011
:1057E000FA03B090FB0320E030E0A901C501B40149
:1057F0000E944DB8882349F0A501940160E070E053
:1058000080E89FE30E94ECBD03C060E070E0CB0144
:10581000C092C804D092C904E092CA04F092CB04AA
:105820006093CC047093CD048093CE049093CF0406
:10583000FF90EF90DF90CF90BF90AF909F908F90B0
:1058400008952F923F924F925F926F927F928F9224
:105850009F92AF92BF92CF92DF92EF92FF920F93FF
:105860001F93CF93DF93CDB7DEB72E970FB6F89483
:10587000DEBF0FBECDBFF82EE62E042FA22E282F9E
:1058800030E03C872B87462F50E05A87498715E048
:10589000129FC001139F900D11249E878D87FA01DE
:1058A000E80FF91FEE0FFF1FEE0FFF1FE25BFC4F2B
:1058B00060817181828193819B01AC010E94E4BF70
:1058C000882309F436C1F00E6E2D6A0D1F9D40012C
:1058D0001124E985FA85E80DF91DEE0FFF1FEE0F83
:1058E000FF1FE25BFC4FB080C180D280E380F00EEE
:1058F0001F9DA0011124E985FA85E40FF51FEE0F25
:10590000FF1FEE0FFF1FE25BFC4FF0800181128151
:105910007380E62FF0E0AD85BE85AE0FBF1FAA0FE6
:10592000BB1FAA0FBB1FA25BBC4F6C9011965C9073
:10593000119712964C90129713963C906A0D70E056
:10594000AD85BE85A60FB71FAA0FBB1FAA0FBB1F31
:10595000A25BBC4FBE87AD872C901196AC9011977F
:105960001296BC91B983AD85BE851396BC91BA835E
:10597000E80DF91DEE0FFF1FEE0FFF1FE25BFC4F5E
:105980009080818022812B8333813C83FA01E60F52
:10599000F71FEE0FFF1FEE0FFF1FE25BFC4F408172
:1059A0004D8351815E8382818F83938198872F2DD0
:1059B000302F412F572D6F2D702F812F972D0E9443
:1059C000E4BF882321F0F12C00E010E0712C2B2D96
:1059D0003C2D4D2D5E2D6B2D7C2D8D2D9E2D0E94F1
:1059E000E4BF882319F0BF2C6801E72C222D3A2D43
:1059F00049815A81622D7A2D89819A810E94E4BF62
:105A0000882321F0212CA12C19821A82262D352DD4
:105A1000442D532D662D752D842D932D0E94E4BFAA
:105A2000882321F0622C5A2C49803A802D813E81B6
:105A30004F8158856D817E818F8198850E94E4BF5A
:105A4000882321F01D821E821F821886292D382D61
:105A50004B815C81692D782D8B819C810E94E4BFF4
:105A6000882331F09D808E80AF81AB83B885BC8365
:105A700085E02B853C85829FF001839FF00D1124EA
:105A800049855A85E40FF51FEE0FFF1FEE0FFF1F2C
:105A9000E25BFC4FFA87E9872B2D3C2D4D2D5E2DC7
:105AA0006B2D7C2D8D2D9E2D0E94F2BC2F2D302F25
:105AB000412F572D0E94F1BC6B017C01262D352D05
:105AC000442D532D662D752D842D932D0E94F2BCEF
:105AD000222D3A2D49815A810E94F1BC9B01AC01D3
